{
  "contractName": "dAngelVesting",
  "abi": [
    {
      "inputs": [
        {
          "internalType": "address",
          "name": "token",
          "type": "address"
        },
        {
          "internalType": "uint256",
          "name": "start",
          "type": "uint256"
        },
        {
          "internalType": "uint256",
          "name": "duration",
          "type": "uint256"
        },
        {
          "internalType": "uint256",
          "name": "releasesCount",
          "type": "uint256"
        },
        {
          "internalType": "bool",
          "name": "revocable",
          "type": "bool"
        }
      ],
      "stateMutability": "nonpayable",
      "type": "constructor"
    },
    {
      "anonymous": false,
      "inputs": [
        {
          "indexed": true,
          "internalType": "address",
          "name": "previousOwner",
          "type": "address"
        },
        {
          "indexed": true,
          "internalType": "address",
          "name": "newOwner",
          "type": "address"
        }
      ],
      "name": "OwnershipTransferred",
      "type": "event"
    },
    {
      "anonymous": false,
      "inputs": [
        {
          "indexed": false,
          "internalType": "address",
          "name": "beneficiary",
          "type": "address"
        },
        {
          "indexed": false,
          "internalType": "uint256",
          "name": "amount",
          "type": "uint256"
        }
      ],
      "name": "Released",
      "type": "event"
    },
    {
      "anonymous": false,
      "inputs": [
        {
          "indexed": false,
          "internalType": "address",
          "name": "beneficiary",
          "type": "address"
        },
        {
          "indexed": false,
          "internalType": "uint256",
          "name": "amount",
          "type": "uint256"
        }
      ],
      "name": "Revoked",
      "type": "event"
    },
    {
      "anonymous": false,
      "inputs": [
        {
          "indexed": true,
          "internalType": "bytes32",
          "name": "role",
          "type": "bytes32"
        },
        {
          "indexed": true,
          "internalType": "bytes32",
          "name": "previousAdminRole",
          "type": "bytes32"
        },
        {
          "indexed": true,
          "internalType": "bytes32",
          "name": "newAdminRole",
          "type": "bytes32"
        }
      ],
      "name": "RoleAdminChanged",
      "type": "event"
    },
    {
      "anonymous": false,
      "inputs": [
        {
          "indexed": true,
          "internalType": "bytes32",
          "name": "role",
          "type": "bytes32"
        },
        {
          "indexed": true,
          "internalType": "address",
          "name": "account",
          "type": "address"
        },
        {
          "indexed": true,
          "internalType": "address",
          "name": "sender",
          "type": "address"
        }
      ],
      "name": "RoleGranted",
      "type": "event"
    },
    {
      "anonymous": false,
      "inputs": [
        {
          "indexed": true,
          "internalType": "bytes32",
          "name": "role",
          "type": "bytes32"
        },
        {
          "indexed": true,
          "internalType": "address",
          "name": "account",
          "type": "address"
        },
        {
          "indexed": true,
          "internalType": "address",
          "name": "sender",
          "type": "address"
        }
      ],
      "name": "RoleRevoked",
      "type": "event"
    },
    {
      "inputs": [],
      "name": "DEFAULT_ADMIN_ROLE",
      "outputs": [
        {
          "internalType": "bytes32",
          "name": "",
          "type": "bytes32"
        }
      ],
      "stateMutability": "view",
      "type": "function"
    },
    {
      "inputs": [],
      "name": "OPERATOR_ROLE",
      "outputs": [
        {
          "internalType": "bytes32",
          "name": "",
          "type": "bytes32"
        }
      ],
      "stateMutability": "view",
      "type": "function"
    },
    {
      "inputs": [
        {
          "internalType": "bytes32",
          "name": "role",
          "type": "bytes32"
        }
      ],
      "name": "getRoleAdmin",
      "outputs": [
        {
          "internalType": "bytes32",
          "name": "",
          "type": "bytes32"
        }
      ],
      "stateMutability": "view",
      "type": "function"
    },
    {
      "inputs": [
        {
          "internalType": "bytes32",
          "name": "role",
          "type": "bytes32"
        },
        {
          "internalType": "address",
          "name": "account",
          "type": "address"
        }
      ],
      "name": "grantRole",
      "outputs": [],
      "stateMutability": "nonpayable",
      "type": "function"
    },
    {
      "inputs": [
        {
          "internalType": "bytes32",
          "name": "role",
          "type": "bytes32"
        },
        {
          "internalType": "address",
          "name": "account",
          "type": "address"
        }
      ],
      "name": "hasRole",
      "outputs": [
        {
          "internalType": "bool",
          "name": "",
          "type": "bool"
        }
      ],
      "stateMutability": "view",
      "type": "function"
    },
    {
      "inputs": [],
      "name": "owner",
      "outputs": [
        {
          "internalType": "address",
          "name": "",
          "type": "address"
        }
      ],
      "stateMutability": "view",
      "type": "function"
    },
    {
      "inputs": [],
      "name": "renounceOwnership",
      "outputs": [],
      "stateMutability": "nonpayable",
      "type": "function"
    },
    {
      "inputs": [
        {
          "internalType": "bytes32",
          "name": "role",
          "type": "bytes32"
        },
        {
          "internalType": "address",
          "name": "account",
          "type": "address"
        }
      ],
      "name": "renounceRole",
      "outputs": [],
      "stateMutability": "nonpayable",
      "type": "function"
    },
    {
      "inputs": [
        {
          "internalType": "bytes32",
          "name": "role",
          "type": "bytes32"
        },
        {
          "internalType": "address",
          "name": "account",
          "type": "address"
        }
      ],
      "name": "revokeRole",
      "outputs": [],
      "stateMutability": "nonpayable",
      "type": "function"
    },
    {
      "inputs": [
        {
          "internalType": "bytes4",
          "name": "interfaceId",
          "type": "bytes4"
        }
      ],
      "name": "supportsInterface",
      "outputs": [
        {
          "internalType": "bool",
          "name": "",
          "type": "bool"
        }
      ],
      "stateMutability": "view",
      "type": "function"
    },
    {
      "inputs": [
        {
          "internalType": "address",
          "name": "newOwner",
          "type": "address"
        }
      ],
      "name": "transferOwnership",
      "outputs": [],
      "stateMutability": "nonpayable",
      "type": "function"
    },
    {
      "inputs": [],
      "name": "getToken",
      "outputs": [
        {
          "internalType": "address",
          "name": "",
          "type": "address"
        }
      ],
      "stateMutability": "view",
      "type": "function"
    },
    {
      "inputs": [
        {
          "internalType": "address",
          "name": "_beneficiary",
          "type": "address"
        }
      ],
      "name": "getBeneficiarySchedule",
      "outputs": [
        {
          "internalType": "bool",
          "name": "hasVesting",
          "type": "bool"
        },
        {
          "internalType": "uint256",
          "name": "totalAmount",
          "type": "uint256"
        },
        {
          "internalType": "uint256",
          "name": "vestedAmount",
          "type": "uint256"
        },
        {
          "internalType": "uint256",
          "name": "releasedAmount",
          "type": "uint256"
        },
        {
          "internalType": "bool",
          "name": "revoked",
          "type": "bool"
        }
      ],
      "stateMutability": "view",
      "type": "function"
    },
    {
      "inputs": [],
      "name": "getVestingSchedule",
      "outputs": [
        {
          "internalType": "uint256",
          "name": "startTime",
          "type": "uint256"
        },
        {
          "internalType": "uint256",
          "name": "finishTime",
          "type": "uint256"
        },
        {
          "internalType": "uint256",
          "name": "interval",
          "type": "uint256"
        },
        {
          "internalType": "uint256",
          "name": "releasesCount",
          "type": "uint256"
        },
        {
          "internalType": "bool",
          "name": "revocable",
          "type": "bool"
        },
        {
          "internalType": "uint256",
          "name": "numberOfBeneficiaries",
          "type": "uint256"
        }
      ],
      "stateMutability": "view",
      "type": "function"
    },
    {
      "inputs": [
        {
          "components": [
            {
              "internalType": "address",
              "name": "beneficiary",
              "type": "address"
            },
            {
              "internalType": "uint256",
              "name": "totalAmount",
              "type": "uint256"
            },
            {
              "internalType": "uint256",
              "name": "releasedAmount",
              "type": "uint256"
            },
            {
              "internalType": "bool",
              "name": "revoked",
              "type": "bool"
            }
          ],
          "internalType": "struct dAngelVesting.VestingSchedule[]",
          "name": "__vestingSchedules",
          "type": "tuple[]"
        }
      ],
      "name": "createVestingSchedules",
      "outputs": [],
      "stateMutability": "nonpayable",
      "type": "function"
    },
    {
      "inputs": [],
      "name": "claim",
      "outputs": [],
      "stateMutability": "nonpayable",
      "type": "function"
    },
    {
      "inputs": [
        {
          "internalType": "address",
          "name": "_beneficiary",
          "type": "address"
        },
        {
          "internalType": "address",
          "name": "receiver",
          "type": "address"
        }
      ],
      "name": "revokeVesting",
      "outputs": [],
      "stateMutability": "nonpayable",
      "type": "function"
    },
    {
      "inputs": [
        {
          "internalType": "address",
          "name": "receiver",
          "type": "address"
        }
      ],
      "name": "emergencyWithdraw",
      "outputs": [],
      "stateMutability": "nonpayable",
      "type": "function"
    }
  ],
  "bytecode": "0x60806040523480156200001157600080fd5b5060405162003a6638038062003a668339818101604052810190620000379190620005ac565b620000576200004b6200028c60201b60201c565b6200029460201b60201c565b6001600281905550600073ffffffffffffffffffffffffffffffffffffffff168573ffffffffffffffffffffffffffffffffffffffff1603620000d1576040517f08c379a0000000000000000000000000000000000000000000000000000000008152600401620000c890620006bb565b60405180910390fd5b6000831162000117576040517f08c379a00000000000000000000000000000000000000000000000000000000081526004016200010e906200072d565b60405180910390fd5b600082116200015d576040517f08c379a00000000000000000000000000000000000000000000000000000000081526004016200015490620007c5565b60405180910390fd5b83421115620001a3576040517f08c379a00000000000000000000000000000000000000000000000000000000081526004016200019a9062000837565b60405180910390fd5b84600760016101000a81548173ffffffffffffffffffffffffffffffffffffffff021916908373ffffffffffffffffffffffffffffffffffffffff1602179055508360038190555082600581905550816006819055506005546006546200020b919062000888565b6003546200021a9190620008e9565b60048190555080600760006101000a81548160ff0219169083151502179055506200024f6000801b336200035860201b60201c565b620002817f97667070c54ef182b0f5858b034beac1b6f3089aa2d3188bb1e8929f4fa9b929336200035860201b60201c565b505050505062000946565b600033905090565b60008060009054906101000a900473ffffffffffffffffffffffffffffffffffffffff169050816000806101000a81548173ffffffffffffffffffffffffffffffffffffffff021916908373ffffffffffffffffffffffffffffffffffffffff1602179055508173ffffffffffffffffffffffffffffffffffffffff168173ffffffffffffffffffffffffffffffffffffffff167f8be0079c531659141344cd1fd0a4f28419497f9722a3daafe3b4186f6b6457e060405160405180910390a35050565b6200036a82826200036e60201b60201c565b5050565b6200038082826200045f60201b60201c565b6200045b57600180600084815260200190815260200160002060000160008373ffffffffffffffffffffffffffffffffffffffff1673ffffffffffffffffffffffffffffffffffffffff16815260200190815260200160002060006101000a81548160ff021916908315150217905550620004006200028c60201b60201c565b73ffffffffffffffffffffffffffffffffffffffff168173ffffffffffffffffffffffffffffffffffffffff16837f2f8788117e7eff1d82e926ec794901d17c78024a50270940304540a733656f0d60405160405180910390a45b5050565b60006001600084815260200190815260200160002060000160008373ffffffffffffffffffffffffffffffffffffffff1673ffffffffffffffffffffffffffffffffffffffff16815260200190815260200160002060009054906101000a900460ff16905092915050565b600080fd5b600073ffffffffffffffffffffffffffffffffffffffff82169050919050565b6000620004fc82620004cf565b9050919050565b6200050e81620004ef565b81146200051a57600080fd5b50565b6000815190506200052e8162000503565b92915050565b6000819050919050565b620005498162000534565b81146200055557600080fd5b50565b60008151905062000569816200053e565b92915050565b60008115159050919050565b62000586816200056f565b81146200059257600080fd5b50565b600081519050620005a6816200057b565b92915050565b600080600080600060a08688031215620005cb57620005ca620004ca565b5b6000620005db888289016200051d565b9550506020620005ee8882890162000558565b9450506040620006018882890162000558565b9350506060620006148882890162000558565b9250506080620006278882890162000595565b9150509295509295909350565b600082825260208201905092915050565b7f64416e67656c56657374696e673a20746f6b656e20697320746865207a65726f60008201527f2061646472657373210000000000000000000000000000000000000000000000602082015250565b6000620006a360298362000634565b9150620006b08262000645565b604082019050919050565b60006020820190508181036000830152620006d68162000694565b9050919050565b7f64416e67656c56657374696e673a206475726174696f6e206973203021000000600082015250565b600062000715601d8362000634565b91506200072282620006dd565b602082019050919050565b60006020820190508181036000830152620007488162000706565b9050919050565b7f64416e67656c56657374696e673a2072656c656173657320636f756e7420697360008201527f2030210000000000000000000000000000000000000000000000000000000000602082015250565b6000620007ad60238362000634565b9150620007ba826200074f565b604082019050919050565b60006020820190508181036000830152620007e0816200079e565b9050919050565b7f64416e67656c56657374696e673a2054494d455354414d505f494e56414c4944600082015250565b60006200081f60208362000634565b91506200082c82620007e7565b602082019050919050565b60006020820190508181036000830152620008528162000810565b9050919050565b7f4e487b7100000000000000000000000000000000000000000000000000000000600052601160045260246000fd5b6000620008958262000534565b9150620008a28362000534565b9250817fffffffffffffffffffffffffffffffffffffffffffffffffffffffffffffffff0483118215151615620008de57620008dd62000859565b5b828202905092915050565b6000620008f68262000534565b9150620009038362000534565b9250827fffffffffffffffffffffffffffffffffffffffffffffffffffffffffffffffff038211156200093b576200093a62000859565b5b828201905092915050565b61311080620009566000396000f3fe608060405234801561001057600080fd5b50600436106101165760003560e01c80636ff1c9bc116100a2578063a217fddf11610071578063a217fddf146102c2578063a7252c6a146102e0578063d547741f146102fc578063f2fde38b14610318578063f5b541a61461033457610116565b80636ff1c9bc1461024e578063715018a61461026a5780638da5cb5b1461027457806391d148541461029257610116565b80633613b781116100e95780633613b781146101b557806336568abe146101d15780633a05f0d8146101ed5780634e71d92d146102105780635a26ad631461021a57610116565b806301ffc9a71461011b57806321df0da71461014b578063248a9ca3146101695780632f2ff15d14610199575b600080fd5b61013560048036038101906101309190611eab565b610352565b6040516101429190611ef3565b60405180910390f35b6101536103cc565b6040516101609190611f4f565b60405180910390f35b610183600480360381019061017e9190611fa0565b6103f6565b6040516101909190611fdc565b60405180910390f35b6101b360048036038101906101ae9190612023565b610416565b005b6101cf60048036038101906101ca9190612063565b61043f565b005b6101eb60048036038101906101e69190612023565b6106e1565b005b6101f5610764565b604051610207969594939291906120bc565b60405180910390f35b6102186107a3565b005b610234600480360381019061022f919061211d565b610bb7565b60405161024595949392919061214a565b60405180910390f35b6102686004803603810190610263919061211d565b610caa565b005b610272610e86565b005b61027c610f0e565b6040516102899190611f4f565b60405180910390f35b6102ac60048036038101906102a79190612023565b610f37565b6040516102b99190611ef3565b60405180910390f35b6102ca610fa2565b6040516102d79190611fdc565b60405180910390f35b6102fa60048036038101906102f591906123cb565b610fa9565b005b61031660048036038101906103119190612023565b61104c565b005b610332600480360381019061032d919061211d565b611075565b005b61033c61116c565b6040516103499190611fdc565b60405180910390f35b60007f7965db0b000000000000000000000000000000000000000000000000000000007bffffffffffffffffffffffffffffffffffffffffffffffffffffffff1916827bffffffffffffffffffffffffffffffffffffffffffffffffffffffff191614806103c557506103c482611190565b5b9050919050565b6000600760019054906101000a900473ffffffffffffffffffffffffffffffffffffffff16905090565b600060016000838152602001908152602001600020600101549050919050565b61041f826103f6565b6104308161042b6111fa565b611202565b61043a838361129f565b505050565b6104707f97667070c54ef182b0f5858b034beac1b6f3089aa2d3188bb1e8929f4fa9b92961046b6111fa565b610f37565b61047957600080fd5b81600073ffffffffffffffffffffffffffffffffffffffff16600960008373ffffffffffffffffffffffffffffffffffffffff1673ffffffffffffffffffffffffffffffffffffffff16815260200190815260200160002060000160009054906101000a900473ffffffffffffffffffffffffffffffffffffffff1673ffffffffffffffffffffffffffffffffffffffff160361051557600080fd5b60001515600960008373ffffffffffffffffffffffffffffffffffffffff1673ffffffffffffffffffffffffffffffffffffffff16815260200190815260200160002060030160009054906101000a900460ff1615151461057557600080fd5b600760009054906101000a900460ff166105c4576040517f08c379a00000000000000000000000000000000000000000000000000000000081526004016105bb90612497565b60405180910390fd5b6000600960008573ffffffffffffffffffffffffffffffffffffffff1673ffffffffffffffffffffffffffffffffffffffff1681526020019081526020016000209050600061061785836002015461137f565b905060008111156106845780600a5461063091906124e6565b600a819055506106838482600760019054906101000a900473ffffffffffffffffffffffffffffffffffffffff1673ffffffffffffffffffffffffffffffffffffffff1661139d9092919063ffffffff16565b5b60018260030160006101000a81548160ff0219169083151502179055507f713b90881ad62c4fa8ab6bd9197fa86481fc0c11b2edba60026514281b2dbac485826040516106d292919061251a565b60405180910390a15050505050565b6106e96111fa565b73ffffffffffffffffffffffffffffffffffffffff168173ffffffffffffffffffffffffffffffffffffffff1614610756576040517f08c379a000000000000000000000000000000000000000000000000000000000815260040161074d906125b5565b60405180910390fd5b6107608282611423565b5050565b600080600080600080600354600454600554600654600760009054906101000a900460ff16600880549050955095509550955095509550909192939495565b60028054036107e7576040517f08c379a00000000000000000000000000000000000000000000000000000000081526004016107de90612621565b60405180910390fd5b6002808190555033600073ffffffffffffffffffffffffffffffffffffffff16600960008373ffffffffffffffffffffffffffffffffffffffff1673ffffffffffffffffffffffffffffffffffffffff16815260200190815260200160002060000160009054906101000a900473ffffffffffffffffffffffffffffffffffffffff1673ffffffffffffffffffffffffffffffffffffffff160361088a57600080fd5b60001515600960008373ffffffffffffffffffffffffffffffffffffffff1673ffffffffffffffffffffffffffffffffffffffff16815260200190815260200160002060030160009054906101000a900460ff161515146108ea57600080fd5b6000600960003373ffffffffffffffffffffffffffffffffffffffff1673ffffffffffffffffffffffffffffffffffffffff16815260200190815260200160002090508060000160009054906101000a900473ffffffffffffffffffffffffffffffffffffffff1673ffffffffffffffffffffffffffffffffffffffff163373ffffffffffffffffffffffffffffffffffffffff16146109bf576040517f08c379a00000000000000000000000000000000000000000000000000000000081526004016109b69061268d565b60405180910390fd5b60006109cf33836002015461137f565b905060008111610a14576040517f08c379a0000000000000000000000000000000000000000000000000000000008152600401610a0b9061271f565b60405180910390fd5b6000600760019054906101000a900473ffffffffffffffffffffffffffffffffffffffff1673ffffffffffffffffffffffffffffffffffffffff166370a08231306040518263ffffffff1660e01b8152600401610a719190611f4f565b602060405180830381865afa158015610a8e573d6000803e3d6000fd5b505050506040513d601f19601f82011682018060405250810190610ab29190612754565b905081811015610af7576040517f08c379a0000000000000000000000000000000000000000000000000000000008152600401610aee906127f3565b60405180910390fd5b818360020154610b079190612813565b836002018190555081600a54610b1d91906124e6565b600a81905550610b703383600760019054906101000a900473ffffffffffffffffffffffffffffffffffffffff1673ffffffffffffffffffffffffffffffffffffffff1661139d9092919063ffffffff16565b7fb21fb52d5749b80f3182f8c6992236b5e5576681880914484d7f4c9b062e619e3383604051610ba192919061251a565b60405180910390a1505050506001600281905550565b600080600080600080600960008873ffffffffffffffffffffffffffffffffffffffff1673ffffffffffffffffffffffffffffffffffffffff16815260200190815260200160002090508060030160009054906101000a900460ff16158015610c715750600073ffffffffffffffffffffffffffffffffffffffff168160000160009054906101000a900473ffffffffffffffffffffffffffffffffffffffff1673ffffffffffffffffffffffffffffffffffffffff1614155b8160010154610c7f89611505565b83600201548460030160009054906101000a900460ff16955095509550955095505091939590929450565b610cb26111fa565b73ffffffffffffffffffffffffffffffffffffffff16610cd0610f0e565b73ffffffffffffffffffffffffffffffffffffffff1614610d26576040517f08c379a0000000000000000000000000000000000000000000000000000000008152600401610d1d906128b5565b60405180910390fd5b600073ffffffffffffffffffffffffffffffffffffffff168173ffffffffffffffffffffffffffffffffffffffff1603610d95576040517f08c379a0000000000000000000000000000000000000000000000000000000008152600401610d8c90612921565b60405180910390fd5b6000600760019054906101000a900473ffffffffffffffffffffffffffffffffffffffff1673ffffffffffffffffffffffffffffffffffffffff166370a08231306040518263ffffffff1660e01b8152600401610df29190611f4f565b602060405180830381865afa158015610e0f573d6000803e3d6000fd5b505050506040513d601f19601f82011682018060405250810190610e339190612754565b9050610e828282600760019054906101000a900473ffffffffffffffffffffffffffffffffffffffff1673ffffffffffffffffffffffffffffffffffffffff1661139d9092919063ffffffff16565b5050565b610e8e6111fa565b73ffffffffffffffffffffffffffffffffffffffff16610eac610f0e565b73ffffffffffffffffffffffffffffffffffffffff1614610f02576040517f08c379a0000000000000000000000000000000000000000000000000000000008152600401610ef9906128b5565b60405180910390fd5b610f0c60006115e8565b565b60008060009054906101000a900473ffffffffffffffffffffffffffffffffffffffff16905090565b60006001600084815260200190815260200160002060000160008373ffffffffffffffffffffffffffffffffffffffff1673ffffffffffffffffffffffffffffffffffffffff16815260200190815260200160002060009054906101000a900460ff16905092915050565b6000801b81565b610fda7f97667070c54ef182b0f5858b034beac1b6f3089aa2d3188bb1e8929f4fa9b929610fd56111fa565b610f37565b610fe357600080fd5b60005b81518110156110485761103582828151811061100557611004612941565b5b60200260200101516000015183838151811061102457611023612941565b5b6020026020010151602001516116ac565b808061104090612970565b915050610fe6565b5050565b611055826103f6565b611066816110616111fa565b611202565b6110708383611423565b505050565b61107d6111fa565b73ffffffffffffffffffffffffffffffffffffffff1661109b610f0e565b73ffffffffffffffffffffffffffffffffffffffff16146110f1576040517f08c379a00000000000000000000000000000000000000000000000000000000081526004016110e8906128b5565b60405180910390fd5b600073ffffffffffffffffffffffffffffffffffffffff168173ffffffffffffffffffffffffffffffffffffffff1603611160576040517f08c379a000000000000000000000000000000000000000000000000000000000815260040161115790612a2a565b60405180910390fd5b611169816115e8565b50565b7f97667070c54ef182b0f5858b034beac1b6f3089aa2d3188bb1e8929f4fa9b92981565b60007f01ffc9a7000000000000000000000000000000000000000000000000000000007bffffffffffffffffffffffffffffffffffffffffffffffffffffffff1916827bffffffffffffffffffffffffffffffffffffffffffffffffffffffff1916149050919050565b600033905090565b61120c8282610f37565b61129b576112318173ffffffffffffffffffffffffffffffffffffffff166014611996565b61123f8360001c6020611996565b604051602001611250929190612b5c565b6040516020818303038152906040526040517f08c379a00000000000000000000000000000000000000000000000000000000081526004016112929190612bcf565b60405180910390fd5b5050565b6112a98282610f37565b61137b57600180600084815260200190815260200160002060000160008373ffffffffffffffffffffffffffffffffffffffff1673ffffffffffffffffffffffffffffffffffffffff16815260200190815260200160002060006101000a81548160ff0219169083151502179055506113206111fa565b73ffffffffffffffffffffffffffffffffffffffff168173ffffffffffffffffffffffffffffffffffffffff16837f2f8788117e7eff1d82e926ec794901d17c78024a50270940304540a733656f0d60405160405180910390a45b5050565b60008161138b84611505565b61139591906124e6565b905092915050565b61141e8363a9059cbb60e01b84846040516024016113bc92919061251a565b604051602081830303815290604052907bffffffffffffffffffffffffffffffffffffffffffffffffffffffff19166020820180517bffffffffffffffffffffffffffffffffffffffffffffffffffffffff8381831617835250505050611bd2565b505050565b61142d8282610f37565b156115015760006001600084815260200190815260200160002060000160008373ffffffffffffffffffffffffffffffffffffffff1673ffffffffffffffffffffffffffffffffffffffff16815260200190815260200160002060006101000a81548160ff0219169083151502179055506114a66111fa565b73ffffffffffffffffffffffffffffffffffffffff168173ffffffffffffffffffffffffffffffffffffffff16837ff6391f5c32d9c69d2a47ea670b442974b53935d1edc7fd64eb21e047a839171b60405160405180910390a45b5050565b6000804290506000600960008573ffffffffffffffffffffffffffffffffffffffff1673ffffffffffffffffffffffffffffffffffffffff1681526020019081526020016000209050600354821015611563576000925050506115e3565b6004548210158061158257508060030160009054906101000a900460ff165b15611595578060010154925050506115e3565b6000600354836115a591906124e6565b90506000600554826115b79190612c20565b9050600060065484600101546115cd9190612c20565b905080826115db9190612c51565b955050505050505b919050565b60008060009054906101000a900473ffffffffffffffffffffffffffffffffffffffff169050816000806101000a81548173ffffffffffffffffffffffffffffffffffffffff021916908373ffffffffffffffffffffffffffffffffffffffff1602179055508173ffffffffffffffffffffffffffffffffffffffff168173ffffffffffffffffffffffffffffffffffffffff167f8be0079c531659141344cd1fd0a4f28419497f9722a3daafe3b4186f6b6457e060405160405180910390a35050565b6116dd7f97667070c54ef182b0f5858b034beac1b6f3089aa2d3188bb1e8929f4fa9b9296116d86111fa565b610f37565b6116e657600080fd5b600073ffffffffffffffffffffffffffffffffffffffff168273ffffffffffffffffffffffffffffffffffffffff1603611755576040517f08c379a000000000000000000000000000000000000000000000000000000000815260040161174c90612cf7565b60405180910390fd5b60008111611798576040517f08c379a000000000000000000000000000000000000000000000000000000000815260040161178f90612d63565b60405180910390fd5b6000600960008473ffffffffffffffffffffffffffffffffffffffff1673ffffffffffffffffffffffffffffffffffffffff16815260200190815260200160002090506000816001015414611822576040517f08c379a000000000000000000000000000000000000000000000000000000000815260040161181990612df5565b60405180910390fd5b60405180608001604052808473ffffffffffffffffffffffffffffffffffffffff1681526020018381526020016000815260200160001515815250600960008573ffffffffffffffffffffffffffffffffffffffff1673ffffffffffffffffffffffffffffffffffffffff16815260200190815260200160002060008201518160000160006101000a81548173ffffffffffffffffffffffffffffffffffffffff021916908373ffffffffffffffffffffffffffffffffffffffff160217905550602082015181600101556040820151816002015560608201518160030160006101000a81548160ff0219169083151502179055509050506008839080600181540180825580915050600190039060005260206000200160009091909190916101000a81548173ffffffffffffffffffffffffffffffffffffffff021916908373ffffffffffffffffffffffffffffffffffffffff16021790555081600a5461198b9190612813565b600a81905550505050565b6060600060028360026119a99190612c51565b6119b39190612813565b67ffffffffffffffff8111156119cc576119cb6121b3565b5b6040519080825280601f01601f1916602001820160405280156119fe5781602001600182028036833780820191505090505b5090507f300000000000000000000000000000000000000000000000000000000000000081600081518110611a3657611a35612941565b5b60200101907effffffffffffffffffffffffffffffffffffffffffffffffffffffffffffff1916908160001a9053507f780000000000000000000000000000000000000000000000000000000000000081600181518110611a9a57611a99612941565b5b60200101907effffffffffffffffffffffffffffffffffffffffffffffffffffffffffffff1916908160001a90535060006001846002611ada9190612c51565b611ae49190612813565b90505b6001811115611b84577f3031323334353637383961626364656600000000000000000000000000000000600f861660108110611b2657611b25612941565b5b1a60f81b828281518110611b3d57611b3c612941565b5b60200101907effffffffffffffffffffffffffffffffffffffffffffffffffffffffffffff1916908160001a905350600485901c945080611b7d90612e15565b9050611ae7565b5060008414611bc8576040517f08c379a0000000000000000000000000000000000000000000000000000000008152600401611bbf90612e8a565b60405180910390fd5b8091505092915050565b6000611c34826040518060400160405280602081526020017f5361666545524332303a206c6f772d6c6576656c2063616c6c206661696c65648152508573ffffffffffffffffffffffffffffffffffffffff16611c999092919063ffffffff16565b9050600081511115611c945780806020019051810190611c549190612ebf565b611c93576040517f08c379a0000000000000000000000000000000000000000000000000000000008152600401611c8a90612f5e565b60405180910390fd5b5b505050565b6060611ca88484600085611cb1565b90509392505050565b606082471015611cf6576040517f08c379a0000000000000000000000000000000000000000000000000000000008152600401611ced90612ff0565b60405180910390fd5b611cff85611dc5565b611d3e576040517f08c379a0000000000000000000000000000000000000000000000000000000008152600401611d359061305c565b60405180910390fd5b6000808673ffffffffffffffffffffffffffffffffffffffff168587604051611d6791906130c3565b60006040518083038185875af1925050503d8060008114611da4576040519150601f19603f3d011682016040523d82523d6000602084013e611da9565b606091505b5091509150611db9828286611dd8565b92505050949350505050565b600080823b905060008111915050919050565b60608315611de857829050611e38565b600083511115611dfb5782518084602001fd5b816040517f08c379a0000000000000000000000000000000000000000000000000000000008152600401611e2f9190612bcf565b60405180910390fd5b9392505050565b6000604051905090565b600080fd5b600080fd5b60007fffffffff0000000000000000000000000000000000000000000000000000000082169050919050565b611e8881611e53565b8114611e9357600080fd5b50565b600081359050611ea581611e7f565b92915050565b600060208284031215611ec157611ec0611e49565b5b6000611ecf84828501611e96565b91505092915050565b60008115159050919050565b611eed81611ed8565b82525050565b6000602082019050611f086000830184611ee4565b92915050565b600073ffffffffffffffffffffffffffffffffffffffff82169050919050565b6000611f3982611f0e565b9050919050565b611f4981611f2e565b82525050565b6000602082019050611f646000830184611f40565b92915050565b6000819050919050565b611f7d81611f6a565b8114611f8857600080fd5b50565b600081359050611f9a81611f74565b92915050565b600060208284031215611fb657611fb5611e49565b5b6000611fc484828501611f8b565b91505092915050565b611fd681611f6a565b82525050565b6000602082019050611ff16000830184611fcd565b92915050565b61200081611f2e565b811461200b57600080fd5b50565b60008135905061201d81611ff7565b92915050565b6000806040838503121561203a57612039611e49565b5b600061204885828601611f8b565b92505060206120598582860161200e565b9150509250929050565b6000806040838503121561207a57612079611e49565b5b60006120888582860161200e565b92505060206120998582860161200e565b9150509250929050565b6000819050919050565b6120b6816120a3565b82525050565b600060c0820190506120d160008301896120ad565b6120de60208301886120ad565b6120eb60408301876120ad565b6120f860608301866120ad565b6121056080830185611ee4565b61211260a08301846120ad565b979650505050505050565b60006020828403121561213357612132611e49565b5b60006121418482850161200e565b91505092915050565b600060a08201905061215f6000830188611ee4565b61216c60208301876120ad565b61217960408301866120ad565b61218660608301856120ad565b6121936080830184611ee4565b9695505050505050565b600080fd5b6000601f19601f8301169050919050565b7f4e487b7100000000000000000000000000000000000000000000000000000000600052604160045260246000fd5b6121eb826121a2565b810181811067ffffffffffffffff8211171561220a576122096121b3565b5b80604052505050565b600061221d611e3f565b905061222982826121e2565b919050565b600067ffffffffffffffff821115612249576122486121b3565b5b602082029050602081019050919050565b600080fd5b600080fd5b61226d816120a3565b811461227857600080fd5b50565b60008135905061228a81612264565b92915050565b61229981611ed8565b81146122a457600080fd5b50565b6000813590506122b681612290565b92915050565b6000608082840312156122d2576122d161225f565b5b6122dc6080612213565b905060006122ec8482850161200e565b60008301525060206123008482850161227b565b60208301525060406123148482850161227b565b6040830152506060612328848285016122a7565b60608301525092915050565b60006123476123428461222e565b612213565b9050808382526020820190506080840283018581111561236a5761236961225a565b5b835b81811015612393578061237f88826122bc565b84526020840193505060808101905061236c565b5050509392505050565b600082601f8301126123b2576123b161219d565b5b81356123c2848260208601612334565b91505092915050565b6000602082840312156123e1576123e0611e49565b5b600082013567ffffffffffffffff8111156123ff576123fe611e4e565b5b61240b8482850161239d565b91505092915050565b600082825260208201905092915050565b7f64416e67656c56657374696e673a2056455354494e475f49525245564f43414260008201527f4c45000000000000000000000000000000000000000000000000000000000000602082015250565b6000612481602283612414565b915061248c82612425565b604082019050919050565b600060208201905081810360008301526124b081612474565b9050919050565b7f4e487b7100000000000000000000000000000000000000000000000000000000600052601160045260246000fd5b60006124f1826120a3565b91506124fc836120a3565b92508282101561250f5761250e6124b7565b5b828203905092915050565b600060408201905061252f6000830185611f40565b61253c60208301846120ad565b9392505050565b7f416363657373436f6e74726f6c3a2063616e206f6e6c792072656e6f756e636560008201527f20726f6c657320666f722073656c660000000000000000000000000000000000602082015250565b600061259f602f83612414565b91506125aa82612543565b604082019050919050565b600060208201905081810360008301526125ce81612592565b9050919050565b7f5265656e7472616e637947756172643a207265656e7472616e742063616c6c00600082015250565b600061260b601f83612414565b9150612616826125d5565b602082019050919050565b6000602082019050818103600083015261263a816125fe565b9050919050565b7f64416e67656c56657374696e673a204e4f545f42454e45464943494152590000600082015250565b6000612677601e83612414565b915061268282612641565b602082019050919050565b600060208201905081810360008301526126a68161266a565b9050919050565b7f64416e67656c56657374696e673a204e4f5f52454c45415341424c455f414d4f60008201527f554e540000000000000000000000000000000000000000000000000000000000602082015250565b6000612709602383612414565b9150612714826126ad565b604082019050919050565b60006020820190508181036000830152612738816126fc565b9050919050565b60008151905061274e81612264565b92915050565b60006020828403121561276a57612769611e49565b5b60006127788482850161273f565b91505092915050565b7f64416e67656c56657374696e673a20494e53554646494349454e545f42414c4160008201527f4e43450000000000000000000000000000000000000000000000000000000000602082015250565b60006127dd602383612414565b91506127e882612781565b604082019050919050565b6000602082019050818103600083015261280c816127d0565b9050919050565b600061281e826120a3565b9150612829836120a3565b9250827fffffffffffffffffffffffffffffffffffffffffffffffffffffffffffffffff0382111561285e5761285d6124b7565b5b828201905092915050565b7f4f776e61626c653a2063616c6c6572206973206e6f7420746865206f776e6572600082015250565b600061289f602083612414565b91506128aa82612869565b602082019050919050565b600060208201905081810360008301526128ce81612892565b9050919050565b7f64416e67656c56657374696e673a20414444524553535f494e56414c49440000600082015250565b600061290b601e83612414565b9150612916826128d5565b602082019050919050565b6000602082019050818103600083015261293a816128fe565b9050919050565b7f4e487b7100000000000000000000000000000000000000000000000000000000600052603260045260246000fd5b600061297b826120a3565b91507fffffffffffffffffffffffffffffffffffffffffffffffffffffffffffffffff82036129ad576129ac6124b7565b5b600182019050919050565b7f4f776e61626c653a206e6577206f776e657220697320746865207a65726f206160008201527f6464726573730000000000000000000000000000000000000000000000000000602082015250565b6000612a14602683612414565b9150612a1f826129b8565b604082019050919050565b60006020820190508181036000830152612a4381612a07565b9050919050565b600081905092915050565b7f416363657373436f6e74726f6c3a206163636f756e7420000000000000000000600082015250565b6000612a8b601783612a4a565b9150612a9682612a55565b601782019050919050565b600081519050919050565b60005b83811015612aca578082015181840152602081019050612aaf565b83811115612ad9576000848401525b50505050565b6000612aea82612aa1565b612af48185612a4a565b9350612b04818560208601612aac565b80840191505092915050565b7f206973206d697373696e6720726f6c6520000000000000000000000000000000600082015250565b6000612b46601183612a4a565b9150612b5182612b10565b601182019050919050565b6000612b6782612a7e565b9150612b738285612adf565b9150612b7e82612b39565b9150612b8a8284612adf565b91508190509392505050565b6000612ba182612aa1565b612bab8185612414565b9350612bbb818560208601612aac565b612bc4816121a2565b840191505092915050565b60006020820190508181036000830152612be98184612b96565b905092915050565b7f4e487b7100000000000000000000000000000000000000000000000000000000600052601260045260246000fd5b6000612c2b826120a3565b9150612c36836120a3565b925082612c4657612c45612bf1565b5b828204905092915050565b6000612c5c826120a3565b9150612c67836120a3565b9250817fffffffffffffffffffffffffffffffffffffffffffffffffffffffffffffffff0483118215151615612ca057612c9f6124b7565b5b828202905092915050565b7f64416e67656c56657374696e673a205a45524f5f414444524553530000000000600082015250565b6000612ce1601b83612414565b9150612cec82612cab565b602082019050919050565b60006020820190508181036000830152612d1081612cd4565b9050919050565b7f64416e67656c56657374696e673a205a45524f5f414d4f554e54000000000000600082015250565b6000612d4d601a83612414565b9150612d5882612d17565b602082019050919050565b60006020820190508181036000830152612d7c81612d40565b9050919050565b7f64416e67656c56657374696e673a20414444524553535f414c52454144595f4960008201527f4e495449414c495a454400000000000000000000000000000000000000000000602082015250565b6000612ddf602a83612414565b9150612dea82612d83565b604082019050919050565b60006020820190508181036000830152612e0e81612dd2565b9050919050565b6000612e20826120a3565b915060008203612e3357612e326124b7565b5b600182039050919050565b7f537472696e67733a20686578206c656e67746820696e73756666696369656e74600082015250565b6000612e74602083612414565b9150612e7f82612e3e565b602082019050919050565b60006020820190508181036000830152612ea381612e67565b9050919050565b600081519050612eb981612290565b92915050565b600060208284031215612ed557612ed4611e49565b5b6000612ee384828501612eaa565b91505092915050565b7f5361666545524332303a204552433230206f7065726174696f6e20646964206e60008201527f6f74207375636365656400000000000000000000000000000000000000000000602082015250565b6000612f48602a83612414565b9150612f5382612eec565b604082019050919050565b60006020820190508181036000830152612f7781612f3b565b9050919050565b7f416464726573733a20696e73756666696369656e742062616c616e636520666f60008201527f722063616c6c0000000000000000000000000000000000000000000000000000602082015250565b6000612fda602683612414565b9150612fe582612f7e565b604082019050919050565b6000602082019050818103600083015261300981612fcd565b9050919050565b7f416464726573733a2063616c6c20746f206e6f6e2d636f6e7472616374000000600082015250565b6000613046601d83612414565b915061305182613010565b602082019050919050565b6000602082019050818103600083015261307581613039565b9050919050565b600081519050919050565b600081905092915050565b600061309d8261307c565b6130a78185613087565b93506130b7818560208601612aac565b80840191505092915050565b60006130cf8284613092565b91508190509291505056fea2646970667358221220a2b766cd006a919fc34ed406a0ee375b065c108530873c34321c647288d28e8c64736f6c634300080d0033",
  "immutableReferences": {},
  "source": "// SPDX-License-Identifier: MIT\r\npragma solidity 0.8.13;\r\n\r\nimport \"@openzeppelin/contracts/token/ERC20/IERC20.sol\";\r\nimport \"@openzeppelin/contracts/token/ERC20/utils/SafeERC20.sol\";\r\nimport \"@openzeppelin/contracts/security/ReentrancyGuard.sol\";\r\nimport \"@openzeppelin/contracts/access/AccessControl.sol\";\r\nimport \"@openzeppelin/contracts/access/Ownable.sol\";\r\n/**\r\n * @title dAngelVesting\r\n */\r\ncontract dAngelVesting is Ownable, AccessControl, ReentrancyGuard {\r\n    using SafeERC20 for IERC20;\r\n\r\n    bytes32 public constant OPERATOR_ROLE = keccak256(\"OPERATOR_ROLE\");\r\n\r\n    struct VestingSchedule {\r\n        address beneficiary;\r\n        uint256 totalAmount;\r\n        uint256 releasedAmount;\r\n        bool revoked;\r\n    }\r\n\r\n    uint256 private _start;\r\n    uint256 private _finish;\r\n    uint256 private _duration;\r\n    uint256 private _releasesCount;\r\n    bool private _revocable;\r\n    \r\n    // address of the token\r\n    IERC20 private _token;\r\n\r\n    address[] private _vestingSchedulesAddresses;\r\n    mapping(address => VestingSchedule) private _vestingSchedules;\r\n    uint256 private _vestingSchedulesTotalAmount;\r\n\r\n    event Released(address beneficiary, uint256 amount);\r\n    event Revoked(address beneficiary, uint256 amount);\r\n    /**\r\n     * @dev Creates a vesting contract.\r\n     * @param token address of the ERC20 token contract\r\n     */\r\n    constructor(address token, uint256 start, uint256 duration, uint256 releasesCount, bool revocable) {\r\n        require(token != address(0), \"dAngelVesting: token is the zero address!\");\r\n        require(duration > 0, \"dAngelVesting: duration is 0!\");\r\n        require(releasesCount > 0, \"dAngelVesting: releases count is 0!\");\r\n        require(block.timestamp <= start, \"dAngelVesting: TIMESTAMP_INVALID\");\r\n\r\n        _token = IERC20(token);\r\n        _start = start;\r\n        _duration = duration;\r\n        _releasesCount = releasesCount;\r\n        _finish = _start + _releasesCount * _duration;\r\n        _revocable = revocable;\r\n\r\n        _setupRole(DEFAULT_ADMIN_ROLE, msg.sender);\r\n        _setupRole(OPERATOR_ROLE, msg.sender);\r\n    }\r\n    \r\n  /****************************|\r\n    |          Modifiers         |\r\n    |___________________________*/\r\n\r\n    modifier onlyOperator(){\r\n        require(hasRole(OPERATOR_ROLE, _msgSender()));\r\n        _;\r\n    }\r\n\r\n\r\n    /***********************|\r\n    |        Modifiers      |\r\n    |______________________*/\r\n    /**\r\n    * @dev Reverts if the vesting schedule does not exist or has been revoked.\r\n    */\r\n    modifier onlyIfNotRevoked(address _beneficiary) {\r\n        require(_vestingSchedules[_beneficiary].beneficiary != address(0));\r\n        require(_vestingSchedules[_beneficiary].revoked == false);\r\n        _;\r\n    }\r\n\r\n\r\n    /***********************|\r\n    |          Getters      |\r\n    |______________________*/\r\n    /**\r\n     * @dev Returns the address of the ERC20 token managed by the vesting contract.\r\n     */\r\n    function getToken() external view returns (address) {\r\n        return address(_token);\r\n    }\r\n\r\n    /**\r\n     * @notice Returns the vesting schedule information for a given identifier.\r\n     */\r\n    function getBeneficiarySchedule(address _beneficiary) public view returns (\r\n        bool hasVesting,\r\n        uint256 totalAmount,\r\n        uint256 vestedAmount,\r\n        uint256 releasedAmount,\r\n        bool revoked\r\n    )\r\n    {\r\n        VestingSchedule storage Schedule = _vestingSchedules[_beneficiary];\r\n        return (\r\n            (!Schedule.revoked && Schedule.beneficiary != address(0)),\r\n            Schedule.totalAmount,\r\n            _vestedAmount(_beneficiary),\r\n            Schedule.releasedAmount,\r\n            Schedule.revoked\r\n        );\r\n    }\r\n        /**\r\n     * @notice Returns the vesting schedule information for all beneficiaries.\r\n     */\r\n    function getVestingSchedule()\r\n        external\r\n        view\r\n        returns (\r\n            uint256 startTime,\r\n            uint256 finishTime,\r\n            uint256 interval,\r\n            uint256 releasesCount,\r\n            bool revocable,\r\n            uint256 numberOfBeneficiaries\r\n        )\r\n    {\r\n        return (\r\n            _start, _finish, _duration, _releasesCount,\r\n            _revocable, _vestingSchedulesAddresses.length\r\n        );\r\n    }\r\n\r\n    /**\r\n     * @notice Creates new vesting schedules.\r\n     * @param __vestingSchedules array of vesting schedules to create.\r\n     */\r\n\r\n    function createVestingSchedules(VestingSchedule[] memory __vestingSchedules)\r\n        public\r\n        onlyOperator\r\n    {\r\n        for (uint256 i = 0; i < __vestingSchedules.length; i++) {\r\n            createVestingSchedule(\r\n                __vestingSchedules[i].beneficiary,\r\n                __vestingSchedules[i].totalAmount\r\n            );\r\n        }\r\n    }\r\n    \r\n   \r\n    /**\r\n     * @notice Creates a new vesting schedule for a beneficiary.\r\n     * @param _beneficiary address of the beneficiary to whom vested tokens are transferred\r\n     * @param _totalAmount total amount of tokens to be released at the end of the vesting\r\n     */\r\n     \r\n    function createVestingSchedule(\r\n        address _beneficiary,\r\n        uint256 _totalAmount\r\n    ) private onlyOperator {\r\n        require(_beneficiary != address(0), \"dAngelVesting: ZERO_ADDRESS\");\r\n        require(_totalAmount > 0, \"dAngelVesting: ZERO_AMOUNT\");\r\n\r\n        VestingSchedule storage Schedule = _vestingSchedules[_beneficiary];\r\n        require(Schedule.totalAmount == 0, \"dAngelVesting: ADDRESS_ALREADY_INITIALIZED\");\r\n        _vestingSchedules[_beneficiary] = VestingSchedule(\r\n                _beneficiary,\r\n                _totalAmount,\r\n                0, /*released*/\r\n                false /*revoked*/\r\n            );\r\n        _vestingSchedulesAddresses.push(_beneficiary);\r\n        _vestingSchedulesTotalAmount = _vestingSchedulesTotalAmount + _totalAmount;\r\n    }\r\n\r\n \r\n\r\n    /**\r\n     * @notice Release vested tokens.\r\n     */\r\n    function claim() public nonReentrant onlyIfNotRevoked(msg.sender){\r\n        VestingSchedule storage Schedule = _vestingSchedules[msg.sender];\r\n        require(\r\n            msg.sender == Schedule.beneficiary,\r\n            \"dAngelVesting: NOT_BENEFICIARY\"\r\n        );\r\n        uint256 unreleased = _releasableAmount(msg.sender, Schedule.releasedAmount );\r\n        require(unreleased > 0, \"dAngelVesting: NO_RELEASABLE_AMOUNT\");\r\n        uint256 balance = _token.balanceOf(address(this));\r\n        require(balance >= unreleased, \"dAngelVesting: INSUFFICIENT_BALANCE\");\r\n\r\n        Schedule.releasedAmount = Schedule.releasedAmount + unreleased;\r\n        _vestingSchedulesTotalAmount = _vestingSchedulesTotalAmount - unreleased;\r\n        _token.safeTransfer(payable(msg.sender), unreleased);\r\n\r\n        emit Released(msg.sender, unreleased);\r\n    }\r\n\r\n\r\n    function revokeVesting(address _beneficiary, address receiver) \r\n        external \r\n        onlyOperator\r\n        onlyIfNotRevoked(_beneficiary)\r\n    {\r\n        require(_revocable, \"dAngelVesting: VESTING_IRREVOCABLE\");\r\n        VestingSchedule storage Schedule = _vestingSchedules[_beneficiary];\r\n        uint256 unreleased = _releasableAmount(_beneficiary, Schedule.releasedAmount);\r\n        if (unreleased > 0){\r\n          _vestingSchedulesTotalAmount = _vestingSchedulesTotalAmount - unreleased;\r\n          _token.safeTransfer(payable(receiver), unreleased);\r\n        }\r\n        Schedule.revoked = true;\r\n\r\n        emit Revoked(_beneficiary, unreleased);\r\n    }\r\n    \r\n    function _releasableAmount(address _beneficiary, uint256 released) private view returns (uint256) {\r\n        return _vestedAmount(_beneficiary) - released;\r\n    }\r\n\r\n    function _vestedAmount(address _beneficiary) internal view returns (uint256) {\r\n        uint256 currentTime = block.timestamp;\r\n        VestingSchedule storage Schedule = _vestingSchedules[_beneficiary];\r\n\r\n        if (currentTime  < _start) {\r\n            return 0;\r\n        } else if (currentTime  >= _finish || Schedule.revoked) {\r\n            return Schedule.totalAmount;\r\n        } else {\r\n            uint256 timeLeftAfterStart = currentTime - _start;\r\n            uint256 availableReleases = timeLeftAfterStart / _duration;\r\n            uint256 tokensPerRelease = Schedule.totalAmount / _releasesCount;\r\n            \r\n            return availableReleases * tokensPerRelease;\r\n        }\r\n    }\r\n    \r\n    function emergencyWithdraw(address receiver) external onlyOwner {\r\n        require(receiver != address(0), \"dAngelVesting: ADDRESS_INVALID\");\r\n        uint256 balance = _token.balanceOf(address(this));\r\n        _token.safeTransfer(receiver, balance);\r\n    }\r\n    \r\n}",
  "sourcePath": "C:\\Users\\Cemil\\Documents\\GitHub\\dAngelContracts\\contracts\\dAngelVesting.sol",
  "compiler": {
    "name": "solc",
    "version": "0.8.13+commit.abaa5c0e.Emscripten.clang"
  },
  "schemaVersion": "3.4.6",
  "updatedAt": "2022-04-05T16:38:00.524Z",
  "devdoc": {
    "kind": "dev",
    "methods": {
      "constructor": {
        "details": "Creates a vesting contract.",
        "params": {
          "token": "address of the ERC20 token contract"
        }
      },
      "createVestingSchedules((address,uint256,uint256,bool)[])": {
        "params": {
          "__vestingSchedules": "array of vesting schedules to create."
        }
      },
      "getRoleAdmin(bytes32)": {
        "details": "Returns the admin role that controls `role`. See {grantRole} and {revokeRole}. To change a role's admin, use {_setRoleAdmin}."
      },
      "getToken()": {
        "details": "Returns the address of the ERC20 token managed by the vesting contract."
      },
      "grantRole(bytes32,address)": {
        "details": "Grants `role` to `account`. If `account` had not been already granted `role`, emits a {RoleGranted} event. Requirements: - the caller must have ``role``'s admin role."
      },
      "hasRole(bytes32,address)": {
        "details": "Returns `true` if `account` has been granted `role`."
      },
      "owner()": {
        "details": "Returns the address of the current owner."
      },
      "renounceOwnership()": {
        "details": "Leaves the contract without owner. It will not be possible to call `onlyOwner` functions anymore. Can only be called by the current owner. NOTE: Renouncing ownership will leave the contract without an owner, thereby removing any functionality that is only available to the owner."
      },
      "renounceRole(bytes32,address)": {
        "details": "Revokes `role` from the calling account. Roles are often managed via {grantRole} and {revokeRole}: this function's purpose is to provide a mechanism for accounts to lose their privileges if they are compromised (such as when a trusted device is misplaced). If the calling account had been revoked `role`, emits a {RoleRevoked} event. Requirements: - the caller must be `account`."
      },
      "revokeRole(bytes32,address)": {
        "details": "Revokes `role` from `account`. If `account` had been granted `role`, emits a {RoleRevoked} event. Requirements: - the caller must have ``role``'s admin role."
      },
      "supportsInterface(bytes4)": {
        "details": "See {IERC165-supportsInterface}."
      },
      "transferOwnership(address)": {
        "details": "Transfers ownership of the contract to a new account (`newOwner`). Can only be called by the current owner."
      }
    },
    "title": "dAngelVesting",
    "version": 1
  },
  "userdoc": {
    "kind": "user",
    "methods": {
      "claim()": {
        "notice": "Release vested tokens."
      },
      "createVestingSchedules((address,uint256,uint256,bool)[])": {
        "notice": "Creates new vesting schedules."
      },
      "getBeneficiarySchedule(address)": {
        "notice": "Returns the vesting schedule information for a given identifier."
      },
      "getVestingSchedule()": {
        "notice": "Returns the vesting schedule information for all beneficiaries."
      }
    },
    "version": 1
  }
}