{
  "contractName": "IDOSale",
  "abi": [
    {
      "inputs": [
        {
          "internalType": "contract IERC20",
          "name": "_purchaseToken",
          "type": "address"
        },
        {
          "internalType": "uint256",
          "name": "_idoPrice",
          "type": "uint256"
        },
        {
          "internalType": "uint256",
          "name": "_startTime",
          "type": "uint256"
        },
        {
          "internalType": "uint256",
          "name": "_endTime",
          "type": "uint256"
        }
      ],
      "stateMutability": "nonpayable",
      "type": "constructor"
    },
    {
      "anonymous": false,
      "inputs": [
        {
          "indexed": false,
          "internalType": "uint256",
          "name": "endTime",
          "type": "uint256"
        }
      ],
      "name": "IdoEndTimeChanged",
      "type": "event"
    },
    {
      "anonymous": false,
      "inputs": [
        {
          "indexed": false,
          "internalType": "uint256",
          "name": "idoPrice",
          "type": "uint256"
        }
      ],
      "name": "IdoPriceChanged",
      "type": "event"
    },
    {
      "anonymous": false,
      "inputs": [
        {
          "indexed": false,
          "internalType": "uint256",
          "name": "startTime",
          "type": "uint256"
        }
      ],
      "name": "IdoStartTimeChanged",
      "type": "event"
    },
    {
      "anonymous": false,
      "inputs": [
        {
          "indexed": true,
          "internalType": "address",
          "name": "previousOwner",
          "type": "address"
        },
        {
          "indexed": true,
          "internalType": "address",
          "name": "newOwner",
          "type": "address"
        }
      ],
      "name": "OwnershipTransferred",
      "type": "event"
    },
    {
      "anonymous": false,
      "inputs": [
        {
          "indexed": false,
          "internalType": "address",
          "name": "account",
          "type": "address"
        }
      ],
      "name": "Paused",
      "type": "event"
    },
    {
      "anonymous": false,
      "inputs": [
        {
          "indexed": true,
          "internalType": "address",
          "name": "sender",
          "type": "address"
        },
        {
          "indexed": false,
          "internalType": "uint256",
          "name": "amount",
          "type": "uint256"
        }
      ],
      "name": "Purchased",
      "type": "event"
    },
    {
      "anonymous": false,
      "inputs": [
        {
          "indexed": true,
          "internalType": "bytes32",
          "name": "role",
          "type": "bytes32"
        },
        {
          "indexed": true,
          "internalType": "bytes32",
          "name": "previousAdminRole",
          "type": "bytes32"
        },
        {
          "indexed": true,
          "internalType": "bytes32",
          "name": "newAdminRole",
          "type": "bytes32"
        }
      ],
      "name": "RoleAdminChanged",
      "type": "event"
    },
    {
      "anonymous": false,
      "inputs": [
        {
          "indexed": true,
          "internalType": "bytes32",
          "name": "role",
          "type": "bytes32"
        },
        {
          "indexed": true,
          "internalType": "address",
          "name": "account",
          "type": "address"
        },
        {
          "indexed": true,
          "internalType": "address",
          "name": "sender",
          "type": "address"
        }
      ],
      "name": "RoleGranted",
      "type": "event"
    },
    {
      "anonymous": false,
      "inputs": [
        {
          "indexed": true,
          "internalType": "bytes32",
          "name": "role",
          "type": "bytes32"
        },
        {
          "indexed": true,
          "internalType": "address",
          "name": "account",
          "type": "address"
        },
        {
          "indexed": true,
          "internalType": "address",
          "name": "sender",
          "type": "address"
        }
      ],
      "name": "RoleRevoked",
      "type": "event"
    },
    {
      "anonymous": false,
      "inputs": [
        {
          "indexed": true,
          "internalType": "address",
          "name": "sender",
          "type": "address"
        },
        {
          "indexed": false,
          "internalType": "uint256",
          "name": "amount",
          "type": "uint256"
        }
      ],
      "name": "Swept",
      "type": "event"
    },
    {
      "anonymous": false,
      "inputs": [
        {
          "indexed": false,
          "internalType": "address",
          "name": "account",
          "type": "address"
        }
      ],
      "name": "Unpaused",
      "type": "event"
    },
    {
      "anonymous": false,
      "inputs": [
        {
          "indexed": true,
          "internalType": "address",
          "name": "account",
          "type": "address"
        }
      ],
      "name": "WhitelistAdded",
      "type": "event"
    },
    {
      "anonymous": false,
      "inputs": [
        {
          "indexed": true,
          "internalType": "address",
          "name": "account",
          "type": "address"
        }
      ],
      "name": "WhitelistRemoved",
      "type": "event"
    },
    {
      "inputs": [],
      "name": "DEFAULT_ADMIN_ROLE",
      "outputs": [
        {
          "internalType": "bytes32",
          "name": "",
          "type": "bytes32"
        }
      ],
      "stateMutability": "view",
      "type": "function"
    },
    {
      "inputs": [],
      "name": "OPERATOR_ROLE",
      "outputs": [
        {
          "internalType": "bytes32",
          "name": "",
          "type": "bytes32"
        }
      ],
      "stateMutability": "view",
      "type": "function"
    },
    {
      "inputs": [],
      "name": "endTime",
      "outputs": [
        {
          "internalType": "uint256",
          "name": "",
          "type": "uint256"
        }
      ],
      "stateMutability": "view",
      "type": "function"
    },
    {
      "inputs": [
        {
          "internalType": "bytes32",
          "name": "role",
          "type": "bytes32"
        }
      ],
      "name": "getRoleAdmin",
      "outputs": [
        {
          "internalType": "bytes32",
          "name": "",
          "type": "bytes32"
        }
      ],
      "stateMutability": "view",
      "type": "function"
    },
    {
      "inputs": [
        {
          "internalType": "bytes32",
          "name": "role",
          "type": "bytes32"
        },
        {
          "internalType": "address",
          "name": "account",
          "type": "address"
        }
      ],
      "name": "grantRole",
      "outputs": [],
      "stateMutability": "nonpayable",
      "type": "function"
    },
    {
      "inputs": [
        {
          "internalType": "bytes32",
          "name": "role",
          "type": "bytes32"
        },
        {
          "internalType": "address",
          "name": "account",
          "type": "address"
        }
      ],
      "name": "hasRole",
      "outputs": [
        {
          "internalType": "bool",
          "name": "",
          "type": "bool"
        }
      ],
      "stateMutability": "view",
      "type": "function"
    },
    {
      "inputs": [],
      "name": "idoPrice",
      "outputs": [
        {
          "internalType": "uint256",
          "name": "",
          "type": "uint256"
        }
      ],
      "stateMutability": "view",
      "type": "function"
    },
    {
      "inputs": [],
      "name": "owner",
      "outputs": [
        {
          "internalType": "address",
          "name": "",
          "type": "address"
        }
      ],
      "stateMutability": "view",
      "type": "function"
    },
    {
      "inputs": [],
      "name": "paused",
      "outputs": [
        {
          "internalType": "bool",
          "name": "",
          "type": "bool"
        }
      ],
      "stateMutability": "view",
      "type": "function"
    },
    {
      "inputs": [],
      "name": "purchaseToken",
      "outputs": [
        {
          "internalType": "contract IERC20",
          "name": "",
          "type": "address"
        }
      ],
      "stateMutability": "view",
      "type": "function"
    },
    {
      "inputs": [],
      "name": "renounceOwnership",
      "outputs": [],
      "stateMutability": "nonpayable",
      "type": "function"
    },
    {
      "inputs": [
        {
          "internalType": "bytes32",
          "name": "role",
          "type": "bytes32"
        },
        {
          "internalType": "address",
          "name": "account",
          "type": "address"
        }
      ],
      "name": "renounceRole",
      "outputs": [],
      "stateMutability": "nonpayable",
      "type": "function"
    },
    {
      "inputs": [
        {
          "internalType": "bytes32",
          "name": "role",
          "type": "bytes32"
        },
        {
          "internalType": "address",
          "name": "account",
          "type": "address"
        }
      ],
      "name": "revokeRole",
      "outputs": [],
      "stateMutability": "nonpayable",
      "type": "function"
    },
    {
      "inputs": [],
      "name": "startTime",
      "outputs": [
        {
          "internalType": "uint256",
          "name": "",
          "type": "uint256"
        }
      ],
      "stateMutability": "view",
      "type": "function"
    },
    {
      "inputs": [
        {
          "internalType": "bytes4",
          "name": "interfaceId",
          "type": "bytes4"
        }
      ],
      "name": "supportsInterface",
      "outputs": [
        {
          "internalType": "bool",
          "name": "",
          "type": "bool"
        }
      ],
      "stateMutability": "view",
      "type": "function"
    },
    {
      "inputs": [],
      "name": "totalPurchasedAmount",
      "outputs": [
        {
          "internalType": "uint256",
          "name": "",
          "type": "uint256"
        }
      ],
      "stateMutability": "view",
      "type": "function"
    },
    {
      "inputs": [
        {
          "internalType": "address",
          "name": "newOwner",
          "type": "address"
        }
      ],
      "name": "transferOwnership",
      "outputs": [],
      "stateMutability": "nonpayable",
      "type": "function"
    },
    {
      "inputs": [
        {
          "internalType": "address",
          "name": "account",
          "type": "address"
        }
      ],
      "name": "getWhitelistedAmount",
      "outputs": [
        {
          "internalType": "uint256",
          "name": "",
          "type": "uint256"
        }
      ],
      "stateMutability": "view",
      "type": "function"
    },
    {
      "inputs": [
        {
          "internalType": "address",
          "name": "account",
          "type": "address"
        }
      ],
      "name": "getPurchasedAmount",
      "outputs": [
        {
          "internalType": "uint256",
          "name": "",
          "type": "uint256"
        }
      ],
      "stateMutability": "view",
      "type": "function"
    },
    {
      "inputs": [
        {
          "internalType": "uint256",
          "name": "_idoPrice",
          "type": "uint256"
        }
      ],
      "name": "setIdoPrice",
      "outputs": [],
      "stateMutability": "nonpayable",
      "type": "function"
    },
    {
      "inputs": [
        {
          "internalType": "uint256",
          "name": "_startTime",
          "type": "uint256"
        }
      ],
      "name": "setStartTime",
      "outputs": [],
      "stateMutability": "nonpayable",
      "type": "function"
    },
    {
      "inputs": [
        {
          "internalType": "uint256",
          "name": "_endTime",
          "type": "uint256"
        }
      ],
      "name": "setEndTime",
      "outputs": [],
      "stateMutability": "nonpayable",
      "type": "function"
    },
    {
      "inputs": [],
      "name": "whitelistedUsers",
      "outputs": [
        {
          "components": [
            {
              "internalType": "address",
              "name": "account",
              "type": "address"
            },
            {
              "internalType": "uint256",
              "name": "amount",
              "type": "uint256"
            }
          ],
          "internalType": "struct IDOSale.Purchase[]",
          "name": "",
          "type": "tuple[]"
        }
      ],
      "stateMutability": "view",
      "type": "function"
    },
    {
      "inputs": [
        {
          "components": [
            {
              "internalType": "address",
              "name": "account",
              "type": "address"
            },
            {
              "internalType": "uint256",
              "name": "amount",
              "type": "uint256"
            }
          ],
          "internalType": "struct IDOSale.Purchase[]",
          "name": "_accounts",
          "type": "tuple[]"
        }
      ],
      "name": "addWhitelist",
      "outputs": [],
      "stateMutability": "nonpayable",
      "type": "function"
    },
    {
      "inputs": [
        {
          "components": [
            {
              "internalType": "address",
              "name": "account",
              "type": "address"
            },
            {
              "internalType": "uint256",
              "name": "amount",
              "type": "uint256"
            }
          ],
          "internalType": "struct IDOSale.Purchase[]",
          "name": "_accounts",
          "type": "tuple[]"
        }
      ],
      "name": "removeWhitelist",
      "outputs": [],
      "stateMutability": "nonpayable",
      "type": "function"
    },
    {
      "inputs": [],
      "name": "purchaseHistory",
      "outputs": [
        {
          "components": [
            {
              "internalType": "address",
              "name": "account",
              "type": "address"
            },
            {
              "internalType": "uint256",
              "name": "amount",
              "type": "uint256"
            }
          ],
          "internalType": "struct IDOSale.Purchase[]",
          "name": "",
          "type": "tuple[]"
        }
      ],
      "stateMutability": "view",
      "type": "function"
    },
    {
      "inputs": [
        {
          "internalType": "uint256",
          "name": "amount",
          "type": "uint256"
        }
      ],
      "name": "purchase",
      "outputs": [],
      "stateMutability": "nonpayable",
      "type": "function"
    },
    {
      "inputs": [
        {
          "internalType": "address",
          "name": "to",
          "type": "address"
        }
      ],
      "name": "sweep",
      "outputs": [],
      "stateMutability": "nonpayable",
      "type": "function"
    }
  ],
  "bytecode": "0x60806040523480156200001157600080fd5b506040516200405e3803806200405e83398181016040528101906200003791906200053f565b620000576200004b6200024860201b60201c565b6200025060201b60201c565b60008060146101000a81548160ff0219169083151502179055506001600281905550600073ffffffffffffffffffffffffffffffffffffffff168473ffffffffffffffffffffffffffffffffffffffff1603620000eb576040517f08c379a0000000000000000000000000000000000000000000000000000000008152600401620000e29062000612565b60405180910390fd5b6000831162000131576040517f08c379a0000000000000000000000000000000000000000000000000000000008152600401620001289062000684565b60405180910390fd5b8142111580156200014157508082105b62000183576040517f08c379a00000000000000000000000000000000000000000000000000000000081526004016200017a90620006f6565b60405180910390fd5b620001a76000801b6200019b6200024860201b60201c565b6200031460201b60201c565b620001e87f97667070c54ef182b0f5858b034beac1b6f3089aa2d3188bb1e8929f4fa9b929620001dc6200024860201b60201c565b6200031460201b60201c565b83600760006101000a81548173ffffffffffffffffffffffffffffffffffffffff021916908373ffffffffffffffffffffffffffffffffffffffff160217905550826006819055508160098190555080600a819055505050505062000718565b600033905090565b60008060009054906101000a900473ffffffffffffffffffffffffffffffffffffffff169050816000806101000a81548173ffffffffffffffffffffffffffffffffffffffff021916908373ffffffffffffffffffffffffffffffffffffffff1602179055508173ffffffffffffffffffffffffffffffffffffffff168173ffffffffffffffffffffffffffffffffffffffff167f8be0079c531659141344cd1fd0a4f28419497f9722a3daafe3b4186f6b6457e060405160405180910390a35050565b6200032682826200032a60201b60201c565b5050565b6200033c82826200041b60201b60201c565b6200041757600180600084815260200190815260200160002060000160008373ffffffffffffffffffffffffffffffffffffffff1673ffffffffffffffffffffffffffffffffffffffff16815260200190815260200160002060006101000a81548160ff021916908315150217905550620003bc6200024860201b60201c565b73ffffffffffffffffffffffffffffffffffffffff168173ffffffffffffffffffffffffffffffffffffffff16837f2f8788117e7eff1d82e926ec794901d17c78024a50270940304540a733656f0d60405160405180910390a45b5050565b60006001600084815260200190815260200160002060000160008373ffffffffffffffffffffffffffffffffffffffff1673ffffffffffffffffffffffffffffffffffffffff16815260200190815260200160002060009054906101000a900460ff16905092915050565b600080fd5b600073ffffffffffffffffffffffffffffffffffffffff82169050919050565b6000620004b8826200048b565b9050919050565b6000620004cc82620004ab565b9050919050565b620004de81620004bf565b8114620004ea57600080fd5b50565b600081519050620004fe81620004d3565b92915050565b6000819050919050565b620005198162000504565b81146200052557600080fd5b50565b60008151905062000539816200050e565b92915050565b600080600080608085870312156200055c576200055b62000486565b5b60006200056c87828801620004ed565b94505060206200057f8782880162000528565b9350506040620005928782880162000528565b9250506060620005a58782880162000528565b91505092959194509250565b600082825260208201905092915050565b7f50555243484153455f544f4b454e5f414444524553535f494e56414c49440000600082015250565b6000620005fa601e83620005b1565b91506200060782620005c2565b602082019050919050565b600060208201905081810360008301526200062d81620005eb565b9050919050565b7f544f4b454e5f50524943455f494e56414c494400000000000000000000000000600082015250565b60006200066c601383620005b1565b9150620006798262000634565b602082019050919050565b600060208201905081810360008301526200069f816200065d565b9050919050565b7f54494d455354414d505f494e56414c4944000000000000000000000000000000600082015250565b6000620006de601183620005b1565b9150620006eb82620006a6565b602082019050919050565b600060208201905081810360008301526200071181620006cf565b9050919050565b61393680620007286000396000f3fe608060405234801561001057600080fd5b50600436106101c45760003560e01c80638da5cb5b116100f9578063cd80fe0d11610097578063efef39a111610071578063efef39a1146104cf578063f2fde38b146104eb578063f5b541a614610507578063ffa43b9d14610525576101c4565b8063cd80fe0d14610477578063d547741f14610495578063e2ff3d7a146104b1576101c4565b8063a48e84b5116100d3578063a48e84b514610403578063a95c4d621461041f578063bedac1001461043d578063ccb98ffc1461045b576101c4565b80638da5cb5b1461039757806391d14854146103b5578063a217fddf146103e5576101c4565b806336568abe116101665780634fb26dfb116101405780634fb26dfb146103355780635c975abb14610351578063715018a61461036f57806378e9792514610379576101c4565b806336568abe146102cd5780633c7d8602146102e95780633e0a322d14610319576101c4565b806324285762116101a25780632428576214610233578063248a9ca3146102635780632f2ff15d146102935780633197cbb6146102af576101c4565b806301681a62146101c957806301ffc9a7146101e55780631ec6a7de14610215575b600080fd5b6101e360048036038101906101de9190612651565b610541565b005b6101ff60048036038101906101fa91906126d6565b6107b0565b60405161020c919061271e565b60405180910390f35b61021d61082a565b60405161022a919061283f565b60405180910390f35b61024d60048036038101906102489190612651565b610a6c565b60405161025a9190612870565b60405180910390f35b61027d600480360381019061027891906128c1565b610aef565b60405161028a91906128fd565b60405180910390f35b6102ad60048036038101906102a89190612918565b610b0f565b005b6102b7610b38565b6040516102c49190612870565b60405180910390f35b6102e760048036038101906102e29190612918565b610b3e565b005b61030360048036038101906102fe9190612651565b610bc1565b6040516103109190612870565b60405180910390f35b610333600480360381019061032e9190612984565b610c44565b005b61034f600480360381019061034a9190612984565b610d01565b005b610359610dbe565b604051610366919061271e565b60405180910390f35b610377610dd4565b005b610381610e5c565b60405161038e9190612870565b60405180910390f35b61039f610e62565b6040516103ac91906129c0565b60405180910390f35b6103cf60048036038101906103ca9190612918565b610e8b565b6040516103dc919061271e565b60405180910390f35b6103ed610ef6565b6040516103fa91906128fd565b60405180910390f35b61041d60048036038101906104189190612b89565b610efd565b005b6104276111f7565b6040516104349190612c31565b60405180910390f35b61044561121d565b6040516104529190612870565b60405180910390f35b61047560048036038101906104709190612984565b611223565b005b61047f6112e0565b60405161048c9190612870565b60405180910390f35b6104af60048036038101906104aa9190612918565b6112e6565b005b6104b961130f565b6040516104c6919061283f565b60405180910390f35b6104e960048036038101906104e49190612984565b6114ca565b005b61050560048036038101906105009190612651565b6118ea565b005b61050f6119e1565b60405161051c91906128fd565b60405180910390f35b61053f600480360381019061053a9190612b89565b611a05565b005b610549611c62565b73ffffffffffffffffffffffffffffffffffffffff16610567610e62565b73ffffffffffffffffffffffffffffffffffffffff16146105bd576040517f08c379a00000000000000000000000000000000000000000000000000000000081526004016105b490612ca9565b60405180910390fd5b600073ffffffffffffffffffffffffffffffffffffffff168173ffffffffffffffffffffffffffffffffffffffff160361062c576040517f08c379a000000000000000000000000000000000000000000000000000000000815260040161062390612d15565b60405180910390fd5b42600a541115610671576040517f08c379a000000000000000000000000000000000000000000000000000000000815260040161066890612d81565b60405180910390fd5b6000600760009054906101000a900473ffffffffffffffffffffffffffffffffffffffff1673ffffffffffffffffffffffffffffffffffffffff166370a08231306040518263ffffffff1660e01b81526004016106ce91906129c0565b602060405180830381865afa1580156106eb573d6000803e3d6000fd5b505050506040513d601f19601f8201168201806040525081019061070f9190612db6565b905061075e8282600760009054906101000a900473ffffffffffffffffffffffffffffffffffffffff1673ffffffffffffffffffffffffffffffffffffffff16611c6a9092919063ffffffff16565b8173ffffffffffffffffffffffffffffffffffffffff167fc36b5179cb9c303b200074996eab2b3473eac370fdd7eba3bec636fe35109696826040516107a49190612870565b60405180910390a25050565b60007f7965db0b000000000000000000000000000000000000000000000000000000007bffffffffffffffffffffffffffffffffffffffffffffffffffffffff1916827bffffffffffffffffffffffffffffffffffffffffffffffffffffffff19161480610823575061082282611cf0565b5b9050919050565b6060600060058054905067ffffffffffffffff81111561084d5761084c6129f1565b5b60405190808252806020026020018201604052801561088657816020015b6108736125af565b81526020019060019003908161086b5790505b50905060005b600580549050811015610a6457600060036000600584815481106108b3576108b2612de3565b5b9060005260206000200160009054906101000a900473ffffffffffffffffffffffffffffffffffffffff1673ffffffffffffffffffffffffffffffffffffffff1673ffffffffffffffffffffffffffffffffffffffff168152602001908152602001600020540315610a51576005818154811061093357610932612de3565b5b9060005260206000200160009054906101000a900473ffffffffffffffffffffffffffffffffffffffff1682828151811061097157610970612de3565b5b60200260200101516000019073ffffffffffffffffffffffffffffffffffffffff16908173ffffffffffffffffffffffffffffffffffffffff168152505060036000600583815481106109c7576109c6612de3565b5b9060005260206000200160009054906101000a900473ffffffffffffffffffffffffffffffffffffffff1673ffffffffffffffffffffffffffffffffffffffff1673ffffffffffffffffffffffffffffffffffffffff16815260200190815260200160002054828281518110610a4057610a3f612de3565b5b602002602001015160200181815250505b8080610a5c90612e41565b91505061088c565b508091505090565b6000610a9f7f97667070c54ef182b0f5858b034beac1b6f3089aa2d3188bb1e8929f4fa9b929610a9a611c62565b610e8b565b610aa857600080fd5b600460008373ffffffffffffffffffffffffffffffffffffffff1673ffffffffffffffffffffffffffffffffffffffff168152602001908152602001600020549050919050565b600060016000838152602001908152602001600020600101549050919050565b610b1882610aef565b610b2981610b24611c62565b611d5a565b610b338383611df7565b505050565b600a5481565b610b46611c62565b73ffffffffffffffffffffffffffffffffffffffff168173ffffffffffffffffffffffffffffffffffffffff1614610bb3576040517f08c379a0000000000000000000000000000000000000000000000000000000008152600401610baa90612efb565b60405180910390fd5b610bbd8282611ed7565b5050565b6000610bf47f97667070c54ef182b0f5858b034beac1b6f3089aa2d3188bb1e8929f4fa9b929610bef611c62565b610e8b565b610bfd57600080fd5b600360008373ffffffffffffffffffffffffffffffffffffffff1673ffffffffffffffffffffffffffffffffffffffff168152602001908152602001600020549050919050565b610c4c611c62565b73ffffffffffffffffffffffffffffffffffffffff16610c6a610e62565b73ffffffffffffffffffffffffffffffffffffffff1614610cc0576040517f08c379a0000000000000000000000000000000000000000000000000000000008152600401610cb790612ca9565b60405180910390fd5b806009819055507f94a71e8a07d569d47704bbb6d4b82aa1e0a40711e55d04c2d9386be14272450181604051610cf69190612870565b60405180910390a150565b610d09611c62565b73ffffffffffffffffffffffffffffffffffffffff16610d27610e62565b73ffffffffffffffffffffffffffffffffffffffff1614610d7d576040517f08c379a0000000000000000000000000000000000000000000000000000000008152600401610d7490612ca9565b60405180910390fd5b806006819055507f4e351384428a8683e347779fe9bf3b86dae4eb82d841954461519fca968c467f81604051610db39190612870565b60405180910390a150565b60008060149054906101000a900460ff16905090565b610ddc611c62565b73ffffffffffffffffffffffffffffffffffffffff16610dfa610e62565b73ffffffffffffffffffffffffffffffffffffffff1614610e50576040517f08c379a0000000000000000000000000000000000000000000000000000000008152600401610e4790612ca9565b60405180910390fd5b610e5a6000611fb9565b565b60095481565b60008060009054906101000a900473ffffffffffffffffffffffffffffffffffffffff16905090565b60006001600084815260200190815260200160002060000160008373ffffffffffffffffffffffffffffffffffffffff1673ffffffffffffffffffffffffffffffffffffffff16815260200190815260200160002060009054906101000a900460ff16905092915050565b6000801b81565b610f2e7f97667070c54ef182b0f5858b034beac1b6f3089aa2d3188bb1e8929f4fa9b929610f29611c62565b610e8b565b610f3757600080fd5b610f3f610dbe565b15610f7f576040517f08c379a0000000000000000000000000000000000000000000000000000000008152600401610f7690612f67565b60405180910390fd5b60005b81518110156111f357600073ffffffffffffffffffffffffffffffffffffffff16828281518110610fb657610fb5612de3565b5b60200260200101516000015173ffffffffffffffffffffffffffffffffffffffff1603611018576040517f08c379a000000000000000000000000000000000000000000000000000000000815260040161100f90612fd3565b60405180910390fd5b60006003600084848151811061103157611030612de3565b5b60200260200101516000015173ffffffffffffffffffffffffffffffffffffffff1673ffffffffffffffffffffffffffffffffffffffff16815260200190815260200160002054036111e0578181815181106110905761108f612de3565b5b602002602001015160200151600360008484815181106110b3576110b2612de3565b5b60200260200101516000015173ffffffffffffffffffffffffffffffffffffffff1673ffffffffffffffffffffffffffffffffffffffff16815260200190815260200160002081905550600582828151811061111257611111612de3565b5b6020026020010151600001519080600181540180825580915050600190039060005260206000200160009091909190916101000a81548173ffffffffffffffffffffffffffffffffffffffff021916908373ffffffffffffffffffffffffffffffffffffffff16021790555081818151811061119157611190612de3565b5b60200260200101516000015173ffffffffffffffffffffffffffffffffffffffff167f4790a4adb426ca2345bb5108f6e454eae852a7bf687544cd66a7270dff3a41d660405160405180910390a25b80806111eb90612e41565b915050610f82565b5050565b600760009054906101000a900473ffffffffffffffffffffffffffffffffffffffff1681565b60085481565b61122b611c62565b73ffffffffffffffffffffffffffffffffffffffff16611249610e62565b73ffffffffffffffffffffffffffffffffffffffff161461129f576040517f08c379a000000000000000000000000000000000000000000000000000000000815260040161129690612ca9565b60405180910390fd5b80600a819055507fca534e81f27cbd400666167dfed71d975646f6bf98ae29f9abd241f384eb1849816040516112d59190612870565b60405180910390a150565b60065481565b6112ef82610aef565b611300816112fb611c62565b611d5a565b61130a8383611ed7565b505050565b6060600060058054905067ffffffffffffffff811115611332576113316129f1565b5b60405190808252806020026020018201604052801561136b57816020015b6113586125af565b8152602001906001900390816113505790505b50905060005b6005805490508110156114c2576005818154811061139257611391612de3565b5b9060005260206000200160009054906101000a900473ffffffffffffffffffffffffffffffffffffffff168282815181106113d0576113cf612de3565b5b60200260200101516000019073ffffffffffffffffffffffffffffffffffffffff16908173ffffffffffffffffffffffffffffffffffffffff1681525050600460006005838154811061142657611425612de3565b5b9060005260206000200160009054906101000a900473ffffffffffffffffffffffffffffffffffffffff1673ffffffffffffffffffffffffffffffffffffffff1673ffffffffffffffffffffffffffffffffffffffff1681526020019081526020016000205482828151811061149f5761149e612de3565b5b6020026020010151602001818152505080806114ba90612e41565b915050611371565b508091505090565b600280540361150e576040517f08c379a00000000000000000000000000000000000000000000000000000000081526004016115059061303f565b60405180910390fd5b6002808190555061151d610dbe565b1561155d576040517f08c379a000000000000000000000000000000000000000000000000000000000815260040161155490612f67565b60405180910390fd5b4260095411156115a2576040517f08c379a0000000000000000000000000000000000000000000000000000000008152600401611599906130ab565b60405180910390fd5b600a5442106115e6576040517f08c379a00000000000000000000000000000000000000000000000000000000081526004016115dd90613117565b60405180910390fd5b60008111611629576040517f08c379a000000000000000000000000000000000000000000000000000000000815260040161162090613183565b60405180910390fd5b600060036000611637611c62565b73ffffffffffffffffffffffffffffffffffffffff1673ffffffffffffffffffffffffffffffffffffffff1681526020019081526020016000205410156116b3576040517f08c379a00000000000000000000000000000000000000000000000000000000081526004016116aa906131ef565b60405180910390fd5b6000670de0b6b3a7640000600654836116cc919061320f565b6116d69190613298565b9050600760009054906101000a900473ffffffffffffffffffffffffffffffffffffffff1673ffffffffffffffffffffffffffffffffffffffff166370a0823161171e611c62565b6040518263ffffffff1660e01b815260040161173a91906129c0565b602060405180830381865afa158015611757573d6000803e3d6000fd5b505050506040513d601f19601f8201168201806040525081019061177b9190612db6565b8111156117bd576040517f08c379a00000000000000000000000000000000000000000000000000000000081526004016117b490613315565b60405180910390fd5b81600460006117ca611c62565b73ffffffffffffffffffffffffffffffffffffffff1673ffffffffffffffffffffffffffffffffffffffff16815260200190815260200160002060008282546118139190613335565b92505081905550816008600082825461182c9190613335565b9250508190555061188961183e611c62565b3083600760009054906101000a900473ffffffffffffffffffffffffffffffffffffffff1673ffffffffffffffffffffffffffffffffffffffff1661207d909392919063ffffffff16565b611891611c62565b73ffffffffffffffffffffffffffffffffffffffff167fa512fb2532ca8587f236380171326ebb69670e86a2ba0c4412a3fcca4c3ada9b836040516118d69190612870565b60405180910390a250600160028190555050565b6118f2611c62565b73ffffffffffffffffffffffffffffffffffffffff16611910610e62565b73ffffffffffffffffffffffffffffffffffffffff1614611966576040517f08c379a000000000000000000000000000000000000000000000000000000000815260040161195d90612ca9565b60405180910390fd5b600073ffffffffffffffffffffffffffffffffffffffff168173ffffffffffffffffffffffffffffffffffffffff16036119d5576040517f08c379a00000000000000000000000000000000000000000000000000000000081526004016119cc906133fd565b60405180910390fd5b6119de81611fb9565b50565b7f97667070c54ef182b0f5858b034beac1b6f3089aa2d3188bb1e8929f4fa9b92981565b611a367f97667070c54ef182b0f5858b034beac1b6f3089aa2d3188bb1e8929f4fa9b929611a31611c62565b610e8b565b611a3f57600080fd5b611a47610dbe565b15611a87576040517f08c379a0000000000000000000000000000000000000000000000000000000008152600401611a7e90612f67565b60405180910390fd5b60005b8151811015611c5e57600073ffffffffffffffffffffffffffffffffffffffff16828281518110611abe57611abd612de3565b5b60200260200101516000015173ffffffffffffffffffffffffffffffffffffffff1603611b20576040517f08c379a0000000000000000000000000000000000000000000000000000000008152600401611b1790612fd3565b60405180910390fd5b600060036000848481518110611b3957611b38612de3565b5b60200260200101516000015173ffffffffffffffffffffffffffffffffffffffff1673ffffffffffffffffffffffffffffffffffffffff168152602001908152602001600020541115611c4b57600060036000848481518110611b9f57611b9e612de3565b5b60200260200101516000015173ffffffffffffffffffffffffffffffffffffffff1673ffffffffffffffffffffffffffffffffffffffff16815260200190815260200160002081905550818181518110611bfc57611bfb612de3565b5b60200260200101516000015173ffffffffffffffffffffffffffffffffffffffff167fde8cf212af7ce38b2840785a2768d97ff2dbf3c21b516961cec0061e134c2a1e60405160405180910390a25b8080611c5690612e41565b915050611a8a565b5050565b600033905090565b611ceb8363a9059cbb60e01b8484604051602401611c8992919061341d565b604051602081830303815290604052907bffffffffffffffffffffffffffffffffffffffffffffffffffffffff19166020820180517bffffffffffffffffffffffffffffffffffffffffffffffffffffffff8381831617835250505050612106565b505050565b60007f01ffc9a7000000000000000000000000000000000000000000000000000000007bffffffffffffffffffffffffffffffffffffffffffffffffffffffff1916827bffffffffffffffffffffffffffffffffffffffffffffffffffffffff1916149050919050565b611d648282610e8b565b611df357611d898173ffffffffffffffffffffffffffffffffffffffff1660146121cd565b611d978360001c60206121cd565b604051602001611da8929190613558565b6040516020818303038152906040526040517f08c379a0000000000000000000000000000000000000000000000000000000008152600401611dea91906135cb565b60405180910390fd5b5050565b611e018282610e8b565b611ed357600180600084815260200190815260200160002060000160008373ffffffffffffffffffffffffffffffffffffffff1673ffffffffffffffffffffffffffffffffffffffff16815260200190815260200160002060006101000a81548160ff021916908315150217905550611e78611c62565b73ffffffffffffffffffffffffffffffffffffffff168173ffffffffffffffffffffffffffffffffffffffff16837f2f8788117e7eff1d82e926ec794901d17c78024a50270940304540a733656f0d60405160405180910390a45b5050565b611ee18282610e8b565b15611fb55760006001600084815260200190815260200160002060000160008373ffffffffffffffffffffffffffffffffffffffff1673ffffffffffffffffffffffffffffffffffffffff16815260200190815260200160002060006101000a81548160ff021916908315150217905550611f5a611c62565b73ffffffffffffffffffffffffffffffffffffffff168173ffffffffffffffffffffffffffffffffffffffff16837ff6391f5c32d9c69d2a47ea670b442974b53935d1edc7fd64eb21e047a839171b60405160405180910390a45b5050565b60008060009054906101000a900473ffffffffffffffffffffffffffffffffffffffff169050816000806101000a81548173ffffffffffffffffffffffffffffffffffffffff021916908373ffffffffffffffffffffffffffffffffffffffff1602179055508173ffffffffffffffffffffffffffffffffffffffff168173ffffffffffffffffffffffffffffffffffffffff167f8be0079c531659141344cd1fd0a4f28419497f9722a3daafe3b4186f6b6457e060405160405180910390a35050565b612100846323b872dd60e01b85858560405160240161209e939291906135ed565b604051602081830303815290604052907bffffffffffffffffffffffffffffffffffffffffffffffffffffffff19166020820180517bffffffffffffffffffffffffffffffffffffffffffffffffffffffff8381831617835250505050612106565b50505050565b6000612168826040518060400160405280602081526020017f5361666545524332303a206c6f772d6c6576656c2063616c6c206661696c65648152508573ffffffffffffffffffffffffffffffffffffffff166124099092919063ffffffff16565b90506000815111156121c857808060200190518101906121889190613650565b6121c7576040517f08c379a00000000000000000000000000000000000000000000000000000000081526004016121be906136ef565b60405180910390fd5b5b505050565b6060600060028360026121e0919061320f565b6121ea9190613335565b67ffffffffffffffff811115612203576122026129f1565b5b6040519080825280601f01601f1916602001820160405280156122355781602001600182028036833780820191505090505b5090507f30000000000000000000000000000000000000000000000000000000000000008160008151811061226d5761226c612de3565b5b60200101907effffffffffffffffffffffffffffffffffffffffffffffffffffffffffffff1916908160001a9053507f7800000000000000000000000000000000000000000000000000000000000000816001815181106122d1576122d0612de3565b5b60200101907effffffffffffffffffffffffffffffffffffffffffffffffffffffffffffff1916908160001a90535060006001846002612311919061320f565b61231b9190613335565b90505b60018111156123bb577f3031323334353637383961626364656600000000000000000000000000000000600f86166010811061235d5761235c612de3565b5b1a60f81b82828151811061237457612373612de3565b5b60200101907effffffffffffffffffffffffffffffffffffffffffffffffffffffffffffff1916908160001a905350600485901c9450806123b49061370f565b905061231e565b50600084146123ff576040517f08c379a00000000000000000000000000000000000000000000000000000000081526004016123f690613784565b60405180910390fd5b8091505092915050565b60606124188484600085612421565b90509392505050565b606082471015612466576040517f08c379a000000000000000000000000000000000000000000000000000000000815260040161245d90613816565b60405180910390fd5b61246f85612535565b6124ae576040517f08c379a00000000000000000000000000000000000000000000000000000000081526004016124a590613882565b60405180910390fd5b6000808673ffffffffffffffffffffffffffffffffffffffff1685876040516124d791906138e9565b60006040518083038185875af1925050503d8060008114612514576040519150601f19603f3d011682016040523d82523d6000602084013e612519565b606091505b5091509150612529828286612548565b92505050949350505050565b600080823b905060008111915050919050565b60608315612558578290506125a8565b60008351111561256b5782518084602001fd5b816040517f08c379a000000000000000000000000000000000000000000000000000000000815260040161259f91906135cb565b60405180910390fd5b9392505050565b6040518060400160405280600073ffffffffffffffffffffffffffffffffffffffff168152602001600081525090565b6000604051905090565b600080fd5b600080fd5b600073ffffffffffffffffffffffffffffffffffffffff82169050919050565b600061261e826125f3565b9050919050565b61262e81612613565b811461263957600080fd5b50565b60008135905061264b81612625565b92915050565b600060208284031215612667576126666125e9565b5b60006126758482850161263c565b91505092915050565b60007fffffffff0000000000000000000000000000000000000000000000000000000082169050919050565b6126b38161267e565b81146126be57600080fd5b50565b6000813590506126d0816126aa565b92915050565b6000602082840312156126ec576126eb6125e9565b5b60006126fa848285016126c1565b91505092915050565b60008115159050919050565b61271881612703565b82525050565b6000602082019050612733600083018461270f565b92915050565b600081519050919050565b600082825260208201905092915050565b6000819050602082019050919050565b61276e81612613565b82525050565b6000819050919050565b61278781612774565b82525050565b6040820160008201516127a36000850182612765565b5060208201516127b6602085018261277e565b50505050565b60006127c8838361278d565b60408301905092915050565b6000602082019050919050565b60006127ec82612739565b6127f68185612744565b935061280183612755565b8060005b8381101561283257815161281988826127bc565b9750612824836127d4565b925050600181019050612805565b5085935050505092915050565b6000602082019050818103600083015261285981846127e1565b905092915050565b61286a81612774565b82525050565b60006020820190506128856000830184612861565b92915050565b6000819050919050565b61289e8161288b565b81146128a957600080fd5b50565b6000813590506128bb81612895565b92915050565b6000602082840312156128d7576128d66125e9565b5b60006128e5848285016128ac565b91505092915050565b6128f78161288b565b82525050565b600060208201905061291260008301846128ee565b92915050565b6000806040838503121561292f5761292e6125e9565b5b600061293d858286016128ac565b925050602061294e8582860161263c565b9150509250929050565b61296181612774565b811461296c57600080fd5b50565b60008135905061297e81612958565b92915050565b60006020828403121561299a576129996125e9565b5b60006129a88482850161296f565b91505092915050565b6129ba81612613565b82525050565b60006020820190506129d560008301846129b1565b92915050565b600080fd5b6000601f19601f8301169050919050565b7f4e487b7100000000000000000000000000000000000000000000000000000000600052604160045260246000fd5b612a29826129e0565b810181811067ffffffffffffffff82111715612a4857612a476129f1565b5b80604052505050565b6000612a5b6125df565b9050612a678282612a20565b919050565b600067ffffffffffffffff821115612a8757612a866129f1565b5b602082029050602081019050919050565b600080fd5b600080fd5b600060408284031215612ab857612ab7612a9d565b5b612ac26040612a51565b90506000612ad28482850161263c565b6000830152506020612ae68482850161296f565b60208301525092915050565b6000612b05612b0084612a6c565b612a51565b90508083825260208201905060408402830185811115612b2857612b27612a98565b5b835b81811015612b515780612b3d8882612aa2565b845260208401935050604081019050612b2a565b5050509392505050565b600082601f830112612b7057612b6f6129db565b5b8135612b80848260208601612af2565b91505092915050565b600060208284031215612b9f57612b9e6125e9565b5b600082013567ffffffffffffffff811115612bbd57612bbc6125ee565b5b612bc984828501612b5b565b91505092915050565b6000819050919050565b6000612bf7612bf2612bed846125f3565b612bd2565b6125f3565b9050919050565b6000612c0982612bdc565b9050919050565b6000612c1b82612bfe565b9050919050565b612c2b81612c10565b82525050565b6000602082019050612c466000830184612c22565b92915050565b600082825260208201905092915050565b7f4f776e61626c653a2063616c6c6572206973206e6f7420746865206f776e6572600082015250565b6000612c93602083612c4c565b9150612c9e82612c5d565b602082019050919050565b60006020820190508181036000830152612cc281612c86565b9050919050565b7f414444524553535f494e56414c49440000000000000000000000000000000000600082015250565b6000612cff600f83612c4c565b9150612d0a82612cc9565b602082019050919050565b60006020820190508181036000830152612d2e81612cf2565b9050919050565b7f53414c455f4e4f545f454e444544000000000000000000000000000000000000600082015250565b6000612d6b600e83612c4c565b9150612d7682612d35565b602082019050919050565b60006020820190508181036000830152612d9a81612d5e565b9050919050565b600081519050612db081612958565b92915050565b600060208284031215612dcc57612dcb6125e9565b5b6000612dda84828501612da1565b91505092915050565b7f4e487b7100000000000000000000000000000000000000000000000000000000600052603260045260246000fd5b7f4e487b7100000000000000000000000000000000000000000000000000000000600052601160045260246000fd5b6000612e4c82612774565b91507fffffffffffffffffffffffffffffffffffffffffffffffffffffffffffffffff8203612e7e57612e7d612e12565b5b600182019050919050565b7f416363657373436f6e74726f6c3a2063616e206f6e6c792072656e6f756e636560008201527f20726f6c657320666f722073656c660000000000000000000000000000000000602082015250565b6000612ee5602f83612c4c565b9150612ef082612e89565b604082019050919050565b60006020820190508181036000830152612f1481612ed8565b9050919050565b7f5061757361626c653a2070617573656400000000000000000000000000000000600082015250565b6000612f51601083612c4c565b9150612f5c82612f1b565b602082019050919050565b60006020820190508181036000830152612f8081612f44565b9050919050565b7f5a45524f5f414444524553530000000000000000000000000000000000000000600082015250565b6000612fbd600c83612c4c565b9150612fc882612f87565b602082019050919050565b60006020820190508181036000830152612fec81612fb0565b9050919050565b7f5265656e7472616e637947756172643a207265656e7472616e742063616c6c00600082015250565b6000613029601f83612c4c565b915061303482612ff3565b602082019050919050565b600060208201905081810360008301526130588161301c565b9050919050565b7f53414c455f4e4f545f5354415254454400000000000000000000000000000000600082015250565b6000613095601083612c4c565b91506130a08261305f565b602082019050919050565b600060208201905081810360008301526130c481613088565b9050919050565b7f53414c455f414c52454144595f454e4445440000000000000000000000000000600082015250565b6000613101601283612c4c565b915061310c826130cb565b602082019050919050565b60006020820190508181036000830152613130816130f4565b9050919050565b7f50555243484153455f414d4f554e545f494e56414c4944000000000000000000600082015250565b600061316d601783612c4c565b915061317882613137565b602082019050919050565b6000602082019050818103600083015261319c81613160565b9050919050565b7f43414c4c45525f4e4f5f57484954454c49535400000000000000000000000000600082015250565b60006131d9601383612c4c565b91506131e4826131a3565b602082019050919050565b60006020820190508181036000830152613208816131cc565b9050919050565b600061321a82612774565b915061322583612774565b9250817fffffffffffffffffffffffffffffffffffffffffffffffffffffffffffffffff048311821515161561325e5761325d612e12565b5b828202905092915050565b7f4e487b7100000000000000000000000000000000000000000000000000000000600052601260045260246000fd5b60006132a382612774565b91506132ae83612774565b9250826132be576132bd613269565b5b828204905092915050565b7f494e53554646494349454e545f46554e44530000000000000000000000000000600082015250565b60006132ff601283612c4c565b915061330a826132c9565b602082019050919050565b6000602082019050818103600083015261332e816132f2565b9050919050565b600061334082612774565b915061334b83612774565b9250827fffffffffffffffffffffffffffffffffffffffffffffffffffffffffffffffff038211156133805761337f612e12565b5b828201905092915050565b7f4f776e61626c653a206e6577206f776e657220697320746865207a65726f206160008201527f6464726573730000000000000000000000000000000000000000000000000000602082015250565b60006133e7602683612c4c565b91506133f28261338b565b604082019050919050565b60006020820190508181036000830152613416816133da565b9050919050565b600060408201905061343260008301856129b1565b61343f6020830184612861565b9392505050565b600081905092915050565b7f416363657373436f6e74726f6c3a206163636f756e7420000000000000000000600082015250565b6000613487601783613446565b915061349282613451565b601782019050919050565b600081519050919050565b60005b838110156134c65780820151818401526020810190506134ab565b838111156134d5576000848401525b50505050565b60006134e68261349d565b6134f08185613446565b93506135008185602086016134a8565b80840191505092915050565b7f206973206d697373696e6720726f6c6520000000000000000000000000000000600082015250565b6000613542601183613446565b915061354d8261350c565b601182019050919050565b60006135638261347a565b915061356f82856134db565b915061357a82613535565b915061358682846134db565b91508190509392505050565b600061359d8261349d565b6135a78185612c4c565b93506135b78185602086016134a8565b6135c0816129e0565b840191505092915050565b600060208201905081810360008301526135e58184613592565b905092915050565b600060608201905061360260008301866129b1565b61360f60208301856129b1565b61361c6040830184612861565b949350505050565b61362d81612703565b811461363857600080fd5b50565b60008151905061364a81613624565b92915050565b600060208284031215613666576136656125e9565b5b60006136748482850161363b565b91505092915050565b7f5361666545524332303a204552433230206f7065726174696f6e20646964206e60008201527f6f74207375636365656400000000000000000000000000000000000000000000602082015250565b60006136d9602a83612c4c565b91506136e48261367d565b604082019050919050565b60006020820190508181036000830152613708816136cc565b9050919050565b600061371a82612774565b91506000820361372d5761372c612e12565b5b600182039050919050565b7f537472696e67733a20686578206c656e67746820696e73756666696369656e74600082015250565b600061376e602083612c4c565b915061377982613738565b602082019050919050565b6000602082019050818103600083015261379d81613761565b9050919050565b7f416464726573733a20696e73756666696369656e742062616c616e636520666f60008201527f722063616c6c0000000000000000000000000000000000000000000000000000602082015250565b6000613800602683612c4c565b915061380b826137a4565b604082019050919050565b6000602082019050818103600083015261382f816137f3565b9050919050565b7f416464726573733a2063616c6c20746f206e6f6e2d636f6e7472616374000000600082015250565b600061386c601d83612c4c565b915061387782613836565b602082019050919050565b6000602082019050818103600083015261389b8161385f565b9050919050565b600081519050919050565b600081905092915050565b60006138c3826138a2565b6138cd81856138ad565b93506138dd8185602086016134a8565b80840191505092915050565b60006138f582846138b8565b91508190509291505056fea264697066735822122083669e23c06a9b5b4662d7440fbcbf601a276f4a9a1faf639219ba80f33781c164736f6c634300080d0033",
  "immutableReferences": {},
  "source": "// SPDX-License-Identifier: MIT\r\npragma solidity 0.8.13;\r\n\r\nimport \"@openzeppelin/contracts/token/ERC20/IERC20.sol\";\r\nimport \"@openzeppelin/contracts/token/ERC20/utils/SafeERC20.sol\";\r\nimport \"@openzeppelin/contracts/security/Pausable.sol\";\r\nimport \"@openzeppelin/contracts/security/ReentrancyGuard.sol\";\r\nimport \"@openzeppelin/contracts/access/Ownable.sol\";\r\nimport \"@openzeppelin/contracts/access/AccessControl.sol\";\r\n\r\n/**\r\n * Users can purchase tokens after sale started and claim after sale ended\r\n */\r\n\r\ncontract IDOSale is Ownable, Pausable, AccessControl,  ReentrancyGuard {\r\n    using SafeERC20 for IERC20;\r\n\r\n    bytes32 public constant OPERATOR_ROLE = keccak256(\"OPERATOR_ROLE\");\r\n    // user address => amounts\r\n    mapping(address => uint256) private whitelist;\r\n    // user address => purchased token amount\r\n    mapping(address => uint256) private purchasedAmounts;\r\n    // Once-whitelisted user address array, even removed users still remain\r\n    address[] private _whitelistedUsers;\r\n    // IDO token price\r\n    uint256 public idoPrice;\r\n    // USDT address\r\n    IERC20 public purchaseToken;\r\n    // The total purchased amount\r\n    uint256 public totalPurchasedAmount;\r\n    // Date timestamp when token sale start\r\n    uint256 public startTime;\r\n    // Date timestamp when token sale ends\r\n    uint256 public endTime;\r\n\r\n    // Used for returning purchase history\r\n    struct Purchase {\r\n        address account;\r\n        uint256 amount;\r\n    }\r\n\r\n    event IdoPriceChanged(uint256 idoPrice);\r\n    event WhitelistAdded(address indexed account);\r\n    event WhitelistRemoved(address indexed account);\r\n    event Purchased(address indexed sender, uint256 amount);\r\n    event Swept(address indexed sender, uint256 amount);\r\n    event IdoStartTimeChanged(uint256 startTime);\r\n    event IdoEndTimeChanged(uint256 endTime);\r\n\r\n    constructor(\r\n        IERC20 _purchaseToken,\r\n        uint256 _idoPrice,\r\n        uint256 _startTime,\r\n        uint256 _endTime\r\n    ) {\r\n        require(address(_purchaseToken) != address(0), \"PURCHASE_TOKEN_ADDRESS_INVALID\");\r\n        require(_idoPrice > 0, \"TOKEN_PRICE_INVALID\");\r\n        require(block.timestamp <= _startTime && _startTime < _endTime, \"TIMESTAMP_INVALID\");\r\n\r\n        _setupRole(DEFAULT_ADMIN_ROLE, _msgSender());\r\n        _setupRole(OPERATOR_ROLE, _msgSender());\r\n\r\n        purchaseToken = _purchaseToken;\r\n        idoPrice = _idoPrice;\r\n        startTime = _startTime;\r\n        endTime = _endTime;\r\n    }\r\n\r\n    modifier onlyOperator(){\r\n        require(hasRole(OPERATOR_ROLE, _msgSender()));\r\n        _;\r\n    }\r\n    /**************************|\r\n    |          Getters         |\r\n    |_________________________*/\r\n    function getWhitelistedAmount(address account) public view onlyOperator returns (uint256) {\r\n        return whitelist[account];\r\n    } \r\n    function getPurchasedAmount(address account) public view onlyOperator returns (uint256) {\r\n        return purchasedAmounts[account];\r\n    }\r\n\r\n    /**************************|\r\n    |          Setters         |\r\n    |_________________________*/\r\n\r\n    /**\r\n     * @dev Set ido token price in purchaseToken\r\n     */\r\n    function setIdoPrice(uint256 _idoPrice) external onlyOwner {\r\n        idoPrice = _idoPrice;\r\n\r\n        emit IdoPriceChanged(_idoPrice);\r\n    }\r\n\r\n    /**\r\n     * @dev Set ido start time\r\n     */\r\n    function setStartTime(uint256 _startTime) external onlyOwner {\r\n        startTime = _startTime;\r\n\r\n        emit IdoStartTimeChanged(_startTime);\r\n    }\r\n\r\n        /**\r\n     * @dev Set ido start time\r\n     */\r\n    function setEndTime(uint256 _endTime) external onlyOwner {\r\n        endTime = _endTime;\r\n\r\n        emit IdoEndTimeChanged(_endTime);\r\n    }\r\n\r\n    /****************************|\r\n    |          Whitelist         |\r\n    |___________________________*/\r\n\r\n    /**\r\n     * @dev Return whitelisted users\r\n     * The result array can include zero address\r\n     */\r\n    function whitelistedUsers() external view returns (Purchase[] memory) {\r\n       Purchase[] memory __whitelistedUsers = new Purchase[](_whitelistedUsers.length);\r\n        for (uint256 i = 0; i < _whitelistedUsers.length; i++) {\r\n            if (whitelist[_whitelistedUsers[i]] == 0) {\r\n                continue;\r\n            }\r\n            __whitelistedUsers[i].account = _whitelistedUsers[i];\r\n            __whitelistedUsers[i].amount = whitelist[_whitelistedUsers[i]];\r\n        }\r\n\r\n        return __whitelistedUsers;\r\n    }\r\n\r\n    /**\r\n     * @dev Add wallet to whitelist\r\n     * If wallet is added, removed and added to whitelist, the account is repeated\r\n     */\r\n\r\n    function addWhitelist(Purchase[] memory _accounts) external onlyOperator whenNotPaused {\r\n        for (uint256 i = 0; i < _accounts.length; i++) {\r\n            require(_accounts[i].account != address(0), \"ZERO_ADDRESS\");\r\n            if (whitelist[_accounts[i].account] == 0) {\r\n                whitelist[_accounts[i].account] = _accounts[i].amount;\r\n                _whitelistedUsers.push(_accounts[i].account);\r\n                emit WhitelistAdded(_accounts[i].account);\r\n            }          \r\n        }\r\n    }\r\n\r\n    /**\r\n     * @dev Remove wallet from whitelist\r\n     * Removed wallets still remain in `_whitelistedUsers` array\r\n     */\r\n    function removeWhitelist(Purchase[] memory _accounts) external onlyOperator whenNotPaused {\r\n        for (uint256 i = 0; i < _accounts.length; i++) {\r\n            require(_accounts[i].account != address(0), \"ZERO_ADDRESS\");\r\n            if (whitelist[_accounts[i].account]>0) {\r\n                whitelist[_accounts[i].account] = 0;\r\n\r\n                emit WhitelistRemoved(_accounts[i].account);\r\n            }         \r\n        }\r\n    }\r\n\r\n    /***************************|\r\n    |          Purchase         |\r\n    |__________________________*/\r\n\r\n    /**\r\n     * @dev Return purchase history (wallet address, amount)\r\n     * The result array can include zero amount item\r\n     */\r\n    function purchaseHistory() external view returns (Purchase[] memory) {\r\n        Purchase[] memory purchases = new Purchase[](_whitelistedUsers.length);\r\n        for (uint256 i = 0; i < _whitelistedUsers.length; i++) {\r\n            purchases[i].account = _whitelistedUsers[i];\r\n            purchases[i].amount = purchasedAmounts[_whitelistedUsers[i]];\r\n        }\r\n\r\n        return purchases;\r\n    }\r\n\r\n    /**\r\n     * @dev Purchase IDO token\r\n     * Only whitelisted users can purchase within `purchcaseCap` amount\r\n     */\r\n    function purchase(uint256 amount) external nonReentrant whenNotPaused {\r\n        require(startTime <= block.timestamp, \"SALE_NOT_STARTED\");\r\n        require(block.timestamp < endTime, \"SALE_ALREADY_ENDED\");\r\n        require(amount > 0, \"PURCHASE_AMOUNT_INVALID\");\r\n        require(whitelist[_msgSender()]>=0, \"CALLER_NO_WHITELIST\");\r\n        uint256 purchaseTokenAmount = amount * idoPrice / (10 ** 18);\r\n        require(purchaseTokenAmount <= purchaseToken.balanceOf(_msgSender()), \"INSUFFICIENT_FUNDS\");\r\n\r\n        purchasedAmounts[_msgSender()] += amount;\r\n        totalPurchasedAmount += amount;\r\n        purchaseToken.safeTransferFrom(_msgSender(), address(this), purchaseTokenAmount);\r\n\r\n        emit Purchased(_msgSender(), amount);\r\n    }\r\n\r\n    /**\r\n     * @dev `Operator` sweeps `purchaseToken` from the sale contract to `to` address\r\n     */\r\n    function sweep(address to) external onlyOwner {\r\n        require(to != address(0), \"ADDRESS_INVALID\");\r\n        require(endTime <= block.timestamp, \"SALE_NOT_ENDED\");\r\n        uint256 bal = purchaseToken.balanceOf(address(this));\r\n        purchaseToken.safeTransfer(to, bal);\r\n\r\n        emit Swept(to, bal);\r\n    }\r\n}",
  "sourcePath": "C:\\Users\\Cemil\\Documents\\GitHub\\dAngelContracts\\contracts\\IdoSale.sol",
  "compiler": {
    "name": "solc",
    "version": "0.8.13+commit.abaa5c0e.Emscripten.clang"
  },
  "schemaVersion": "3.4.6",
  "updatedAt": "2022-04-05T16:38:00.369Z",
  "devdoc": {
    "kind": "dev",
    "methods": {
      "addWhitelist((address,uint256)[])": {
        "details": "Add wallet to whitelist If wallet is added, removed and added to whitelist, the account is repeated"
      },
      "getRoleAdmin(bytes32)": {
        "details": "Returns the admin role that controls `role`. See {grantRole} and {revokeRole}. To change a role's admin, use {_setRoleAdmin}."
      },
      "grantRole(bytes32,address)": {
        "details": "Grants `role` to `account`. If `account` had not been already granted `role`, emits a {RoleGranted} event. Requirements: - the caller must have ``role``'s admin role."
      },
      "hasRole(bytes32,address)": {
        "details": "Returns `true` if `account` has been granted `role`."
      },
      "owner()": {
        "details": "Returns the address of the current owner."
      },
      "paused()": {
        "details": "Returns true if the contract is paused, and false otherwise."
      },
      "purchase(uint256)": {
        "details": "Purchase IDO token Only whitelisted users can purchase within `purchcaseCap` amount"
      },
      "purchaseHistory()": {
        "details": "Return purchase history (wallet address, amount) The result array can include zero amount item"
      },
      "removeWhitelist((address,uint256)[])": {
        "details": "Remove wallet from whitelist Removed wallets still remain in `_whitelistedUsers` array"
      },
      "renounceOwnership()": {
        "details": "Leaves the contract without owner. It will not be possible to call `onlyOwner` functions anymore. Can only be called by the current owner. NOTE: Renouncing ownership will leave the contract without an owner, thereby removing any functionality that is only available to the owner."
      },
      "renounceRole(bytes32,address)": {
        "details": "Revokes `role` from the calling account. Roles are often managed via {grantRole} and {revokeRole}: this function's purpose is to provide a mechanism for accounts to lose their privileges if they are compromised (such as when a trusted device is misplaced). If the calling account had been revoked `role`, emits a {RoleRevoked} event. Requirements: - the caller must be `account`."
      },
      "revokeRole(bytes32,address)": {
        "details": "Revokes `role` from `account`. If `account` had been granted `role`, emits a {RoleRevoked} event. Requirements: - the caller must have ``role``'s admin role."
      },
      "setEndTime(uint256)": {
        "details": "Set ido start time"
      },
      "setIdoPrice(uint256)": {
        "details": "Set ido token price in purchaseToken"
      },
      "setStartTime(uint256)": {
        "details": "Set ido start time"
      },
      "supportsInterface(bytes4)": {
        "details": "See {IERC165-supportsInterface}."
      },
      "sweep(address)": {
        "details": "`Operator` sweeps `purchaseToken` from the sale contract to `to` address"
      },
      "transferOwnership(address)": {
        "details": "Transfers ownership of the contract to a new account (`newOwner`). Can only be called by the current owner."
      },
      "whitelistedUsers()": {
        "details": "Return whitelisted users The result array can include zero address"
      }
    },
    "version": 1
  },
  "userdoc": {
    "kind": "user",
    "methods": {},
    "notice": "Users can purchase tokens after sale started and claim after sale ended",
    "version": 1
  }
}