{
  "contractName": "INOSale",
  "abi": [
    {
      "inputs": [
        {
          "internalType": "contract IERC20",
          "name": "_purchaseToken",
          "type": "address"
        },
        {
          "internalType": "uint256",
          "name": "_idoPrice",
          "type": "uint256"
        },
        {
          "internalType": "uint256",
          "name": "_purchaseMinCap",
          "type": "uint256"
        },
        {
          "internalType": "uint256",
          "name": "_purchaseMaxCap",
          "type": "uint256"
        },
        {
          "internalType": "uint256",
          "name": "_startTime",
          "type": "uint256"
        },
        {
          "internalType": "uint256",
          "name": "_endTime",
          "type": "uint256"
        }
      ],
      "stateMutability": "nonpayable",
      "type": "constructor"
    },
    {
      "anonymous": false,
      "inputs": [
        {
          "indexed": false,
          "internalType": "uint256",
          "name": "endTime",
          "type": "uint256"
        }
      ],
      "name": "IdoEndTimeChanged",
      "type": "event"
    },
    {
      "anonymous": false,
      "inputs": [
        {
          "indexed": false,
          "internalType": "uint256",
          "name": "idoPrice",
          "type": "uint256"
        }
      ],
      "name": "IdoPriceChanged",
      "type": "event"
    },
    {
      "anonymous": false,
      "inputs": [
        {
          "indexed": false,
          "internalType": "uint256",
          "name": "startTime",
          "type": "uint256"
        }
      ],
      "name": "IdoStartTimeChanged",
      "type": "event"
    },
    {
      "anonymous": false,
      "inputs": [
        {
          "indexed": true,
          "internalType": "address",
          "name": "previousOwner",
          "type": "address"
        },
        {
          "indexed": true,
          "internalType": "address",
          "name": "newOwner",
          "type": "address"
        }
      ],
      "name": "OwnershipTransferred",
      "type": "event"
    },
    {
      "anonymous": false,
      "inputs": [
        {
          "indexed": false,
          "internalType": "address",
          "name": "account",
          "type": "address"
        }
      ],
      "name": "Paused",
      "type": "event"
    },
    {
      "anonymous": false,
      "inputs": [
        {
          "indexed": false,
          "internalType": "uint256",
          "name": "purchaseMaxCap",
          "type": "uint256"
        }
      ],
      "name": "PurchaseMaxCapChanged",
      "type": "event"
    },
    {
      "anonymous": false,
      "inputs": [
        {
          "indexed": false,
          "internalType": "uint256",
          "name": "purchaseMinCap",
          "type": "uint256"
        }
      ],
      "name": "PurchaseMinCapChanged",
      "type": "event"
    },
    {
      "anonymous": false,
      "inputs": [
        {
          "indexed": true,
          "internalType": "address",
          "name": "sender",
          "type": "address"
        },
        {
          "indexed": false,
          "internalType": "uint256",
          "name": "amount",
          "type": "uint256"
        }
      ],
      "name": "Purchased",
      "type": "event"
    },
    {
      "anonymous": false,
      "inputs": [
        {
          "indexed": true,
          "internalType": "bytes32",
          "name": "role",
          "type": "bytes32"
        },
        {
          "indexed": true,
          "internalType": "bytes32",
          "name": "previousAdminRole",
          "type": "bytes32"
        },
        {
          "indexed": true,
          "internalType": "bytes32",
          "name": "newAdminRole",
          "type": "bytes32"
        }
      ],
      "name": "RoleAdminChanged",
      "type": "event"
    },
    {
      "anonymous": false,
      "inputs": [
        {
          "indexed": true,
          "internalType": "bytes32",
          "name": "role",
          "type": "bytes32"
        },
        {
          "indexed": true,
          "internalType": "address",
          "name": "account",
          "type": "address"
        },
        {
          "indexed": true,
          "internalType": "address",
          "name": "sender",
          "type": "address"
        }
      ],
      "name": "RoleGranted",
      "type": "event"
    },
    {
      "anonymous": false,
      "inputs": [
        {
          "indexed": true,
          "internalType": "bytes32",
          "name": "role",
          "type": "bytes32"
        },
        {
          "indexed": true,
          "internalType": "address",
          "name": "account",
          "type": "address"
        },
        {
          "indexed": true,
          "internalType": "address",
          "name": "sender",
          "type": "address"
        }
      ],
      "name": "RoleRevoked",
      "type": "event"
    },
    {
      "anonymous": false,
      "inputs": [
        {
          "indexed": true,
          "internalType": "address",
          "name": "sender",
          "type": "address"
        },
        {
          "indexed": false,
          "internalType": "uint256",
          "name": "amount",
          "type": "uint256"
        }
      ],
      "name": "Swept",
      "type": "event"
    },
    {
      "anonymous": false,
      "inputs": [
        {
          "indexed": false,
          "internalType": "address",
          "name": "account",
          "type": "address"
        }
      ],
      "name": "Unpaused",
      "type": "event"
    },
    {
      "anonymous": false,
      "inputs": [
        {
          "indexed": true,
          "internalType": "address",
          "name": "account",
          "type": "address"
        }
      ],
      "name": "WhitelistAdded",
      "type": "event"
    },
    {
      "anonymous": false,
      "inputs": [
        {
          "indexed": true,
          "internalType": "address",
          "name": "account",
          "type": "address"
        }
      ],
      "name": "WhitelistRemoved",
      "type": "event"
    },
    {
      "inputs": [],
      "name": "DEFAULT_ADMIN_ROLE",
      "outputs": [
        {
          "internalType": "bytes32",
          "name": "",
          "type": "bytes32"
        }
      ],
      "stateMutability": "view",
      "type": "function"
    },
    {
      "inputs": [],
      "name": "OPERATOR_ROLE",
      "outputs": [
        {
          "internalType": "bytes32",
          "name": "",
          "type": "bytes32"
        }
      ],
      "stateMutability": "view",
      "type": "function"
    },
    {
      "inputs": [],
      "name": "endTime",
      "outputs": [
        {
          "internalType": "uint256",
          "name": "",
          "type": "uint256"
        }
      ],
      "stateMutability": "view",
      "type": "function"
    },
    {
      "inputs": [
        {
          "internalType": "bytes32",
          "name": "role",
          "type": "bytes32"
        }
      ],
      "name": "getRoleAdmin",
      "outputs": [
        {
          "internalType": "bytes32",
          "name": "",
          "type": "bytes32"
        }
      ],
      "stateMutability": "view",
      "type": "function"
    },
    {
      "inputs": [
        {
          "internalType": "bytes32",
          "name": "role",
          "type": "bytes32"
        },
        {
          "internalType": "address",
          "name": "account",
          "type": "address"
        }
      ],
      "name": "grantRole",
      "outputs": [],
      "stateMutability": "nonpayable",
      "type": "function"
    },
    {
      "inputs": [
        {
          "internalType": "bytes32",
          "name": "role",
          "type": "bytes32"
        },
        {
          "internalType": "address",
          "name": "account",
          "type": "address"
        }
      ],
      "name": "hasRole",
      "outputs": [
        {
          "internalType": "bool",
          "name": "",
          "type": "bool"
        }
      ],
      "stateMutability": "view",
      "type": "function"
    },
    {
      "inputs": [],
      "name": "idoPrice",
      "outputs": [
        {
          "internalType": "uint256",
          "name": "",
          "type": "uint256"
        }
      ],
      "stateMutability": "view",
      "type": "function"
    },
    {
      "inputs": [],
      "name": "owner",
      "outputs": [
        {
          "internalType": "address",
          "name": "",
          "type": "address"
        }
      ],
      "stateMutability": "view",
      "type": "function"
    },
    {
      "inputs": [],
      "name": "paused",
      "outputs": [
        {
          "internalType": "bool",
          "name": "",
          "type": "bool"
        }
      ],
      "stateMutability": "view",
      "type": "function"
    },
    {
      "inputs": [],
      "name": "purchaseMaxCap",
      "outputs": [
        {
          "internalType": "uint256",
          "name": "",
          "type": "uint256"
        }
      ],
      "stateMutability": "view",
      "type": "function"
    },
    {
      "inputs": [],
      "name": "purchaseMinCap",
      "outputs": [
        {
          "internalType": "uint256",
          "name": "",
          "type": "uint256"
        }
      ],
      "stateMutability": "view",
      "type": "function"
    },
    {
      "inputs": [],
      "name": "purchaseToken",
      "outputs": [
        {
          "internalType": "contract IERC20",
          "name": "",
          "type": "address"
        }
      ],
      "stateMutability": "view",
      "type": "function"
    },
    {
      "inputs": [],
      "name": "renounceOwnership",
      "outputs": [],
      "stateMutability": "nonpayable",
      "type": "function"
    },
    {
      "inputs": [
        {
          "internalType": "bytes32",
          "name": "role",
          "type": "bytes32"
        },
        {
          "internalType": "address",
          "name": "account",
          "type": "address"
        }
      ],
      "name": "renounceRole",
      "outputs": [],
      "stateMutability": "nonpayable",
      "type": "function"
    },
    {
      "inputs": [
        {
          "internalType": "bytes32",
          "name": "role",
          "type": "bytes32"
        },
        {
          "internalType": "address",
          "name": "account",
          "type": "address"
        }
      ],
      "name": "revokeRole",
      "outputs": [],
      "stateMutability": "nonpayable",
      "type": "function"
    },
    {
      "inputs": [],
      "name": "startTime",
      "outputs": [
        {
          "internalType": "uint256",
          "name": "",
          "type": "uint256"
        }
      ],
      "stateMutability": "view",
      "type": "function"
    },
    {
      "inputs": [
        {
          "internalType": "bytes4",
          "name": "interfaceId",
          "type": "bytes4"
        }
      ],
      "name": "supportsInterface",
      "outputs": [
        {
          "internalType": "bool",
          "name": "",
          "type": "bool"
        }
      ],
      "stateMutability": "view",
      "type": "function"
    },
    {
      "inputs": [],
      "name": "totalPurchasedAmount",
      "outputs": [
        {
          "internalType": "uint256",
          "name": "",
          "type": "uint256"
        }
      ],
      "stateMutability": "view",
      "type": "function"
    },
    {
      "inputs": [
        {
          "internalType": "address",
          "name": "newOwner",
          "type": "address"
        }
      ],
      "name": "transferOwnership",
      "outputs": [],
      "stateMutability": "nonpayable",
      "type": "function"
    },
    {
      "inputs": [
        {
          "internalType": "address",
          "name": "account",
          "type": "address"
        }
      ],
      "name": "getWhitelistedAmount",
      "outputs": [
        {
          "internalType": "uint256",
          "name": "",
          "type": "uint256"
        }
      ],
      "stateMutability": "view",
      "type": "function"
    },
    {
      "inputs": [
        {
          "internalType": "address",
          "name": "account",
          "type": "address"
        }
      ],
      "name": "getPurchasedAmount",
      "outputs": [
        {
          "internalType": "uint256",
          "name": "",
          "type": "uint256"
        }
      ],
      "stateMutability": "view",
      "type": "function"
    },
    {
      "inputs": [
        {
          "internalType": "uint256",
          "name": "_idoPrice",
          "type": "uint256"
        }
      ],
      "name": "setIdoPrice",
      "outputs": [],
      "stateMutability": "nonpayable",
      "type": "function"
    },
    {
      "inputs": [
        {
          "internalType": "uint256",
          "name": "_startTime",
          "type": "uint256"
        }
      ],
      "name": "setStartTime",
      "outputs": [],
      "stateMutability": "nonpayable",
      "type": "function"
    },
    {
      "inputs": [
        {
          "internalType": "uint256",
          "name": "_endTime",
          "type": "uint256"
        }
      ],
      "name": "setEndTime",
      "outputs": [],
      "stateMutability": "nonpayable",
      "type": "function"
    },
    {
      "inputs": [
        {
          "internalType": "uint256",
          "name": "_purchaseMinCap",
          "type": "uint256"
        }
      ],
      "name": "setPurchaseMinCap",
      "outputs": [],
      "stateMutability": "nonpayable",
      "type": "function"
    },
    {
      "inputs": [
        {
          "internalType": "uint256",
          "name": "_purchaseMaxCap",
          "type": "uint256"
        }
      ],
      "name": "setPurchaseMaxCap",
      "outputs": [],
      "stateMutability": "nonpayable",
      "type": "function"
    },
    {
      "inputs": [],
      "name": "whitelistedUsers",
      "outputs": [
        {
          "components": [
            {
              "internalType": "address",
              "name": "account",
              "type": "address"
            },
            {
              "internalType": "uint256",
              "name": "amount",
              "type": "uint256"
            }
          ],
          "internalType": "struct INOSale.Purchase[]",
          "name": "",
          "type": "tuple[]"
        }
      ],
      "stateMutability": "view",
      "type": "function"
    },
    {
      "inputs": [
        {
          "components": [
            {
              "internalType": "address",
              "name": "account",
              "type": "address"
            },
            {
              "internalType": "uint256",
              "name": "amount",
              "type": "uint256"
            }
          ],
          "internalType": "struct INOSale.Purchase[]",
          "name": "_accounts",
          "type": "tuple[]"
        }
      ],
      "name": "addWhitelist",
      "outputs": [],
      "stateMutability": "nonpayable",
      "type": "function"
    },
    {
      "inputs": [
        {
          "components": [
            {
              "internalType": "address",
              "name": "account",
              "type": "address"
            },
            {
              "internalType": "uint256",
              "name": "amount",
              "type": "uint256"
            }
          ],
          "internalType": "struct INOSale.Purchase[]",
          "name": "_accounts",
          "type": "tuple[]"
        }
      ],
      "name": "removeWhitelist",
      "outputs": [],
      "stateMutability": "nonpayable",
      "type": "function"
    },
    {
      "inputs": [],
      "name": "purchaseHistory",
      "outputs": [
        {
          "components": [
            {
              "internalType": "address",
              "name": "account",
              "type": "address"
            },
            {
              "internalType": "uint256",
              "name": "amount",
              "type": "uint256"
            }
          ],
          "internalType": "struct INOSale.Purchase[]",
          "name": "",
          "type": "tuple[]"
        }
      ],
      "stateMutability": "view",
      "type": "function"
    },
    {
      "inputs": [
        {
          "internalType": "uint256",
          "name": "amount",
          "type": "uint256"
        }
      ],
      "name": "purchase",
      "outputs": [],
      "stateMutability": "nonpayable",
      "type": "function"
    },
    {
      "inputs": [
        {
          "internalType": "address",
          "name": "to",
          "type": "address"
        }
      ],
      "name": "sweep",
      "outputs": [],
      "stateMutability": "nonpayable",
      "type": "function"
    }
  ],
  "bytecode": "0x60806040523480156200001157600080fd5b5060405162004632380380620046328339818101604052810190620000379190620005db565b620000576200004b620002e460201b60201c565b620002ec60201b60201c565b60008060146101000a81548160ff0219169083151502179055506001600281905550600073ffffffffffffffffffffffffffffffffffffffff168673ffffffffffffffffffffffffffffffffffffffff1603620000eb576040517f08c379a0000000000000000000000000000000000000000000000000000000008152600401620000e290620006d8565b60405180910390fd5b6000851162000131576040517f08c379a000000000000000000000000000000000000000000000000000000000815260040162000128906200074a565b60405180910390fd5b6000841162000177576040517f08c379a00000000000000000000000000000000000000000000000000000000081526004016200016e90620007bc565b60405180910390fd5b60008311620001bd576040517f08c379a0000000000000000000000000000000000000000000000000000000008152600401620001b4906200082e565b60405180910390fd5b814211158015620001cd57508082105b6200020f576040517f08c379a00000000000000000000000000000000000000000000000000000000081526004016200020690620008a0565b60405180910390fd5b620002336000801b62000227620002e460201b60201c565b620003b060201b60201c565b620002747f97667070c54ef182b0f5858b034beac1b6f3089aa2d3188bb1e8929f4fa9b92962000268620002e460201b60201c565b620003b060201b60201c565b85600760006101000a81548173ffffffffffffffffffffffffffffffffffffffff021916908373ffffffffffffffffffffffffffffffffffffffff16021790555084600681905550836008819055508260098190555081600b8190555080600c81905550505050505050620008c2565b600033905090565b60008060009054906101000a900473ffffffffffffffffffffffffffffffffffffffff169050816000806101000a81548173ffffffffffffffffffffffffffffffffffffffff021916908373ffffffffffffffffffffffffffffffffffffffff1602179055508173ffffffffffffffffffffffffffffffffffffffff168173ffffffffffffffffffffffffffffffffffffffff167f8be0079c531659141344cd1fd0a4f28419497f9722a3daafe3b4186f6b6457e060405160405180910390a35050565b620003c28282620003c660201b60201c565b5050565b620003d88282620004b760201b60201c565b620004b357600180600084815260200190815260200160002060000160008373ffffffffffffffffffffffffffffffffffffffff1673ffffffffffffffffffffffffffffffffffffffff16815260200190815260200160002060006101000a81548160ff02191690831515021790555062000458620002e460201b60201c565b73ffffffffffffffffffffffffffffffffffffffff168173ffffffffffffffffffffffffffffffffffffffff16837f2f8788117e7eff1d82e926ec794901d17c78024a50270940304540a733656f0d60405160405180910390a45b5050565b60006001600084815260200190815260200160002060000160008373ffffffffffffffffffffffffffffffffffffffff1673ffffffffffffffffffffffffffffffffffffffff16815260200190815260200160002060009054906101000a900460ff16905092915050565b600080fd5b600073ffffffffffffffffffffffffffffffffffffffff82169050919050565b6000620005548262000527565b9050919050565b6000620005688262000547565b9050919050565b6200057a816200055b565b81146200058657600080fd5b50565b6000815190506200059a816200056f565b92915050565b6000819050919050565b620005b581620005a0565b8114620005c157600080fd5b50565b600081519050620005d581620005aa565b92915050565b60008060008060008060c08789031215620005fb57620005fa62000522565b5b60006200060b89828a0162000589565b96505060206200061e89828a01620005c4565b95505060406200063189828a01620005c4565b94505060606200064489828a01620005c4565b93505060806200065789828a01620005c4565b92505060a06200066a89828a01620005c4565b9150509295509295509295565b600082825260208201905092915050565b7f50555243484153455f544f4b454e5f414444524553535f494e56414c49440000600082015250565b6000620006c0601e8362000677565b9150620006cd8262000688565b602082019050919050565b60006020820190508181036000830152620006f381620006b1565b9050919050565b7f544f4b454e5f50524943455f494e56414c494400000000000000000000000000600082015250565b60006200073260138362000677565b91506200073f82620006fa565b602082019050919050565b60006020820190508181036000830152620007658162000723565b9050919050565b7f50555243484153455f4d494e5f4341505f494e56414c49440000000000000000600082015250565b6000620007a460188362000677565b9150620007b1826200076c565b602082019050919050565b60006020820190508181036000830152620007d78162000795565b9050919050565b7f50555243484153455f4d41585f4341505f494e56414c49440000000000000000600082015250565b60006200081660188362000677565b91506200082382620007de565b602082019050919050565b60006020820190508181036000830152620008498162000807565b9050919050565b7f54494d455354414d505f494e56414c4944000000000000000000000000000000600082015250565b60006200088860118362000677565b9150620008958262000850565b602082019050919050565b60006020820190508181036000830152620008bb8162000879565b9050919050565b613d6080620008d26000396000f3fe608060405234801561001057600080fd5b50600436106101f05760003560e01c80638da5cb5b1161010f578063ccb98ffc116100a2578063efef39a111610071578063efef39a11461056f578063f2fde38b1461058b578063f5b541a6146105a7578063ffa43b9d146105c5576101f0565b8063ccb98ffc146104fb578063cd80fe0d14610517578063d547741f14610535578063e2ff3d7a14610551576101f0565b8063a217fddf116100de578063a217fddf14610485578063a48e84b5146104a3578063a95c4d62146104bf578063bedac100146104dd576101f0565b80638da5cb5b146103ff57806391d148541461041d578063943e38571461044d5780639b94954114610469576101f0565b806336568abe116101875780635c975abb116101565780635c975abb1461039b578063715018a6146103b957806378e97925146103c35780638a42b77d146103e1576101f0565b806336568abe146103175780633c7d8602146103335780633e0a322d146103635780634fb26dfb1461037f576101f0565b8063248a9ca3116101c3578063248a9ca31461028f5780632c1e421f146102bf5780632f2ff15d146102dd5780633197cbb6146102f9576101f0565b806301681a62146101f557806301ffc9a7146102115780631ec6a7de14610241578063242857621461025f575b600080fd5b61020f600480360381019061020a91906129a3565b6105e1565b005b61022b60048036038101906102269190612a28565b610850565b6040516102389190612a70565b60405180910390f35b6102496108ca565b6040516102569190612b91565b60405180910390f35b610279600480360381019061027491906129a3565b610b0c565b6040516102869190612bc2565b60405180910390f35b6102a960048036038101906102a49190612c13565b610b8f565b6040516102b69190612c4f565b60405180910390f35b6102c7610baf565b6040516102d49190612bc2565b60405180910390f35b6102f760048036038101906102f29190612c6a565b610bb5565b005b610301610bde565b60405161030e9190612bc2565b60405180910390f35b610331600480360381019061032c9190612c6a565b610be4565b005b61034d600480360381019061034891906129a3565b610c67565b60405161035a9190612bc2565b60405180910390f35b61037d60048036038101906103789190612cd6565b610cea565b005b61039960048036038101906103949190612cd6565b610da7565b005b6103a3610e64565b6040516103b09190612a70565b60405180910390f35b6103c1610e7a565b005b6103cb610f02565b6040516103d89190612bc2565b60405180910390f35b6103e9610f08565b6040516103f69190612bc2565b60405180910390f35b610407610f0e565b6040516104149190612d12565b60405180910390f35b61043760048036038101906104329190612c6a565b610f37565b6040516104449190612a70565b60405180910390f35b61046760048036038101906104629190612cd6565b610fa2565b005b610483600480360381019061047e9190612cd6565b61105f565b005b61048d61111c565b60405161049a9190612c4f565b60405180910390f35b6104bd60048036038101906104b89190612edb565b611123565b005b6104c761141d565b6040516104d49190612f83565b60405180910390f35b6104e5611443565b6040516104f29190612bc2565b60405180910390f35b61051560048036038101906105109190612cd6565b611449565b005b61051f611506565b60405161052c9190612bc2565b60405180910390f35b61054f600480360381019061054a9190612c6a565b61150c565b005b610559611535565b6040516105669190612b91565b60405180910390f35b61058960048036038101906105849190612cd6565b6116f0565b005b6105a560048036038101906105a091906129a3565b611c3c565b005b6105af611d33565b6040516105bc9190612c4f565b60405180910390f35b6105df60048036038101906105da9190612edb565b611d57565b005b6105e9611fb4565b73ffffffffffffffffffffffffffffffffffffffff16610607610f0e565b73ffffffffffffffffffffffffffffffffffffffff161461065d576040517f08c379a000000000000000000000000000000000000000000000000000000000815260040161065490612ffb565b60405180910390fd5b600073ffffffffffffffffffffffffffffffffffffffff168173ffffffffffffffffffffffffffffffffffffffff16036106cc576040517f08c379a00000000000000000000000000000000000000000000000000000000081526004016106c390613067565b60405180910390fd5b42600c541115610711576040517f08c379a0000000000000000000000000000000000000000000000000000000008152600401610708906130d3565b60405180910390fd5b6000600760009054906101000a900473ffffffffffffffffffffffffffffffffffffffff1673ffffffffffffffffffffffffffffffffffffffff166370a08231306040518263ffffffff1660e01b815260040161076e9190612d12565b602060405180830381865afa15801561078b573d6000803e3d6000fd5b505050506040513d601f19601f820116820180604052508101906107af9190613108565b90506107fe8282600760009054906101000a900473ffffffffffffffffffffffffffffffffffffffff1673ffffffffffffffffffffffffffffffffffffffff16611fbc9092919063ffffffff16565b8173ffffffffffffffffffffffffffffffffffffffff167fc36b5179cb9c303b200074996eab2b3473eac370fdd7eba3bec636fe35109696826040516108449190612bc2565b60405180910390a25050565b60007f7965db0b000000000000000000000000000000000000000000000000000000007bffffffffffffffffffffffffffffffffffffffffffffffffffffffff1916827bffffffffffffffffffffffffffffffffffffffffffffffffffffffff191614806108c357506108c282612042565b5b9050919050565b6060600060058054905067ffffffffffffffff8111156108ed576108ec612d43565b5b60405190808252806020026020018201604052801561092657816020015b610913612901565b81526020019060019003908161090b5790505b50905060005b600580549050811015610b04576000600360006005848154811061095357610952613135565b5b9060005260206000200160009054906101000a900473ffffffffffffffffffffffffffffffffffffffff1673ffffffffffffffffffffffffffffffffffffffff1673ffffffffffffffffffffffffffffffffffffffff168152602001908152602001600020540315610af157600581815481106109d3576109d2613135565b5b9060005260206000200160009054906101000a900473ffffffffffffffffffffffffffffffffffffffff16828281518110610a1157610a10613135565b5b60200260200101516000019073ffffffffffffffffffffffffffffffffffffffff16908173ffffffffffffffffffffffffffffffffffffffff16815250506003600060058381548110610a6757610a66613135565b5b9060005260206000200160009054906101000a900473ffffffffffffffffffffffffffffffffffffffff1673ffffffffffffffffffffffffffffffffffffffff1673ffffffffffffffffffffffffffffffffffffffff16815260200190815260200160002054828281518110610ae057610adf613135565b5b602002602001015160200181815250505b8080610afc90613193565b91505061092c565b508091505090565b6000610b3f7f97667070c54ef182b0f5858b034beac1b6f3089aa2d3188bb1e8929f4fa9b929610b3a611fb4565b610f37565b610b4857600080fd5b600460008373ffffffffffffffffffffffffffffffffffffffff1673ffffffffffffffffffffffffffffffffffffffff168152602001908152602001600020549050919050565b600060016000838152602001908152602001600020600101549050919050565b60095481565b610bbe82610b8f565b610bcf81610bca611fb4565b6120ac565b610bd98383612149565b505050565b600c5481565b610bec611fb4565b73ffffffffffffffffffffffffffffffffffffffff168173ffffffffffffffffffffffffffffffffffffffff1614610c59576040517f08c379a0000000000000000000000000000000000000000000000000000000008152600401610c509061324d565b60405180910390fd5b610c638282612229565b5050565b6000610c9a7f97667070c54ef182b0f5858b034beac1b6f3089aa2d3188bb1e8929f4fa9b929610c95611fb4565b610f37565b610ca357600080fd5b600360008373ffffffffffffffffffffffffffffffffffffffff1673ffffffffffffffffffffffffffffffffffffffff168152602001908152602001600020549050919050565b610cf2611fb4565b73ffffffffffffffffffffffffffffffffffffffff16610d10610f0e565b73ffffffffffffffffffffffffffffffffffffffff1614610d66576040517f08c379a0000000000000000000000000000000000000000000000000000000008152600401610d5d90612ffb565b60405180910390fd5b80600b819055507f94a71e8a07d569d47704bbb6d4b82aa1e0a40711e55d04c2d9386be14272450181604051610d9c9190612bc2565b60405180910390a150565b610daf611fb4565b73ffffffffffffffffffffffffffffffffffffffff16610dcd610f0e565b73ffffffffffffffffffffffffffffffffffffffff1614610e23576040517f08c379a0000000000000000000000000000000000000000000000000000000008152600401610e1a90612ffb565b60405180910390fd5b806006819055507f4e351384428a8683e347779fe9bf3b86dae4eb82d841954461519fca968c467f81604051610e599190612bc2565b60405180910390a150565b60008060149054906101000a900460ff16905090565b610e82611fb4565b73ffffffffffffffffffffffffffffffffffffffff16610ea0610f0e565b73ffffffffffffffffffffffffffffffffffffffff1614610ef6576040517f08c379a0000000000000000000000000000000000000000000000000000000008152600401610eed90612ffb565b60405180910390fd5b610f00600061230b565b565b600b5481565b60085481565b60008060009054906101000a900473ffffffffffffffffffffffffffffffffffffffff16905090565b60006001600084815260200190815260200160002060000160008373ffffffffffffffffffffffffffffffffffffffff1673ffffffffffffffffffffffffffffffffffffffff16815260200190815260200160002060009054906101000a900460ff16905092915050565b610faa611fb4565b73ffffffffffffffffffffffffffffffffffffffff16610fc8610f0e565b73ffffffffffffffffffffffffffffffffffffffff161461101e576040517f08c379a000000000000000000000000000000000000000000000000000000000815260040161101590612ffb565b60405180910390fd5b806009819055507fd6325f19fa3ec6b2c284ac662a2d0ab24a66b563469afe644dc307a36204a33d816040516110549190612bc2565b60405180910390a150565b611067611fb4565b73ffffffffffffffffffffffffffffffffffffffff16611085610f0e565b73ffffffffffffffffffffffffffffffffffffffff16146110db576040517f08c379a00000000000000000000000000000000000000000000000000000000081526004016110d290612ffb565b60405180910390fd5b806008819055507fe01a841be1e550d11eb145ddc7a56b14831337b48dab41c08b26a4b5326d7aae816040516111119190612bc2565b60405180910390a150565b6000801b81565b6111547f97667070c54ef182b0f5858b034beac1b6f3089aa2d3188bb1e8929f4fa9b92961114f611fb4565b610f37565b61115d57600080fd5b611165610e64565b156111a5576040517f08c379a000000000000000000000000000000000000000000000000000000000815260040161119c906132b9565b60405180910390fd5b60005b815181101561141957600073ffffffffffffffffffffffffffffffffffffffff168282815181106111dc576111db613135565b5b60200260200101516000015173ffffffffffffffffffffffffffffffffffffffff160361123e576040517f08c379a000000000000000000000000000000000000000000000000000000000815260040161123590613325565b60405180910390fd5b60006003600084848151811061125757611256613135565b5b60200260200101516000015173ffffffffffffffffffffffffffffffffffffffff1673ffffffffffffffffffffffffffffffffffffffff1681526020019081526020016000205403611406578181815181106112b6576112b5613135565b5b602002602001015160200151600360008484815181106112d9576112d8613135565b5b60200260200101516000015173ffffffffffffffffffffffffffffffffffffffff1673ffffffffffffffffffffffffffffffffffffffff16815260200190815260200160002081905550600582828151811061133857611337613135565b5b6020026020010151600001519080600181540180825580915050600190039060005260206000200160009091909190916101000a81548173ffffffffffffffffffffffffffffffffffffffff021916908373ffffffffffffffffffffffffffffffffffffffff1602179055508181815181106113b7576113b6613135565b5b60200260200101516000015173ffffffffffffffffffffffffffffffffffffffff167f4790a4adb426ca2345bb5108f6e454eae852a7bf687544cd66a7270dff3a41d660405160405180910390a25b808061141190613193565b9150506111a8565b5050565b600760009054906101000a900473ffffffffffffffffffffffffffffffffffffffff1681565b600a5481565b611451611fb4565b73ffffffffffffffffffffffffffffffffffffffff1661146f610f0e565b73ffffffffffffffffffffffffffffffffffffffff16146114c5576040517f08c379a00000000000000000000000000000000000000000000000000000000081526004016114bc90612ffb565b60405180910390fd5b80600c819055507fca534e81f27cbd400666167dfed71d975646f6bf98ae29f9abd241f384eb1849816040516114fb9190612bc2565b60405180910390a150565b60065481565b61151582610b8f565b61152681611521611fb4565b6120ac565b6115308383612229565b505050565b6060600060058054905067ffffffffffffffff81111561155857611557612d43565b5b60405190808252806020026020018201604052801561159157816020015b61157e612901565b8152602001906001900390816115765790505b50905060005b6005805490508110156116e857600581815481106115b8576115b7613135565b5b9060005260206000200160009054906101000a900473ffffffffffffffffffffffffffffffffffffffff168282815181106115f6576115f5613135565b5b60200260200101516000019073ffffffffffffffffffffffffffffffffffffffff16908173ffffffffffffffffffffffffffffffffffffffff1681525050600460006005838154811061164c5761164b613135565b5b9060005260206000200160009054906101000a900473ffffffffffffffffffffffffffffffffffffffff1673ffffffffffffffffffffffffffffffffffffffff1673ffffffffffffffffffffffffffffffffffffffff168152602001908152602001600020548282815181106116c5576116c4613135565b5b6020026020010151602001818152505080806116e090613193565b915050611597565b508091505090565b6002805403611734576040517f08c379a000000000000000000000000000000000000000000000000000000000815260040161172b90613391565b60405180910390fd5b60028081905550611743610e64565b15611783576040517f08c379a000000000000000000000000000000000000000000000000000000000815260040161177a906132b9565b60405180910390fd5b42600b5411156117c8576040517f08c379a00000000000000000000000000000000000000000000000000000000081526004016117bf906133fd565b60405180910390fd5b600c54421061180c576040517f08c379a000000000000000000000000000000000000000000000000000000000815260040161180390613469565b60405180910390fd5b6000811161184f576040517f08c379a0000000000000000000000000000000000000000000000000000000008152600401611846906134d5565b60405180910390fd5b60006003600061185d611fb4565b73ffffffffffffffffffffffffffffffffffffffff1673ffffffffffffffffffffffffffffffffffffffff1681526020019081526020016000205410156118d9576040517f08c379a00000000000000000000000000000000000000000000000000000000081526004016118d090613541565b60405180910390fd5b60085481600460006118e9611fb4565b73ffffffffffffffffffffffffffffffffffffffff1673ffffffffffffffffffffffffffffffffffffffff1681526020019081526020016000205461192e9190613561565b101561196f576040517f08c379a000000000000000000000000000000000000000000000000000000000815260040161196690613603565b60405180910390fd5b600954816004600061197f611fb4565b73ffffffffffffffffffffffffffffffffffffffff1673ffffffffffffffffffffffffffffffffffffffff168152602001908152602001600020546119c49190613561565b1115611a05576040517f08c379a00000000000000000000000000000000000000000000000000000000081526004016119fc9061366f565b60405180910390fd5b6000670de0b6b3a764000060065483611a1e919061368f565b611a289190613718565b9050600760009054906101000a900473ffffffffffffffffffffffffffffffffffffffff1673ffffffffffffffffffffffffffffffffffffffff166370a08231611a70611fb4565b6040518263ffffffff1660e01b8152600401611a8c9190612d12565b602060405180830381865afa158015611aa9573d6000803e3d6000fd5b505050506040513d601f19601f82011682018060405250810190611acd9190613108565b811115611b0f576040517f08c379a0000000000000000000000000000000000000000000000000000000008152600401611b0690613795565b60405180910390fd5b8160046000611b1c611fb4565b73ffffffffffffffffffffffffffffffffffffffff1673ffffffffffffffffffffffffffffffffffffffff1681526020019081526020016000206000828254611b659190613561565b9250508190555081600a6000828254611b7e9190613561565b92505081905550611bdb611b90611fb4565b3083600760009054906101000a900473ffffffffffffffffffffffffffffffffffffffff1673ffffffffffffffffffffffffffffffffffffffff166123cf909392919063ffffffff16565b611be3611fb4565b73ffffffffffffffffffffffffffffffffffffffff167fa512fb2532ca8587f236380171326ebb69670e86a2ba0c4412a3fcca4c3ada9b83604051611c289190612bc2565b60405180910390a250600160028190555050565b611c44611fb4565b73ffffffffffffffffffffffffffffffffffffffff16611c62610f0e565b73ffffffffffffffffffffffffffffffffffffffff1614611cb8576040517f08c379a0000000000000000000000000000000000000000000000000000000008152600401611caf90612ffb565b60405180910390fd5b600073ffffffffffffffffffffffffffffffffffffffff168173ffffffffffffffffffffffffffffffffffffffff1603611d27576040517f08c379a0000000000000000000000000000000000000000000000000000000008152600401611d1e90613827565b60405180910390fd5b611d308161230b565b50565b7f97667070c54ef182b0f5858b034beac1b6f3089aa2d3188bb1e8929f4fa9b92981565b611d887f97667070c54ef182b0f5858b034beac1b6f3089aa2d3188bb1e8929f4fa9b929611d83611fb4565b610f37565b611d9157600080fd5b611d99610e64565b15611dd9576040517f08c379a0000000000000000000000000000000000000000000000000000000008152600401611dd0906132b9565b60405180910390fd5b60005b8151811015611fb057600073ffffffffffffffffffffffffffffffffffffffff16828281518110611e1057611e0f613135565b5b60200260200101516000015173ffffffffffffffffffffffffffffffffffffffff1603611e72576040517f08c379a0000000000000000000000000000000000000000000000000000000008152600401611e6990613325565b60405180910390fd5b600060036000848481518110611e8b57611e8a613135565b5b60200260200101516000015173ffffffffffffffffffffffffffffffffffffffff1673ffffffffffffffffffffffffffffffffffffffff168152602001908152602001600020541115611f9d57600060036000848481518110611ef157611ef0613135565b5b60200260200101516000015173ffffffffffffffffffffffffffffffffffffffff1673ffffffffffffffffffffffffffffffffffffffff16815260200190815260200160002081905550818181518110611f4e57611f4d613135565b5b60200260200101516000015173ffffffffffffffffffffffffffffffffffffffff167fde8cf212af7ce38b2840785a2768d97ff2dbf3c21b516961cec0061e134c2a1e60405160405180910390a25b8080611fa890613193565b915050611ddc565b5050565b600033905090565b61203d8363a9059cbb60e01b8484604051602401611fdb929190613847565b604051602081830303815290604052907bffffffffffffffffffffffffffffffffffffffffffffffffffffffff19166020820180517bffffffffffffffffffffffffffffffffffffffffffffffffffffffff8381831617835250505050612458565b505050565b60007f01ffc9a7000000000000000000000000000000000000000000000000000000007bffffffffffffffffffffffffffffffffffffffffffffffffffffffff1916827bffffffffffffffffffffffffffffffffffffffffffffffffffffffff1916149050919050565b6120b68282610f37565b612145576120db8173ffffffffffffffffffffffffffffffffffffffff16601461251f565b6120e98360001c602061251f565b6040516020016120fa929190613982565b6040516020818303038152906040526040517f08c379a000000000000000000000000000000000000000000000000000000000815260040161213c91906139f5565b60405180910390fd5b5050565b6121538282610f37565b61222557600180600084815260200190815260200160002060000160008373ffffffffffffffffffffffffffffffffffffffff1673ffffffffffffffffffffffffffffffffffffffff16815260200190815260200160002060006101000a81548160ff0219169083151502179055506121ca611fb4565b73ffffffffffffffffffffffffffffffffffffffff168173ffffffffffffffffffffffffffffffffffffffff16837f2f8788117e7eff1d82e926ec794901d17c78024a50270940304540a733656f0d60405160405180910390a45b5050565b6122338282610f37565b156123075760006001600084815260200190815260200160002060000160008373ffffffffffffffffffffffffffffffffffffffff1673ffffffffffffffffffffffffffffffffffffffff16815260200190815260200160002060006101000a81548160ff0219169083151502179055506122ac611fb4565b73ffffffffffffffffffffffffffffffffffffffff168173ffffffffffffffffffffffffffffffffffffffff16837ff6391f5c32d9c69d2a47ea670b442974b53935d1edc7fd64eb21e047a839171b60405160405180910390a45b5050565b60008060009054906101000a900473ffffffffffffffffffffffffffffffffffffffff169050816000806101000a81548173ffffffffffffffffffffffffffffffffffffffff021916908373ffffffffffffffffffffffffffffffffffffffff1602179055508173ffffffffffffffffffffffffffffffffffffffff168173ffffffffffffffffffffffffffffffffffffffff167f8be0079c531659141344cd1fd0a4f28419497f9722a3daafe3b4186f6b6457e060405160405180910390a35050565b612452846323b872dd60e01b8585856040516024016123f093929190613a17565b604051602081830303815290604052907bffffffffffffffffffffffffffffffffffffffffffffffffffffffff19166020820180517bffffffffffffffffffffffffffffffffffffffffffffffffffffffff8381831617835250505050612458565b50505050565b60006124ba826040518060400160405280602081526020017f5361666545524332303a206c6f772d6c6576656c2063616c6c206661696c65648152508573ffffffffffffffffffffffffffffffffffffffff1661275b9092919063ffffffff16565b905060008151111561251a57808060200190518101906124da9190613a7a565b612519576040517f08c379a000000000000000000000000000000000000000000000000000000000815260040161251090613b19565b60405180910390fd5b5b505050565b606060006002836002612532919061368f565b61253c9190613561565b67ffffffffffffffff81111561255557612554612d43565b5b6040519080825280601f01601f1916602001820160405280156125875781602001600182028036833780820191505090505b5090507f3000000000000000000000000000000000000000000000000000000000000000816000815181106125bf576125be613135565b5b60200101907effffffffffffffffffffffffffffffffffffffffffffffffffffffffffffff1916908160001a9053507f78000000000000000000000000000000000000000000000000000000000000008160018151811061262357612622613135565b5b60200101907effffffffffffffffffffffffffffffffffffffffffffffffffffffffffffff1916908160001a90535060006001846002612663919061368f565b61266d9190613561565b90505b600181111561270d577f3031323334353637383961626364656600000000000000000000000000000000600f8616601081106126af576126ae613135565b5b1a60f81b8282815181106126c6576126c5613135565b5b60200101907effffffffffffffffffffffffffffffffffffffffffffffffffffffffffffff1916908160001a905350600485901c94508061270690613b39565b9050612670565b5060008414612751576040517f08c379a000000000000000000000000000000000000000000000000000000000815260040161274890613bae565b60405180910390fd5b8091505092915050565b606061276a8484600085612773565b90509392505050565b6060824710156127b8576040517f08c379a00000000000000000000000000000000000000000000000000000000081526004016127af90613c40565b60405180910390fd5b6127c185612887565b612800576040517f08c379a00000000000000000000000000000000000000000000000000000000081526004016127f790613cac565b60405180910390fd5b6000808673ffffffffffffffffffffffffffffffffffffffff1685876040516128299190613d13565b60006040518083038185875af1925050503d8060008114612866576040519150601f19603f3d011682016040523d82523d6000602084013e61286b565b606091505b509150915061287b82828661289a565b92505050949350505050565b600080823b905060008111915050919050565b606083156128aa578290506128fa565b6000835111156128bd5782518084602001fd5b816040517f08c379a00000000000000000000000000000000000000000000000000000000081526004016128f191906139f5565b60405180910390fd5b9392505050565b6040518060400160405280600073ffffffffffffffffffffffffffffffffffffffff168152602001600081525090565b6000604051905090565b600080fd5b600080fd5b600073ffffffffffffffffffffffffffffffffffffffff82169050919050565b600061297082612945565b9050919050565b61298081612965565b811461298b57600080fd5b50565b60008135905061299d81612977565b92915050565b6000602082840312156129b9576129b861293b565b5b60006129c78482850161298e565b91505092915050565b60007fffffffff0000000000000000000000000000000000000000000000000000000082169050919050565b612a05816129d0565b8114612a1057600080fd5b50565b600081359050612a22816129fc565b92915050565b600060208284031215612a3e57612a3d61293b565b5b6000612a4c84828501612a13565b91505092915050565b60008115159050919050565b612a6a81612a55565b82525050565b6000602082019050612a856000830184612a61565b92915050565b600081519050919050565b600082825260208201905092915050565b6000819050602082019050919050565b612ac081612965565b82525050565b6000819050919050565b612ad981612ac6565b82525050565b604082016000820151612af56000850182612ab7565b506020820151612b086020850182612ad0565b50505050565b6000612b1a8383612adf565b60408301905092915050565b6000602082019050919050565b6000612b3e82612a8b565b612b488185612a96565b9350612b5383612aa7565b8060005b83811015612b84578151612b6b8882612b0e565b9750612b7683612b26565b925050600181019050612b57565b5085935050505092915050565b60006020820190508181036000830152612bab8184612b33565b905092915050565b612bbc81612ac6565b82525050565b6000602082019050612bd76000830184612bb3565b92915050565b6000819050919050565b612bf081612bdd565b8114612bfb57600080fd5b50565b600081359050612c0d81612be7565b92915050565b600060208284031215612c2957612c2861293b565b5b6000612c3784828501612bfe565b91505092915050565b612c4981612bdd565b82525050565b6000602082019050612c646000830184612c40565b92915050565b60008060408385031215612c8157612c8061293b565b5b6000612c8f85828601612bfe565b9250506020612ca08582860161298e565b9150509250929050565b612cb381612ac6565b8114612cbe57600080fd5b50565b600081359050612cd081612caa565b92915050565b600060208284031215612cec57612ceb61293b565b5b6000612cfa84828501612cc1565b91505092915050565b612d0c81612965565b82525050565b6000602082019050612d276000830184612d03565b92915050565b600080fd5b6000601f19601f8301169050919050565b7f4e487b7100000000000000000000000000000000000000000000000000000000600052604160045260246000fd5b612d7b82612d32565b810181811067ffffffffffffffff82111715612d9a57612d99612d43565b5b80604052505050565b6000612dad612931565b9050612db98282612d72565b919050565b600067ffffffffffffffff821115612dd957612dd8612d43565b5b602082029050602081019050919050565b600080fd5b600080fd5b600060408284031215612e0a57612e09612def565b5b612e146040612da3565b90506000612e248482850161298e565b6000830152506020612e3884828501612cc1565b60208301525092915050565b6000612e57612e5284612dbe565b612da3565b90508083825260208201905060408402830185811115612e7a57612e79612dea565b5b835b81811015612ea35780612e8f8882612df4565b845260208401935050604081019050612e7c565b5050509392505050565b600082601f830112612ec257612ec1612d2d565b5b8135612ed2848260208601612e44565b91505092915050565b600060208284031215612ef157612ef061293b565b5b600082013567ffffffffffffffff811115612f0f57612f0e612940565b5b612f1b84828501612ead565b91505092915050565b6000819050919050565b6000612f49612f44612f3f84612945565b612f24565b612945565b9050919050565b6000612f5b82612f2e565b9050919050565b6000612f6d82612f50565b9050919050565b612f7d81612f62565b82525050565b6000602082019050612f986000830184612f74565b92915050565b600082825260208201905092915050565b7f4f776e61626c653a2063616c6c6572206973206e6f7420746865206f776e6572600082015250565b6000612fe5602083612f9e565b9150612ff082612faf565b602082019050919050565b6000602082019050818103600083015261301481612fd8565b9050919050565b7f414444524553535f494e56414c49440000000000000000000000000000000000600082015250565b6000613051600f83612f9e565b915061305c8261301b565b602082019050919050565b6000602082019050818103600083015261308081613044565b9050919050565b7f53414c455f4e4f545f454e444544000000000000000000000000000000000000600082015250565b60006130bd600e83612f9e565b91506130c882613087565b602082019050919050565b600060208201905081810360008301526130ec816130b0565b9050919050565b60008151905061310281612caa565b92915050565b60006020828403121561311e5761311d61293b565b5b600061312c848285016130f3565b91505092915050565b7f4e487b7100000000000000000000000000000000000000000000000000000000600052603260045260246000fd5b7f4e487b7100000000000000000000000000000000000000000000000000000000600052601160045260246000fd5b600061319e82612ac6565b91507fffffffffffffffffffffffffffffffffffffffffffffffffffffffffffffffff82036131d0576131cf613164565b5b600182019050919050565b7f416363657373436f6e74726f6c3a2063616e206f6e6c792072656e6f756e636560008201527f20726f6c657320666f722073656c660000000000000000000000000000000000602082015250565b6000613237602f83612f9e565b9150613242826131db565b604082019050919050565b600060208201905081810360008301526132668161322a565b9050919050565b7f5061757361626c653a2070617573656400000000000000000000000000000000600082015250565b60006132a3601083612f9e565b91506132ae8261326d565b602082019050919050565b600060208201905081810360008301526132d281613296565b9050919050565b7f5a45524f5f414444524553530000000000000000000000000000000000000000600082015250565b600061330f600c83612f9e565b915061331a826132d9565b602082019050919050565b6000602082019050818103600083015261333e81613302565b9050919050565b7f5265656e7472616e637947756172643a207265656e7472616e742063616c6c00600082015250565b600061337b601f83612f9e565b915061338682613345565b602082019050919050565b600060208201905081810360008301526133aa8161336e565b9050919050565b7f53414c455f4e4f545f5354415254454400000000000000000000000000000000600082015250565b60006133e7601083612f9e565b91506133f2826133b1565b602082019050919050565b60006020820190508181036000830152613416816133da565b9050919050565b7f53414c455f414c52454144595f454e4445440000000000000000000000000000600082015250565b6000613453601283612f9e565b915061345e8261341d565b602082019050919050565b6000602082019050818103600083015261348281613446565b9050919050565b7f50555243484153455f414d4f554e545f494e56414c4944000000000000000000600082015250565b60006134bf601783612f9e565b91506134ca82613489565b602082019050919050565b600060208201905081810360008301526134ee816134b2565b9050919050565b7f43414c4c45525f4e4f5f57484954454c49535400000000000000000000000000600082015250565b600061352b601383612f9e565b9150613536826134f5565b602082019050919050565b6000602082019050818103600083015261355a8161351e565b9050919050565b600061356c82612ac6565b915061357783612ac6565b9250827fffffffffffffffffffffffffffffffffffffffffffffffffffffffffffffffff038211156135ac576135ab613164565b5b828201905092915050565b7f50555243484153455f4d494e5f4341505f455843454544454400000000000000600082015250565b60006135ed601983612f9e565b91506135f8826135b7565b602082019050919050565b6000602082019050818103600083015261361c816135e0565b9050919050565b7f50555243484153455f4d41585f4341505f455843454544454400000000000000600082015250565b6000613659601983612f9e565b915061366482613623565b602082019050919050565b600060208201905081810360008301526136888161364c565b9050919050565b600061369a82612ac6565b91506136a583612ac6565b9250817fffffffffffffffffffffffffffffffffffffffffffffffffffffffffffffffff04831182151516156136de576136dd613164565b5b828202905092915050565b7f4e487b7100000000000000000000000000000000000000000000000000000000600052601260045260246000fd5b600061372382612ac6565b915061372e83612ac6565b92508261373e5761373d6136e9565b5b828204905092915050565b7f494e53554646494349454e545f46554e44530000000000000000000000000000600082015250565b600061377f601283612f9e565b915061378a82613749565b602082019050919050565b600060208201905081810360008301526137ae81613772565b9050919050565b7f4f776e61626c653a206e6577206f776e657220697320746865207a65726f206160008201527f6464726573730000000000000000000000000000000000000000000000000000602082015250565b6000613811602683612f9e565b915061381c826137b5565b604082019050919050565b6000602082019050818103600083015261384081613804565b9050919050565b600060408201905061385c6000830185612d03565b6138696020830184612bb3565b9392505050565b600081905092915050565b7f416363657373436f6e74726f6c3a206163636f756e7420000000000000000000600082015250565b60006138b1601783613870565b91506138bc8261387b565b601782019050919050565b600081519050919050565b60005b838110156138f05780820151818401526020810190506138d5565b838111156138ff576000848401525b50505050565b6000613910826138c7565b61391a8185613870565b935061392a8185602086016138d2565b80840191505092915050565b7f206973206d697373696e6720726f6c6520000000000000000000000000000000600082015250565b600061396c601183613870565b915061397782613936565b601182019050919050565b600061398d826138a4565b91506139998285613905565b91506139a48261395f565b91506139b08284613905565b91508190509392505050565b60006139c7826138c7565b6139d18185612f9e565b93506139e18185602086016138d2565b6139ea81612d32565b840191505092915050565b60006020820190508181036000830152613a0f81846139bc565b905092915050565b6000606082019050613a2c6000830186612d03565b613a396020830185612d03565b613a466040830184612bb3565b949350505050565b613a5781612a55565b8114613a6257600080fd5b50565b600081519050613a7481613a4e565b92915050565b600060208284031215613a9057613a8f61293b565b5b6000613a9e84828501613a65565b91505092915050565b7f5361666545524332303a204552433230206f7065726174696f6e20646964206e60008201527f6f74207375636365656400000000000000000000000000000000000000000000602082015250565b6000613b03602a83612f9e565b9150613b0e82613aa7565b604082019050919050565b60006020820190508181036000830152613b3281613af6565b9050919050565b6000613b4482612ac6565b915060008203613b5757613b56613164565b5b600182039050919050565b7f537472696e67733a20686578206c656e67746820696e73756666696369656e74600082015250565b6000613b98602083612f9e565b9150613ba382613b62565b602082019050919050565b60006020820190508181036000830152613bc781613b8b565b9050919050565b7f416464726573733a20696e73756666696369656e742062616c616e636520666f60008201527f722063616c6c0000000000000000000000000000000000000000000000000000602082015250565b6000613c2a602683612f9e565b9150613c3582613bce565b604082019050919050565b60006020820190508181036000830152613c5981613c1d565b9050919050565b7f416464726573733a2063616c6c20746f206e6f6e2d636f6e7472616374000000600082015250565b6000613c96601d83612f9e565b9150613ca182613c60565b602082019050919050565b60006020820190508181036000830152613cc581613c89565b9050919050565b600081519050919050565b600081905092915050565b6000613ced82613ccc565b613cf78185613cd7565b9350613d078185602086016138d2565b80840191505092915050565b6000613d1f8284613ce2565b91508190509291505056fea2646970667358221220b7745f3ec27441c4ab4da9db813e618c6c5354e442fdafd8b9ef34c5615e722c64736f6c634300080d0033",
  "immutableReferences": {},
  "source": "// SPDX-License-Identifier: MIT\r\npragma solidity 0.8.13;\r\n\r\nimport \"@openzeppelin/contracts/token/ERC20/IERC20.sol\";\r\nimport \"@openzeppelin/contracts/token/ERC20/utils/SafeERC20.sol\";\r\nimport \"@openzeppelin/contracts/security/Pausable.sol\";\r\nimport \"@openzeppelin/contracts/security/ReentrancyGuard.sol\";\r\nimport \"@openzeppelin/contracts/access/Ownable.sol\";\r\nimport \"@openzeppelin/contracts/access/AccessControl.sol\";\r\n\r\n/**\r\n * Users can purchase NFTs after sale started and claim after sale ended\r\n */\r\n\r\ncontract INOSale is Ownable, Pausable, AccessControl,  ReentrancyGuard {\r\n    using SafeERC20 for IERC20;\r\n\r\n    bytes32 public constant OPERATOR_ROLE = keccak256(\"OPERATOR_ROLE\");\r\n    // user address => amounts\r\n    mapping(address => uint256) private whitelist;\r\n    // user address => purchased token amount\r\n    mapping(address => uint256) private purchasedAmounts;\r\n    // Once-whitelisted user address array, even removed users still remain\r\n    address[] private _whitelistedUsers;\r\n    // IDO token price\r\n    uint256 public idoPrice;\r\n    // USDT address\r\n    IERC20 public purchaseToken;\r\n    // The min cap amount each user can purchase IDO up to\r\n    uint256 public purchaseMinCap;\r\n    // The max cap amount each user can purchase IDO up to\r\n    uint256 public purchaseMaxCap;\r\n    // The total purchased amount\r\n    uint256 public totalPurchasedAmount;\r\n    // Date timestamp when token sale start\r\n    uint256 public startTime;\r\n    // Date timestamp when token sale ends\r\n    uint256 public endTime;\r\n\r\n    // Used for returning purchase history\r\n    struct Purchase {\r\n        address account;\r\n        uint256 amount;\r\n    }\r\n\r\n    event IdoPriceChanged(uint256 idoPrice);\r\n    event PurchaseMinCapChanged(uint256 purchaseMinCap);\r\n    event PurchaseMaxCapChanged(uint256 purchaseMaxCap);\r\n    event WhitelistAdded(address indexed account);\r\n    event WhitelistRemoved(address indexed account);\r\n    event Purchased(address indexed sender, uint256 amount);\r\n    event Swept(address indexed sender, uint256 amount);\r\n    event IdoStartTimeChanged(uint256 startTime);\r\n    event IdoEndTimeChanged(uint256 endTime);\r\n\r\n    constructor(\r\n        IERC20 _purchaseToken,\r\n        uint256 _idoPrice,\r\n        uint256 _purchaseMinCap,\r\n        uint256 _purchaseMaxCap,\r\n        uint256 _startTime,\r\n        uint256 _endTime\r\n    ) {\r\n        require(address(_purchaseToken) != address(0), \"PURCHASE_TOKEN_ADDRESS_INVALID\");\r\n        require(_idoPrice > 0, \"TOKEN_PRICE_INVALID\");\r\n        require(_purchaseMinCap > 0, \"PURCHASE_MIN_CAP_INVALID\");\r\n        require(_purchaseMaxCap > 0, \"PURCHASE_MAX_CAP_INVALID\");\r\n        require(block.timestamp <= _startTime && _startTime < _endTime, \"TIMESTAMP_INVALID\");\r\n\r\n        _setupRole(DEFAULT_ADMIN_ROLE, _msgSender());\r\n        _setupRole(OPERATOR_ROLE, _msgSender());\r\n\r\n        purchaseToken = _purchaseToken;\r\n        idoPrice = _idoPrice;\r\n        purchaseMinCap = _purchaseMinCap;\r\n        purchaseMaxCap = _purchaseMaxCap;\r\n        startTime = _startTime;\r\n        endTime = _endTime;\r\n    }\r\n\r\n    modifier onlyOperator(){\r\n        require(hasRole(OPERATOR_ROLE, _msgSender()));\r\n        _;\r\n    }\r\n    /**************************|\r\n    |          Getters         |\r\n    |_________________________*/\r\n    function getWhitelistedAmount(address account) public view onlyOperator returns (uint256) {\r\n        return whitelist[account];\r\n    } \r\n    function getPurchasedAmount(address account) public view onlyOperator returns (uint256) {\r\n        return purchasedAmounts[account];\r\n    }\r\n\r\n    /**************************|\r\n    |          Setters         |\r\n    |_________________________*/\r\n\r\n    /**\r\n     * @dev Set ido token price in purchaseToken\r\n     */\r\n    function setIdoPrice(uint256 _idoPrice) external onlyOwner {\r\n        idoPrice = _idoPrice;\r\n\r\n        emit IdoPriceChanged(_idoPrice);\r\n    }\r\n\r\n    /**\r\n     * @dev Set ido start time\r\n     */\r\n    function setStartTime(uint256 _startTime) external onlyOwner {\r\n        startTime = _startTime;\r\n\r\n        emit IdoStartTimeChanged(_startTime);\r\n    }\r\n\r\n        /**\r\n     * @dev Set ido start time\r\n     */\r\n    function setEndTime(uint256 _endTime) external onlyOwner {\r\n        endTime = _endTime;\r\n\r\n        emit IdoEndTimeChanged(_endTime);\r\n    }\r\n\r\n    /**\r\n     * @dev Set purchase cap for each user\r\n     */\r\n    function setPurchaseMinCap(uint256 _purchaseMinCap) external onlyOwner {\r\n        purchaseMinCap = _purchaseMinCap;\r\n\r\n        emit PurchaseMinCapChanged(_purchaseMinCap);\r\n    }\r\n\r\n    /**\r\n     * @dev Set purchase cap for each user\r\n     */\r\n    function setPurchaseMaxCap(uint256 _purchaseMaxCap) external onlyOwner {\r\n        purchaseMaxCap = _purchaseMaxCap;\r\n\r\n        emit PurchaseMaxCapChanged(_purchaseMaxCap);\r\n    }\r\n\r\n\r\n    /****************************|\r\n    |          Whitelist         |\r\n    |___________________________*/\r\n\r\n    /**\r\n     * @dev Return whitelisted users\r\n     * The result array can include zero address\r\n     */\r\n    function whitelistedUsers() external view returns (Purchase[] memory) {\r\n       Purchase[] memory __whitelistedUsers = new Purchase[](_whitelistedUsers.length);\r\n        for (uint256 i = 0; i < _whitelistedUsers.length; i++) {\r\n            if (whitelist[_whitelistedUsers[i]] == 0) {\r\n                continue;\r\n            }\r\n            __whitelistedUsers[i].account = _whitelistedUsers[i];\r\n            __whitelistedUsers[i].amount = whitelist[_whitelistedUsers[i]];\r\n        }\r\n\r\n        return __whitelistedUsers;\r\n    }\r\n\r\n    /**\r\n     * @dev Add wallet to whitelist\r\n     * If wallet is added, removed and added to whitelist, the account is repeated\r\n     */\r\n\r\n    function addWhitelist(Purchase[] memory _accounts) external onlyOperator whenNotPaused {\r\n        for (uint256 i = 0; i < _accounts.length; i++) {\r\n            require(_accounts[i].account != address(0), \"ZERO_ADDRESS\");\r\n            if (whitelist[_accounts[i].account] == 0) {\r\n                whitelist[_accounts[i].account] = _accounts[i].amount;\r\n                _whitelistedUsers.push(_accounts[i].account);\r\n                emit WhitelistAdded(_accounts[i].account);\r\n            }          \r\n        }\r\n    }\r\n\r\n    /**\r\n     * @dev Remove wallet from whitelist\r\n     * Removed wallets still remain in `_whitelistedUsers` array\r\n     */\r\n    function removeWhitelist(Purchase[] memory _accounts) external onlyOperator whenNotPaused {\r\n        for (uint256 i = 0; i < _accounts.length; i++) {\r\n            require(_accounts[i].account != address(0), \"ZERO_ADDRESS\");\r\n            if (whitelist[_accounts[i].account]>0) {\r\n                whitelist[_accounts[i].account] = 0;\r\n\r\n                emit WhitelistRemoved(_accounts[i].account);\r\n            }         \r\n        }\r\n    }\r\n\r\n    /***************************|\r\n    |          Purchase         |\r\n    |__________________________*/\r\n\r\n    /**\r\n     * @dev Return purchase history (wallet address, amount)\r\n     * The result array can include zero amount item\r\n     */\r\n    function purchaseHistory() external view returns (Purchase[] memory) {\r\n        Purchase[] memory purchases = new Purchase[](_whitelistedUsers.length);\r\n        for (uint256 i = 0; i < _whitelistedUsers.length; i++) {\r\n            purchases[i].account = _whitelistedUsers[i];\r\n            purchases[i].amount = purchasedAmounts[_whitelistedUsers[i]];\r\n        }\r\n\r\n        return purchases;\r\n    }\r\n\r\n    /**\r\n     * @dev Purchase IDO token\r\n     * Only whitelisted users can purchase within `purchcaseCap` amount\r\n     */\r\n    function purchase(uint256 amount) external nonReentrant whenNotPaused {\r\n        require(startTime <= block.timestamp, \"SALE_NOT_STARTED\");\r\n        require(block.timestamp < endTime, \"SALE_ALREADY_ENDED\");\r\n        require(amount > 0, \"PURCHASE_AMOUNT_INVALID\");\r\n        require(whitelist[_msgSender()]>=0, \"CALLER_NO_WHITELIST\");\r\n        require(purchasedAmounts[_msgSender()] + amount >= purchaseMinCap, \"PURCHASE_MIN_CAP_EXCEEDED\");\r\n        require(purchasedAmounts[_msgSender()] + amount <= purchaseMaxCap, \"PURCHASE_MAX_CAP_EXCEEDED\");\r\n        uint256 purchaseTokenAmount = amount * idoPrice / (10 ** 18);\r\n        require(purchaseTokenAmount <= purchaseToken.balanceOf(_msgSender()), \"INSUFFICIENT_FUNDS\");\r\n\r\n        purchasedAmounts[_msgSender()] += amount;\r\n        totalPurchasedAmount += amount;\r\n        purchaseToken.safeTransferFrom(_msgSender(), address(this), purchaseTokenAmount);\r\n\r\n        emit Purchased(_msgSender(), amount);\r\n    }\r\n\r\n    /**\r\n     * @dev `Operator` sweeps `purchaseToken` from the sale contract to `to` address\r\n     */\r\n    function sweep(address to) external onlyOwner {\r\n        require(to != address(0), \"ADDRESS_INVALID\");\r\n        require(endTime <= block.timestamp, \"SALE_NOT_ENDED\");\r\n        uint256 bal = purchaseToken.balanceOf(address(this));\r\n        purchaseToken.safeTransfer(to, bal);\r\n\r\n        emit Swept(to, bal);\r\n    }\r\n}",
  "sourcePath": "C:\\Users\\Cemil\\Documents\\GitHub\\dAngelContracts\\contracts\\InoSale.sol",
  "compiler": {
    "name": "solc",
    "version": "0.8.13+commit.abaa5c0e.Emscripten.clang"
  },
  "schemaVersion": "3.4.6",
  "updatedAt": "2022-04-05T16:38:00.422Z",
  "devdoc": {
    "kind": "dev",
    "methods": {
      "addWhitelist((address,uint256)[])": {
        "details": "Add wallet to whitelist If wallet is added, removed and added to whitelist, the account is repeated"
      },
      "getRoleAdmin(bytes32)": {
        "details": "Returns the admin role that controls `role`. See {grantRole} and {revokeRole}. To change a role's admin, use {_setRoleAdmin}."
      },
      "grantRole(bytes32,address)": {
        "details": "Grants `role` to `account`. If `account` had not been already granted `role`, emits a {RoleGranted} event. Requirements: - the caller must have ``role``'s admin role."
      },
      "hasRole(bytes32,address)": {
        "details": "Returns `true` if `account` has been granted `role`."
      },
      "owner()": {
        "details": "Returns the address of the current owner."
      },
      "paused()": {
        "details": "Returns true if the contract is paused, and false otherwise."
      },
      "purchase(uint256)": {
        "details": "Purchase IDO token Only whitelisted users can purchase within `purchcaseCap` amount"
      },
      "purchaseHistory()": {
        "details": "Return purchase history (wallet address, amount) The result array can include zero amount item"
      },
      "removeWhitelist((address,uint256)[])": {
        "details": "Remove wallet from whitelist Removed wallets still remain in `_whitelistedUsers` array"
      },
      "renounceOwnership()": {
        "details": "Leaves the contract without owner. It will not be possible to call `onlyOwner` functions anymore. Can only be called by the current owner. NOTE: Renouncing ownership will leave the contract without an owner, thereby removing any functionality that is only available to the owner."
      },
      "renounceRole(bytes32,address)": {
        "details": "Revokes `role` from the calling account. Roles are often managed via {grantRole} and {revokeRole}: this function's purpose is to provide a mechanism for accounts to lose their privileges if they are compromised (such as when a trusted device is misplaced). If the calling account had been revoked `role`, emits a {RoleRevoked} event. Requirements: - the caller must be `account`."
      },
      "revokeRole(bytes32,address)": {
        "details": "Revokes `role` from `account`. If `account` had been granted `role`, emits a {RoleRevoked} event. Requirements: - the caller must have ``role``'s admin role."
      },
      "setEndTime(uint256)": {
        "details": "Set ido start time"
      },
      "setIdoPrice(uint256)": {
        "details": "Set ido token price in purchaseToken"
      },
      "setPurchaseMaxCap(uint256)": {
        "details": "Set purchase cap for each user"
      },
      "setPurchaseMinCap(uint256)": {
        "details": "Set purchase cap for each user"
      },
      "setStartTime(uint256)": {
        "details": "Set ido start time"
      },
      "supportsInterface(bytes4)": {
        "details": "See {IERC165-supportsInterface}."
      },
      "sweep(address)": {
        "details": "`Operator` sweeps `purchaseToken` from the sale contract to `to` address"
      },
      "transferOwnership(address)": {
        "details": "Transfers ownership of the contract to a new account (`newOwner`). Can only be called by the current owner."
      },
      "whitelistedUsers()": {
        "details": "Return whitelisted users The result array can include zero address"
      }
    },
    "version": 1
  },
  "userdoc": {
    "kind": "user",
    "methods": {},
    "notice": "Users can purchase NFTs after sale started and claim after sale ended",
    "version": 1
  }
}