{
  "contractName": "Staking",
  "abi": [
    {
      "inputs": [
        {
          "internalType": "address",
          "name": "_token",
          "type": "address"
        }
      ],
      "stateMutability": "nonpayable",
      "type": "constructor"
    },
    {
      "anonymous": false,
      "inputs": [
        {
          "indexed": true,
          "internalType": "address",
          "name": "previousOwner",
          "type": "address"
        },
        {
          "indexed": true,
          "internalType": "address",
          "name": "newOwner",
          "type": "address"
        }
      ],
      "name": "OwnershipTransferred",
      "type": "event"
    },
    {
      "anonymous": false,
      "inputs": [
        {
          "indexed": true,
          "internalType": "bytes32",
          "name": "role",
          "type": "bytes32"
        },
        {
          "indexed": true,
          "internalType": "bytes32",
          "name": "previousAdminRole",
          "type": "bytes32"
        },
        {
          "indexed": true,
          "internalType": "bytes32",
          "name": "newAdminRole",
          "type": "bytes32"
        }
      ],
      "name": "RoleAdminChanged",
      "type": "event"
    },
    {
      "anonymous": false,
      "inputs": [
        {
          "indexed": true,
          "internalType": "bytes32",
          "name": "role",
          "type": "bytes32"
        },
        {
          "indexed": true,
          "internalType": "address",
          "name": "account",
          "type": "address"
        },
        {
          "indexed": true,
          "internalType": "address",
          "name": "sender",
          "type": "address"
        }
      ],
      "name": "RoleGranted",
      "type": "event"
    },
    {
      "anonymous": false,
      "inputs": [
        {
          "indexed": true,
          "internalType": "bytes32",
          "name": "role",
          "type": "bytes32"
        },
        {
          "indexed": true,
          "internalType": "address",
          "name": "account",
          "type": "address"
        },
        {
          "indexed": true,
          "internalType": "address",
          "name": "sender",
          "type": "address"
        }
      ],
      "name": "RoleRevoked",
      "type": "event"
    },
    {
      "anonymous": false,
      "inputs": [
        {
          "indexed": false,
          "internalType": "address",
          "name": "from",
          "type": "address"
        },
        {
          "indexed": false,
          "internalType": "uint256",
          "name": "amount",
          "type": "uint256"
        },
        {
          "indexed": false,
          "internalType": "uint256",
          "name": "time",
          "type": "uint256"
        }
      ],
      "name": "Staked",
      "type": "event"
    },
    {
      "anonymous": false,
      "inputs": [
        {
          "indexed": false,
          "internalType": "address",
          "name": "from",
          "type": "address"
        },
        {
          "indexed": false,
          "internalType": "uint256",
          "name": "amount",
          "type": "uint256"
        },
        {
          "indexed": false,
          "internalType": "uint256",
          "name": "time",
          "type": "uint256"
        }
      ],
      "name": "Unstaked",
      "type": "event"
    },
    {
      "inputs": [],
      "name": "DEFAULT_ADMIN_ROLE",
      "outputs": [
        {
          "internalType": "bytes32",
          "name": "",
          "type": "bytes32"
        }
      ],
      "stateMutability": "view",
      "type": "function"
    },
    {
      "inputs": [],
      "name": "OPERATOR_ROLE",
      "outputs": [
        {
          "internalType": "bytes32",
          "name": "",
          "type": "bytes32"
        }
      ],
      "stateMutability": "view",
      "type": "function"
    },
    {
      "inputs": [
        {
          "internalType": "bytes32",
          "name": "role",
          "type": "bytes32"
        }
      ],
      "name": "getRoleAdmin",
      "outputs": [
        {
          "internalType": "bytes32",
          "name": "",
          "type": "bytes32"
        }
      ],
      "stateMutability": "view",
      "type": "function"
    },
    {
      "inputs": [
        {
          "internalType": "bytes32",
          "name": "role",
          "type": "bytes32"
        },
        {
          "internalType": "address",
          "name": "account",
          "type": "address"
        }
      ],
      "name": "grantRole",
      "outputs": [],
      "stateMutability": "nonpayable",
      "type": "function"
    },
    {
      "inputs": [
        {
          "internalType": "bytes32",
          "name": "role",
          "type": "bytes32"
        },
        {
          "internalType": "address",
          "name": "account",
          "type": "address"
        }
      ],
      "name": "hasRole",
      "outputs": [
        {
          "internalType": "bool",
          "name": "",
          "type": "bool"
        }
      ],
      "stateMutability": "view",
      "type": "function"
    },
    {
      "inputs": [],
      "name": "lockDuration",
      "outputs": [
        {
          "internalType": "uint256",
          "name": "",
          "type": "uint256"
        }
      ],
      "stateMutability": "view",
      "type": "function"
    },
    {
      "inputs": [],
      "name": "owner",
      "outputs": [
        {
          "internalType": "address",
          "name": "",
          "type": "address"
        }
      ],
      "stateMutability": "view",
      "type": "function"
    },
    {
      "inputs": [],
      "name": "renounceOwnership",
      "outputs": [],
      "stateMutability": "nonpayable",
      "type": "function"
    },
    {
      "inputs": [
        {
          "internalType": "bytes32",
          "name": "role",
          "type": "bytes32"
        },
        {
          "internalType": "address",
          "name": "account",
          "type": "address"
        }
      ],
      "name": "renounceRole",
      "outputs": [],
      "stateMutability": "nonpayable",
      "type": "function"
    },
    {
      "inputs": [
        {
          "internalType": "bytes32",
          "name": "role",
          "type": "bytes32"
        },
        {
          "internalType": "address",
          "name": "account",
          "type": "address"
        }
      ],
      "name": "revokeRole",
      "outputs": [],
      "stateMutability": "nonpayable",
      "type": "function"
    },
    {
      "inputs": [
        {
          "internalType": "bytes4",
          "name": "interfaceId",
          "type": "bytes4"
        }
      ],
      "name": "supportsInterface",
      "outputs": [
        {
          "internalType": "bool",
          "name": "",
          "type": "bool"
        }
      ],
      "stateMutability": "view",
      "type": "function"
    },
    {
      "inputs": [],
      "name": "token",
      "outputs": [
        {
          "internalType": "contract IERC20",
          "name": "",
          "type": "address"
        }
      ],
      "stateMutability": "view",
      "type": "function"
    },
    {
      "inputs": [],
      "name": "totalStaked",
      "outputs": [
        {
          "internalType": "uint256",
          "name": "",
          "type": "uint256"
        }
      ],
      "stateMutability": "view",
      "type": "function"
    },
    {
      "inputs": [
        {
          "internalType": "address",
          "name": "newOwner",
          "type": "address"
        }
      ],
      "name": "transferOwnership",
      "outputs": [],
      "stateMutability": "nonpayable",
      "type": "function"
    },
    {
      "inputs": [
        {
          "internalType": "address",
          "name": "account",
          "type": "address"
        }
      ],
      "name": "getStakeAmount",
      "outputs": [
        {
          "internalType": "uint256",
          "name": "",
          "type": "uint256"
        }
      ],
      "stateMutability": "view",
      "type": "function"
    },
    {
      "inputs": [
        {
          "internalType": "uint256",
          "name": "amount",
          "type": "uint256"
        }
      ],
      "name": "stake",
      "outputs": [],
      "stateMutability": "nonpayable",
      "type": "function"
    },
    {
      "inputs": [
        {
          "internalType": "uint256",
          "name": "amount",
          "type": "uint256"
        }
      ],
      "name": "withdraw",
      "outputs": [],
      "stateMutability": "nonpayable",
      "type": "function"
    },
    {
      "inputs": [
        {
          "internalType": "uint256",
          "name": "_lockDuration",
          "type": "uint256"
        }
      ],
      "name": "setLockDuration",
      "outputs": [],
      "stateMutability": "nonpayable",
      "type": "function"
    }
  ],
  "bytecode": "0x608060405261d2f06005553480156200001757600080fd5b50604051620027623803806200276283398181016040528101906200003d919062000424565b6200005d620000516200017c60201b60201c565b6200018460201b60201c565b600073ffffffffffffffffffffffffffffffffffffffff168173ffffffffffffffffffffffffffffffffffffffff1603620000cf576040517f08c379a0000000000000000000000000000000000000000000000000000000008152600401620000c690620004b7565b60405180910390fd5b80600360006101000a81548173ffffffffffffffffffffffffffffffffffffffff021916908373ffffffffffffffffffffffffffffffffffffffff160217905550620001346000801b620001286200017c60201b60201c565b6200024860201b60201c565b620001757f97667070c54ef182b0f5858b034beac1b6f3089aa2d3188bb1e8929f4fa9b929620001696200017c60201b60201c565b6200024860201b60201c565b50620004d9565b600033905090565b60008060009054906101000a900473ffffffffffffffffffffffffffffffffffffffff169050816000806101000a81548173ffffffffffffffffffffffffffffffffffffffff021916908373ffffffffffffffffffffffffffffffffffffffff1602179055508173ffffffffffffffffffffffffffffffffffffffff168173ffffffffffffffffffffffffffffffffffffffff167f8be0079c531659141344cd1fd0a4f28419497f9722a3daafe3b4186f6b6457e060405160405180910390a35050565b6200025a82826200025e60201b60201c565b5050565b6200027082826200034f60201b60201c565b6200034b57600180600084815260200190815260200160002060000160008373ffffffffffffffffffffffffffffffffffffffff1673ffffffffffffffffffffffffffffffffffffffff16815260200190815260200160002060006101000a81548160ff021916908315150217905550620002f06200017c60201b60201c565b73ffffffffffffffffffffffffffffffffffffffff168173ffffffffffffffffffffffffffffffffffffffff16837f2f8788117e7eff1d82e926ec794901d17c78024a50270940304540a733656f0d60405160405180910390a45b5050565b60006001600084815260200190815260200160002060000160008373ffffffffffffffffffffffffffffffffffffffff1673ffffffffffffffffffffffffffffffffffffffff16815260200190815260200160002060009054906101000a900460ff16905092915050565b600080fd5b600073ffffffffffffffffffffffffffffffffffffffff82169050919050565b6000620003ec82620003bf565b9050919050565b620003fe81620003df565b81146200040a57600080fd5b50565b6000815190506200041e81620003f3565b92915050565b6000602082840312156200043d576200043c620003ba565b5b60006200044d848285016200040d565b91505092915050565b600082825260208201905092915050565b7f5a45524f5f414452455353000000000000000000000000000000000000000000600082015250565b60006200049f600b8362000456565b9150620004ac8262000467565b602082019050919050565b60006020820190508181036000830152620004d28162000490565b9050919050565b61227980620004e96000396000f3fe608060405234801561001057600080fd5b50600436106101165760003560e01c8063817b1cd2116100a2578063a694fc3a11610071578063a694fc3a146102cd578063d547741f146102e9578063f2fde38b14610305578063f5b541a614610321578063fc0c546a1461033f57610116565b8063817b1cd2146102435780638da5cb5b1461026157806391d148541461027f578063a217fddf146102af57610116565b80632e1a7d4d116100e95780632e1a7d4d146101c95780632f2ff15d146101e557806336568abe146102015780634eb665af1461021d578063715018a61461023957610116565b806301ffc9a71461011b578063045544431461014b5780630c2eb40314610169578063248a9ca314610199575b600080fd5b61013560048036038101906101309190611544565b61035d565b604051610142919061158c565b60405180910390f35b6101536103d7565b60405161016091906115c0565b60405180910390f35b610183600480360381019061017e9190611639565b6103dd565b60405161019091906115c0565b60405180910390f35b6101b360048036038101906101ae919061169c565b610429565b6040516101c091906116d8565b60405180910390f35b6101e360048036038101906101de919061171f565b610449565b005b6101ff60048036038101906101fa919061174c565b610649565b005b61021b6004803603810190610216919061174c565b610672565b005b6102376004803603810190610232919061171f565b6106f5565b005b610241610732565b005b61024b6107ba565b60405161025891906115c0565b60405180910390f35b6102696107c0565b604051610276919061179b565b60405180910390f35b6102996004803603810190610294919061174c565b6107e9565b6040516102a6919061158c565b60405180910390f35b6102b7610854565b6040516102c491906116d8565b60405180910390f35b6102e760048036038101906102e2919061171f565b61085b565b005b61030360048036038101906102fe919061174c565b610a30565b005b61031f600480360381019061031a9190611639565b610a59565b005b610329610b50565b60405161033691906116d8565b60405180910390f35b610347610b74565b6040516103549190611815565b60405180910390f35b60007f7965db0b000000000000000000000000000000000000000000000000000000007bffffffffffffffffffffffffffffffffffffffffffffffffffffffff1916827bffffffffffffffffffffffffffffffffffffffffffffffffffffffff191614806103d057506103cf82610b9a565b5b9050919050565b60055481565b6000600260008373ffffffffffffffffffffffffffffffffffffffff1673ffffffffffffffffffffffffffffffffffffffff168152602001908152602001600020600001549050919050565b600060016000838152602001908152602001600020600101549050919050565b6000811161048c576040517f08c379a00000000000000000000000000000000000000000000000000000000081526004016104839061188d565b60405180910390fd5b6000600260003373ffffffffffffffffffffffffffffffffffffffff1673ffffffffffffffffffffffffffffffffffffffff16815260200190815260200160002090508060020160009054906101000a900460ff16610520576040517f08c379a0000000000000000000000000000000000000000000000000000000008152600401610517906118f9565b60405180910390fd5b8060010154421015610567576040517f08c379a000000000000000000000000000000000000000000000000000000000815260040161055e90611965565b60405180910390fd5b81816000015461057791906119b4565b81600001819055508160045461058d91906119b4565b60048190555060008160000154036105bd5760008160020160006101000a81548160ff0219169083151502179055505b61060a3383600360009054906101000a900473ffffffffffffffffffffffffffffffffffffffff1673ffffffffffffffffffffffffffffffffffffffff16610c049092919063ffffffff16565b7f7fc4727e062e336010f2c282598ef5f14facb3de68cf8195c2f23e1454b2b74e33834260405161063d939291906119e8565b60405180910390a15050565b61065282610429565b6106638161065e610c8a565b610c92565b61066d8383610d2f565b505050565b61067a610c8a565b73ffffffffffffffffffffffffffffffffffffffff168173ffffffffffffffffffffffffffffffffffffffff16146106e7576040517f08c379a00000000000000000000000000000000000000000000000000000000081526004016106de90611a91565b60405180910390fd5b6106f18282610e0f565b5050565b7f97667070c54ef182b0f5858b034beac1b6f3089aa2d3188bb1e8929f4fa9b92961072781610722610c8a565b610c92565b816005819055505050565b61073a610c8a565b73ffffffffffffffffffffffffffffffffffffffff166107586107c0565b73ffffffffffffffffffffffffffffffffffffffff16146107ae576040517f08c379a00000000000000000000000000000000000000000000000000000000081526004016107a590611afd565b60405180910390fd5b6107b86000610ef1565b565b60045481565b60008060009054906101000a900473ffffffffffffffffffffffffffffffffffffffff16905090565b60006001600084815260200190815260200160002060000160008373ffffffffffffffffffffffffffffffffffffffff1673ffffffffffffffffffffffffffffffffffffffff16815260200190815260200160002060009054906101000a900460ff16905092915050565b6000801b81565b6000811161089e576040517f08c379a00000000000000000000000000000000000000000000000000000000081526004016108959061188d565b60405180910390fd5b6000600260003373ffffffffffffffffffffffffffffffffffffffff1673ffffffffffffffffffffffffffffffffffffffff16815260200190815260200160002090508060020160009054906101000a900460ff166109195760018160020160006101000a81548160ff021916908315150217905550610960565b8060010154421061095f576040517f08c379a000000000000000000000000000000000000000000000000000000000815260040161095690611b8f565b60405180910390fd5b5b8181600001546109709190611baf565b8160000181905550600554426109869190611baf565b81600101819055508160045461099c9190611baf565b6004819055506109f1333084600360009054906101000a900473ffffffffffffffffffffffffffffffffffffffff1673ffffffffffffffffffffffffffffffffffffffff16610fb5909392919063ffffffff16565b7f1449c6dd7851abc30abf37f57715f492010519147cc2652fbc38202c18a6ee90338342604051610a24939291906119e8565b60405180910390a15050565b610a3982610429565b610a4a81610a45610c8a565b610c92565b610a548383610e0f565b505050565b610a61610c8a565b73ffffffffffffffffffffffffffffffffffffffff16610a7f6107c0565b73ffffffffffffffffffffffffffffffffffffffff1614610ad5576040517f08c379a0000000000000000000000000000000000000000000000000000000008152600401610acc90611afd565b60405180910390fd5b600073ffffffffffffffffffffffffffffffffffffffff168173ffffffffffffffffffffffffffffffffffffffff1603610b44576040517f08c379a0000000000000000000000000000000000000000000000000000000008152600401610b3b90611c77565b60405180910390fd5b610b4d81610ef1565b50565b7f97667070c54ef182b0f5858b034beac1b6f3089aa2d3188bb1e8929f4fa9b92981565b600360009054906101000a900473ffffffffffffffffffffffffffffffffffffffff1681565b60007f01ffc9a7000000000000000000000000000000000000000000000000000000007bffffffffffffffffffffffffffffffffffffffffffffffffffffffff1916827bffffffffffffffffffffffffffffffffffffffffffffffffffffffff1916149050919050565b610c858363a9059cbb60e01b8484604051602401610c23929190611c97565b604051602081830303815290604052907bffffffffffffffffffffffffffffffffffffffffffffffffffffffff19166020820180517bffffffffffffffffffffffffffffffffffffffffffffffffffffffff838183161783525050505061103e565b505050565b600033905090565b610c9c82826107e9565b610d2b57610cc18173ffffffffffffffffffffffffffffffffffffffff166014611105565b610ccf8360001c6020611105565b604051602001610ce0929190611dd2565b6040516020818303038152906040526040517f08c379a0000000000000000000000000000000000000000000000000000000008152600401610d229190611e56565b60405180910390fd5b5050565b610d3982826107e9565b610e0b57600180600084815260200190815260200160002060000160008373ffffffffffffffffffffffffffffffffffffffff1673ffffffffffffffffffffffffffffffffffffffff16815260200190815260200160002060006101000a81548160ff021916908315150217905550610db0610c8a565b73ffffffffffffffffffffffffffffffffffffffff168173ffffffffffffffffffffffffffffffffffffffff16837f2f8788117e7eff1d82e926ec794901d17c78024a50270940304540a733656f0d60405160405180910390a45b5050565b610e1982826107e9565b15610eed5760006001600084815260200190815260200160002060000160008373ffffffffffffffffffffffffffffffffffffffff1673ffffffffffffffffffffffffffffffffffffffff16815260200190815260200160002060006101000a81548160ff021916908315150217905550610e92610c8a565b73ffffffffffffffffffffffffffffffffffffffff168173ffffffffffffffffffffffffffffffffffffffff16837ff6391f5c32d9c69d2a47ea670b442974b53935d1edc7fd64eb21e047a839171b60405160405180910390a45b5050565b60008060009054906101000a900473ffffffffffffffffffffffffffffffffffffffff169050816000806101000a81548173ffffffffffffffffffffffffffffffffffffffff021916908373ffffffffffffffffffffffffffffffffffffffff1602179055508173ffffffffffffffffffffffffffffffffffffffff168173ffffffffffffffffffffffffffffffffffffffff167f8be0079c531659141344cd1fd0a4f28419497f9722a3daafe3b4186f6b6457e060405160405180910390a35050565b611038846323b872dd60e01b858585604051602401610fd693929190611e78565b604051602081830303815290604052907bffffffffffffffffffffffffffffffffffffffffffffffffffffffff19166020820180517bffffffffffffffffffffffffffffffffffffffffffffffffffffffff838183161783525050505061103e565b50505050565b60006110a0826040518060400160405280602081526020017f5361666545524332303a206c6f772d6c6576656c2063616c6c206661696c65648152508573ffffffffffffffffffffffffffffffffffffffff166113419092919063ffffffff16565b905060008151111561110057808060200190518101906110c09190611edb565b6110ff576040517f08c379a00000000000000000000000000000000000000000000000000000000081526004016110f690611f7a565b60405180910390fd5b5b505050565b6060600060028360026111189190611f9a565b6111229190611baf565b67ffffffffffffffff81111561113b5761113a611ff4565b5b6040519080825280601f01601f19166020018201604052801561116d5781602001600182028036833780820191505090505b5090507f3000000000000000000000000000000000000000000000000000000000000000816000815181106111a5576111a4612023565b5b60200101907effffffffffffffffffffffffffffffffffffffffffffffffffffffffffffff1916908160001a9053507f78000000000000000000000000000000000000000000000000000000000000008160018151811061120957611208612023565b5b60200101907effffffffffffffffffffffffffffffffffffffffffffffffffffffffffffff1916908160001a905350600060018460026112499190611f9a565b6112539190611baf565b90505b60018111156112f3577f3031323334353637383961626364656600000000000000000000000000000000600f86166010811061129557611294612023565b5b1a60f81b8282815181106112ac576112ab612023565b5b60200101907effffffffffffffffffffffffffffffffffffffffffffffffffffffffffffff1916908160001a905350600485901c9450806112ec90612052565b9050611256565b5060008414611337576040517f08c379a000000000000000000000000000000000000000000000000000000000815260040161132e906120c7565b60405180910390fd5b8091505092915050565b60606113508484600085611359565b90509392505050565b60608247101561139e576040517f08c379a000000000000000000000000000000000000000000000000000000000815260040161139590612159565b60405180910390fd5b6113a78561146d565b6113e6576040517f08c379a00000000000000000000000000000000000000000000000000000000081526004016113dd906121c5565b60405180910390fd5b6000808673ffffffffffffffffffffffffffffffffffffffff16858760405161140f919061222c565b60006040518083038185875af1925050503d806000811461144c576040519150601f19603f3d011682016040523d82523d6000602084013e611451565b606091505b5091509150611461828286611480565b92505050949350505050565b600080823b905060008111915050919050565b60608315611490578290506114e0565b6000835111156114a35782518084602001fd5b816040517f08c379a00000000000000000000000000000000000000000000000000000000081526004016114d79190611e56565b60405180910390fd5b9392505050565b600080fd5b60007fffffffff0000000000000000000000000000000000000000000000000000000082169050919050565b611521816114ec565b811461152c57600080fd5b50565b60008135905061153e81611518565b92915050565b60006020828403121561155a576115596114e7565b5b60006115688482850161152f565b91505092915050565b60008115159050919050565b61158681611571565b82525050565b60006020820190506115a1600083018461157d565b92915050565b6000819050919050565b6115ba816115a7565b82525050565b60006020820190506115d560008301846115b1565b92915050565b600073ffffffffffffffffffffffffffffffffffffffff82169050919050565b6000611606826115db565b9050919050565b611616816115fb565b811461162157600080fd5b50565b6000813590506116338161160d565b92915050565b60006020828403121561164f5761164e6114e7565b5b600061165d84828501611624565b91505092915050565b6000819050919050565b61167981611666565b811461168457600080fd5b50565b60008135905061169681611670565b92915050565b6000602082840312156116b2576116b16114e7565b5b60006116c084828501611687565b91505092915050565b6116d281611666565b82525050565b60006020820190506116ed60008301846116c9565b92915050565b6116fc816115a7565b811461170757600080fd5b50565b600081359050611719816116f3565b92915050565b600060208284031215611735576117346114e7565b5b60006117438482850161170a565b91505092915050565b60008060408385031215611763576117626114e7565b5b600061177185828601611687565b925050602061178285828601611624565b9150509250929050565b611795816115fb565b82525050565b60006020820190506117b0600083018461178c565b92915050565b6000819050919050565b60006117db6117d66117d1846115db565b6117b6565b6115db565b9050919050565b60006117ed826117c0565b9050919050565b60006117ff826117e2565b9050919050565b61180f816117f4565b82525050565b600060208201905061182a6000830184611806565b92915050565b600082825260208201905092915050565b7f5a45524f5f414d4f554e54000000000000000000000000000000000000000000600082015250565b6000611877600b83611830565b915061188282611841565b602082019050919050565b600060208201905081810360008301526118a68161186a565b9050919050565b7f4e4f5f5354414b45530000000000000000000000000000000000000000000000600082015250565b60006118e3600983611830565b91506118ee826118ad565b602082019050919050565b60006020820190508181036000830152611912816118d6565b9050919050565b7f5354414b455f4c4f434b45440000000000000000000000000000000000000000600082015250565b600061194f600c83611830565b915061195a82611919565b602082019050919050565b6000602082019050818103600083015261197e81611942565b9050919050565b7f4e487b7100000000000000000000000000000000000000000000000000000000600052601160045260246000fd5b60006119bf826115a7565b91506119ca836115a7565b9250828210156119dd576119dc611985565b5b828203905092915050565b60006060820190506119fd600083018661178c565b611a0a60208301856115b1565b611a1760408301846115b1565b949350505050565b7f416363657373436f6e74726f6c3a2063616e206f6e6c792072656e6f756e636560008201527f20726f6c657320666f722073656c660000000000000000000000000000000000602082015250565b6000611a7b602f83611830565b9150611a8682611a1f565b604082019050919050565b60006020820190508181036000830152611aaa81611a6e565b9050919050565b7f4f776e61626c653a2063616c6c6572206973206e6f7420746865206f776e6572600082015250565b6000611ae7602083611830565b9150611af282611ab1565b602082019050919050565b60006020820190508181036000830152611b1681611ada565b9050919050565b7f4c6f636b20657870697265642c20706c6561736520776974686472617720616e60008201527f64207374616b6520616761696e00000000000000000000000000000000000000602082015250565b6000611b79602d83611830565b9150611b8482611b1d565b604082019050919050565b60006020820190508181036000830152611ba881611b6c565b9050919050565b6000611bba826115a7565b9150611bc5836115a7565b9250827fffffffffffffffffffffffffffffffffffffffffffffffffffffffffffffffff03821115611bfa57611bf9611985565b5b828201905092915050565b7f4f776e61626c653a206e6577206f776e657220697320746865207a65726f206160008201527f6464726573730000000000000000000000000000000000000000000000000000602082015250565b6000611c61602683611830565b9150611c6c82611c05565b604082019050919050565b60006020820190508181036000830152611c9081611c54565b9050919050565b6000604082019050611cac600083018561178c565b611cb960208301846115b1565b9392505050565b600081905092915050565b7f416363657373436f6e74726f6c3a206163636f756e7420000000000000000000600082015250565b6000611d01601783611cc0565b9150611d0c82611ccb565b601782019050919050565b600081519050919050565b60005b83811015611d40578082015181840152602081019050611d25565b83811115611d4f576000848401525b50505050565b6000611d6082611d17565b611d6a8185611cc0565b9350611d7a818560208601611d22565b80840191505092915050565b7f206973206d697373696e6720726f6c6520000000000000000000000000000000600082015250565b6000611dbc601183611cc0565b9150611dc782611d86565b601182019050919050565b6000611ddd82611cf4565b9150611de98285611d55565b9150611df482611daf565b9150611e008284611d55565b91508190509392505050565b6000601f19601f8301169050919050565b6000611e2882611d17565b611e328185611830565b9350611e42818560208601611d22565b611e4b81611e0c565b840191505092915050565b60006020820190508181036000830152611e708184611e1d565b905092915050565b6000606082019050611e8d600083018661178c565b611e9a602083018561178c565b611ea760408301846115b1565b949350505050565b611eb881611571565b8114611ec357600080fd5b50565b600081519050611ed581611eaf565b92915050565b600060208284031215611ef157611ef06114e7565b5b6000611eff84828501611ec6565b91505092915050565b7f5361666545524332303a204552433230206f7065726174696f6e20646964206e60008201527f6f74207375636365656400000000000000000000000000000000000000000000602082015250565b6000611f64602a83611830565b9150611f6f82611f08565b604082019050919050565b60006020820190508181036000830152611f9381611f57565b9050919050565b6000611fa5826115a7565b9150611fb0836115a7565b9250817fffffffffffffffffffffffffffffffffffffffffffffffffffffffffffffffff0483118215151615611fe957611fe8611985565b5b828202905092915050565b7f4e487b7100000000000000000000000000000000000000000000000000000000600052604160045260246000fd5b7f4e487b7100000000000000000000000000000000000000000000000000000000600052603260045260246000fd5b600061205d826115a7565b9150600082036120705761206f611985565b5b600182039050919050565b7f537472696e67733a20686578206c656e67746820696e73756666696369656e74600082015250565b60006120b1602083611830565b91506120bc8261207b565b602082019050919050565b600060208201905081810360008301526120e0816120a4565b9050919050565b7f416464726573733a20696e73756666696369656e742062616c616e636520666f60008201527f722063616c6c0000000000000000000000000000000000000000000000000000602082015250565b6000612143602683611830565b915061214e826120e7565b604082019050919050565b6000602082019050818103600083015261217281612136565b9050919050565b7f416464726573733a2063616c6c20746f206e6f6e2d636f6e7472616374000000600082015250565b60006121af601d83611830565b91506121ba82612179565b602082019050919050565b600060208201905081810360008301526121de816121a2565b9050919050565b600081519050919050565b600081905092915050565b6000612206826121e5565b61221081856121f0565b9350612220818560208601611d22565b80840191505092915050565b600061223882846121fb565b91508190509291505056fea26469706673582212204a9a5fbe95b847cf21c2d672bd0c7aa9ae8f56155041775bfc54e3abf315cc5464736f6c634300080d0033",
  "immutableReferences": {},
  "source": "// SPDX-License-Identifier: MIT\r\npragma solidity 0.8.13;\r\n\r\nimport \"@openzeppelin/contracts/token/ERC20/IERC20.sol\";\r\nimport \"@openzeppelin/contracts/token/ERC20/utils/SafeERC20.sol\";\r\nimport \"@openzeppelin/contracts/access/AccessControl.sol\";\r\nimport \"@openzeppelin/contracts/access/Ownable.sol\";\r\n\r\ncontract Staking is Ownable, AccessControl{\r\n    using SafeERC20 for IERC20;\r\n\r\n    bytes32 public constant OPERATOR_ROLE = keccak256(\"OPERATOR_ROLE\");   \r\n    \r\n    struct StakeInfo {\r\n        uint256 amount;\r\n        uint256 endTime;\r\n        bool hasStaked;\r\n    }\r\n\r\n    mapping(address => StakeInfo) private _stakes;\r\n\r\n    IERC20  public token;\r\n    uint256 public totalStaked;\r\n    uint256 public lockDuration = 3600 * 15;\r\n\r\n    event Staked(address from, uint256 amount, uint256 time);\r\n    event Unstaked(address from, uint256 amount, uint256 time);\r\n\r\n    constructor(address _token) {\r\n        require(_token != address(0), \"ZERO_ADRESS\");\r\n        token = IERC20(_token);\r\n        _setupRole(DEFAULT_ADMIN_ROLE, _msgSender());\r\n        _setupRole(OPERATOR_ROLE, _msgSender());\r\n    }\r\n\r\n    //GETTERS\r\n    function getStakeAmount(address account) external view returns (uint256){\r\n        return _stakes[account].amount;\r\n    }\r\n\r\n    function stake(uint256 amount) external {\r\n        require(amount > 0, \"ZERO_AMOUNT\");\r\n        StakeInfo storage staker = _stakes[msg.sender];\r\n        if (!staker.hasStaked){\r\n            staker.hasStaked = true;\r\n        }else {\r\n            require(\r\n                    block.timestamp < staker.endTime,\r\n                    \"Lock expired, please withdraw and stake again\"\r\n            );\r\n        }\r\n        staker.amount = staker.amount + amount;\r\n        staker.endTime = block.timestamp + lockDuration;\r\n        totalStaked = totalStaked + amount;\r\n        token.safeTransferFrom(msg.sender, address(this), amount);\r\n\r\n        emit Staked(msg.sender, amount, block.timestamp);\r\n    }\r\n\r\n\r\n    function withdraw(uint256 amount) external {\r\n        require(amount > 0, \"ZERO_AMOUNT\");\r\n        StakeInfo storage staker = _stakes[msg.sender];\r\n        require(staker.hasStaked, \"NO_STAKES\");\r\n        require(\r\n            block.timestamp >= staker.endTime,\r\n            \"STAKE_LOCKED\"\r\n        );   \r\n        \r\n        staker.amount = staker.amount - amount;\r\n        totalStaked = totalStaked - amount;\r\n        if (staker.amount == 0){\r\n            staker.hasStaked = false;\r\n        }\r\n        token.safeTransfer(msg.sender, amount);\r\n\r\n        emit Unstaked(msg.sender, amount, block.timestamp);\r\n    }\r\n    //SETTERS\r\n    function setLockDuration(uint256 _lockDuration) external onlyRole(OPERATOR_ROLE){\r\n        lockDuration = _lockDuration;\r\n    }\r\n\r\n}",
  "sourcePath": "C:\\Users\\Cemil\\Documents\\GitHub\\dAngelContracts\\contracts\\Staking.sol",
  "compiler": {
    "name": "solc",
    "version": "0.8.13+commit.abaa5c0e.Emscripten.clang"
  },
  "schemaVersion": "3.4.6",
  "updatedAt": "2022-04-05T16:38:00.468Z",
  "devdoc": {
    "kind": "dev",
    "methods": {
      "getRoleAdmin(bytes32)": {
        "details": "Returns the admin role that controls `role`. See {grantRole} and {revokeRole}. To change a role's admin, use {_setRoleAdmin}."
      },
      "grantRole(bytes32,address)": {
        "details": "Grants `role` to `account`. If `account` had not been already granted `role`, emits a {RoleGranted} event. Requirements: - the caller must have ``role``'s admin role."
      },
      "hasRole(bytes32,address)": {
        "details": "Returns `true` if `account` has been granted `role`."
      },
      "owner()": {
        "details": "Returns the address of the current owner."
      },
      "renounceOwnership()": {
        "details": "Leaves the contract without owner. It will not be possible to call `onlyOwner` functions anymore. Can only be called by the current owner. NOTE: Renouncing ownership will leave the contract without an owner, thereby removing any functionality that is only available to the owner."
      },
      "renounceRole(bytes32,address)": {
        "details": "Revokes `role` from the calling account. Roles are often managed via {grantRole} and {revokeRole}: this function's purpose is to provide a mechanism for accounts to lose their privileges if they are compromised (such as when a trusted device is misplaced). If the calling account had been revoked `role`, emits a {RoleRevoked} event. Requirements: - the caller must be `account`."
      },
      "revokeRole(bytes32,address)": {
        "details": "Revokes `role` from `account`. If `account` had been granted `role`, emits a {RoleRevoked} event. Requirements: - the caller must have ``role``'s admin role."
      },
      "supportsInterface(bytes4)": {
        "details": "See {IERC165-supportsInterface}."
      },
      "transferOwnership(address)": {
        "details": "Transfers ownership of the contract to a new account (`newOwner`). Can only be called by the current owner."
      }
    },
    "version": 1
  },
  "userdoc": {
    "kind": "user",
    "methods": {},
    "version": 1
  }
}